:1000200032D83BD8CC50030B006219EF00F012EF2E
:1000300000F0CD50030B036232EF00F001622CEFB1
:1000400000F0026226EF00F012EF00F0002A100E1E
:100050000064006A35EF00F00006D8B40F0E006EA1
:1000600035EF00F0006A35EF00F0000EF86E000E7C
:10007000F76E000EF66E0050F62608006F00D7FFF0
:10008000CDFF12EF00F03F01CD6A3F01BD6A3A019A
:10009000706B3F01000EC56E12003F01CC6A3F013C
:0E00A000BC6A3A01606B3F01030EC46E120091
:10010000C0F9A4B0999282F880988883C6A1868E9F
:020000040030CA
:0A000000F8FFFFFF9FFFFFFFFFFF67
:00000001FF
