:04000000FEEFFFF020
:1020000000D425000000000000008428000000002B
:102010005227000000000000000000000000000047
:1020200000000000000000000000000000000000B0
:1020300000000000000000000000000000BE2700BB
:102040009C27007A270000000052616E646F6D3A91
:072050002025640D0A0000C9
:102058001F50D96EDA6A6F007FFFF6FF200EF76E09
:10206800000EF86E0800F550250AD8A43EEF10F0CF
:1020780040EF10F003EF11F01F50D96EDA6ADF2A33
:10208800000E496E000E486E48C04EF04A684B6814
:102098001F50D96EDA6ADF50236E60008FF0F6FFAA
:1020A800200EF76E000EF86E0800F550640AD8B4DA
:1020B80060EF10F062EF10F073EF10F060008FF037
:1020C800F6FF200EF76E000EF86E0800F550690A4C
:1020D800D8A471EF10F073EF10F0FDEF10F020505E
:1020E800D96EDA6A020EDF26DF5CD96EDA6A6F0013
:1020F80078FF24F06F0078FF25F01F50D96EDA6A58
:102108002328DF6E200E286E25BE8DEF10F090EF8D
:1021180010F0010E91EF10F0000E226E28062850E4
:10212800600FD96EDA6A24C013F025C014F0000ECF
:10213800166E0A0E156EE7EC11F013C019F014C0F4
:102148001AF08FEC13F01950300FDF6E24C001F035
:1021580025C002F0000E046E0A0E036E86EC11F024
:1021680001C024F002C025F024502510D8B4BFEFD8
:1021780010F0C1EF10F0C9EF10F02850D8A4C7EF45
:1021880010F0C9EF10F092EF10F02850D8B4CFEF4C
:1021980010F0D1EF10F0F2EF10F02250D8B4D7EFD2
:1021A80010F0D9EF10F0F2EF10F028062850600F69
:1021B800D96EDA6A2D0EDF6EF2EF10F02850600F3C
:1021C800D96EDA6ADF50216E2150036E046A1DC091
:1021D80005F01EC006F01AEC11F0282A200E281867
:1021E800D8A4F9EF10F0FBEF10F0E2EF10F019EFC0
:1021F80011F01F50D96EDA6ADF2A19EF11F01F505B
:10220800D96EDA6A6F007FFFF6FF200EF76E000EB8
:10221800F86E0800F550036E046A1DC005F01EC074
:1022280006F01AEC11F0FDEF10F012000550061040
:10223800D8B421EF11F023EF11F02CEF11F0055075
:102248000610D8A42AEF11F02CEF11F031EF11F09D
:102258000350FFEC13F085EF11F020EE09F0055064
:10226800D9260650DA22DE50DE10D8B43EEF11F03F
:1022780040EF11F05BEF11F020EE09F00550D92680
:102288000650DA2210EE02F00550E1260650E2224E
:10229800DE50E65CE650800A0B6EDE50800A0B5872
:1022A800D8B059EF11F05BEF11F085EF11F020EE87
:1022B80002F00550D9260650DA226F0078FF07F0A1
:1022C8006F0074FF08F0600017F0D9FF60001BF082
:1022D800DAFF6F0078FF09F06F0074FF0AF007500B
:1022E8000924D96E08500A20DA6E60000FF0DFFF6B
:1022F80020EE02F00550D9260650DA22DE2A000E1A
:10230800DD221200066A04BE8EEF11F08CEF11F088
:1023180094EF11F0036C041ED8B0042A010E066E67
:1023280002BE9BEF11F099EF11F0A1EF11F0016CD3
:10233800021ED8B0022A010E061A000E086E000E00
:10234800076E03500410D8B4ACEF11F0AEEF11F0E3
:10235800D6EF11F0010E056EB6EF11F0D8900336E6
:102368000436052A04AEBBEF11F0BDEF11F0B2EF51
:1023780011F0D890073608360350015C0450025813
:10238800D8A0C9EF11F0CBEF11F0D0EF11F0035046
:10239800015E0450025A0780D89004320332052E99
:1023A800BDEF11F00650D8B4DCEF11F0DEEF11F0FC
:1023B800E2EF11F0076C081ED8B0082A07C001F038
:1023C80008C002F01200186A14BEEFEF11F0EDEF2A
:1023D80011F0F5EF11F0136C141ED8B0142A010E89
:1023E800186E16BEFCEF11F0FAEF11F000EF12F0C4
:1023F800156C161ED8B0162A15501610D8B407EF4B
:1024080012F009EF12F02DEF12F0010E176E11EF16
:1024180012F0D89015361636172A16AE16EF12F0A7
:1024280018EF12F00DEF12F01550135C16501458F7
:10243800D8A021EF12F023EF12F027EF12F0155079
:10244800135E1650145AD89016321532172E18EFFC
:1024580012F01850D8B433EF12F035EF12F039EF0C
:1024680012F0136C141ED8B0142A13C013F014C041
:1024780014F01200BA6ABB6ABC6ABD6ABE6A3A0145
:10248800426B526B626B726B826BC268C368C468C2
:10249800FE0EC56E070EC66E406950696069FC0E77
:1024A800706F070E806F416B516B616B716B816B45
:1024B8004369536963697369070E836F4469546993
:1024C800646974690F0E846F5A6B5B6B6A6B6B6B14
:1024D8007A6B7B6B190EE86F160E186F456B466B9F
:1024E800476B556B566B576B656B666B676B856B8C
:1024F800866B876B12004FC001F050C002F051C0CC
:1025080003F052C004F02D0E056E7F0E066E950E78
:10251800076E4C0E086EB5EC12F0010E01244F6EDA
:10252800000E0220506E000E0320516E000E042093
:10253800526E4FC00FF050C010F051C011F052C091
:1025480012F0120EADEF12F0D89012321132103292
:102558000F32E82EA8EF12F00FC00DF010C00EF0E9
:102568001200000E096E000E0A6E000E0B6E000EB1
:102578000C6E01A0C2EF12F0C4EF12F0CCEF12F013
:102588000550092606500A2207500B2208500C2233
:10259800D8900536063607360836D8900432033206
:1025A800023201320150021003100410D8A4DFEFE8
:1025B80012F0E1EF12F0BDEF12F009C001F00AC00D
:1025C80002F00BC003F00CC004F012003D01D46B04
:1025D800D66BD86BB00EDA6F800EDB6FDC6B820EB9
:1025E800DD6F060EDE6F2E0EDF6FE06B800EE16F83
:1025F800E26B000E016E000E026E000E036EDFEC41
:1026080013F0000E016E000E026E000E036ECEEC8B
:1026180013F0000E016E000E026E000E036EBDEC8C
:1026280013F0000E4D6E000E4C6E12001BEC14F0F1
:10263800EAEC12F07FEC12F00DC013F00EC014F0AB
:10264800000E166E640E156EE7EC11F0010E1324E1
:10265800346E000E1420356E490E2E6E34C02FF0E5
:1026680035C030F00EEC14F0520E336E2B0E326E75
:10267800000EE82EFED7322EFCD7332EFAD700D024
:102688001EEF13F0FEEFFFF02BC02DF056EF13F006
:1026980029C01DF02AC01EF02D0E1F6E2CC020F080
:1026A8002CEC10F06000B7F0F6FF200EF76E000E6D
:1026B800F86E0800F5500009D8A465EF13F067EF2D
:1026C80013F04CEF13F0000E2A6E000E296E120064
:1026D800D29A3901A191D280000E016E000E026ECD
:1026E800000E036E3BEC14F03901A591D282000E66
:1026F800016E000E026E000E036E34EC14F0390108
:10270800A79BD284000E016E000E026E000E036EAF
:102718002DEC14F012001ABE94EF13F096EF13F09C
:102728009CEF13F019C019F01AC01AF0A8EF13F0B3
:1027380019C01BF01AC01CF01B1E1C1E1B4A1C2AA9
:102748001BC019F01CC01AF01200016A3D01DFAB72
:10275800B0EF13F0B2EF13F0BBEF13F0DAABB7EF53
:1027680013F0B9EF13F0BBEF13F0010E016E015037
:102778001200015002100310D8B4C5EF13F0C7EFD0
:1027880013F0CDEF13F001C036F002C037F003C0EC
:1027980038F01200015002100310D8B4D6EF13F02D
:1027A800D8EF13F0DEEF13F001C039F002C03AF0B1
:1027B80003C03BF01200015002100310D8B4E7EF39
:1027C80013F0E9EF13F0EFEF13F001C03CF002C093
:1027D8003DF003C03EF0120000EE60F0200EEE6AFD
:1027E800E806FDE100EE36F01D0EEE6AE806FDE1B2
:1027F80000011AEF13F0026EA9EC13F00009D8B427
:1028080008EF14F00AEF14F000EF14F0025042EC55
:1028180014F012002F0E316E000E296E000E2A6E73
:102828002EC02BF0310E2C6E48EC13F0120024EC65
:1028380014F03EEC12F0EAEC12F06CEC13F012001B
:10284800600E3901D96FDB6BDD6B080EDF6FDE6B55
:10285800120001C03FF002C040F003C041F0120076
:1028680001C042F002C043F003C044F0120001C0AE
:1028780045F002C046F003C047F01200016E600048
:0628880007F0D2FD120072
:020000040001F9
:04FFFC00F0EF13F01F
:020000040030CA
:0A0000008FFFF7FF9FFFFFFFFFFFD8
:00000001FF
