:04000000FEEFFFF020
:1020000000446966666963756C7479204C65766511
:102010006C3A004E65787420537461676520696E70
:1020200020313A004E6578742053746167652069E9
:102030006E20333A004E65787420537461676520D2
:10204000696E2032005374617274696E6720696E24
:1020500020313A005374617274696E6720696E2092
:10206000323A005374617274696E6720696E20336E
:102070003A00594F55204C4F5345203A28200046EE
:10208000696E616C2053636F72653A00456E7465CA
:10209000722047756573733A00594F552057494E62
:1020A00021210025312E306400302E303000252EC5
:1020B000326600696E66006E616E00302F3300007C
:1020C00014EC30F05EEC30F0000E5D6E000E5C6ED5
:1020D000000E566E000E576E000E586E000E596EB2
:1020E0003E01F881F8B177EF10F079EF10F072EF60
:1020F00010F0EF516F00C0FB92F00001936B92C0A3
:1021000093F0926B9211A86F9351A96FA8C001F040
:10211000A9C002F0000E02BEFF0E036E046E010E97
:10212000BFEC28F001C00FF002C010F003C011F0A6
:1021300004C012F0330E136E330E146E530E156E70
:102140003A0E166E66EC22F00FC0A0F010C0A1F09F
:1021500011C0A2F012C0A3F0A0C028F0A1C029F0C5
:10216000A2C02AF0A3C02BF0000E2C6E000E2D6E24
:10217000800E2E6E3F0E2F6ED9EC2AF0D8B0C3EF32
:1021800010F0C5EF10F0CEEF10F0000E00019C6FC4
:10219000000E9D6F800E9E6F3F0E9F6F000E286E8B
:1021A000000E296E800E2A6E3F0E2B6EA0C02CF002
:1021B000A1C02DF0A2C02EF0A3C02FF0D9EC2AF0C0
:1021C000D8B0E5EF10F0E7EF10F0F0EF10F0000EF0
:1021D00000019C6F000E9D6F000E9E6F400E9F6F62
:1021E000000E286E000E296EC00E2A6E3F0E2B6E5A
:1021F000A0C02CF0A1C02DF0A2C02EF0A3C02FF0E3
:10220000D9EC2AF0D8B007EF11F009EF11F012EF76
:1022100011F0000E00019C6F000E9D6F400E9E6F2E
:10222000400E9F6F000E286E000E296E000E2A6E63
:10223000400E2B6EA0C02CF0A1C02DF0A2C02EF03D
:10224000A3C02FF0D9EC2AF0D8B029EF11F02BEF72
:1022500011F034EF11F0000E00019C6F000E9D6F25
:10226000800E9E6F400E9F6FAC0E00018C6FAE0E05
:102270008D6F9CC08EF09DC08FF09EC090F09FC06F
:1022800091F0F9EC2FF0000E0A6E010E0B6E0B5060
:10229000D8A4200E0C6E010EBDEC2FF0040E0A6EB9
:1022A000AC0E0B6E0C6A020EBDEC2FF0000E026E2F
:1022B000640E016E10EC2FF0CDBE61EF11F063EFF4
:1022C00011F070EF10F090EC30F0000E0A6E630E1B
:1022D0000B6E0B50D8A4200E0C6E010EBDEC2FF02F
:1022E000060E0001936F130E926FAD0EE82EFED70F
:1022F000922FFCD7932FFAD700D0000E0A6E540EFF
:102300000B6E0B50D8A4200E0C6E010EBDEC2FF0FE
:10231000060E0001936F130E926FAD0EE82EFED7DE
:10232000922FFCD7932FFAD700D0000E0A6E450EDD
:102330000B6E0B50D8A4200E0C6E010EBDEC2FF0CE
:10234000060E0001936F130E926FAD0EE82EFED7AE
:10235000922FFCD7932FFAD700D090EC30F09CC08E
:102360000FF09DC010F09EC011F09FC012F0000E43
:10237000136E000E146E800E156E400E166E44EC39
:102380002DF0D8A0C6EF11F0C8EF11F092EF16F0C3
:102390001BEC2EF00F0E0D145A6E5B6A60006BF191
:1023A000CDFF020E0001936F450E926FA90EE82E2D
:1023B000FED7922FFCD7932FFAD700D0CD6A820E8A
:1023C0000001926FDD0EE82EFED7922FFCD700D0D1
:1023D000000E0A6E8C0E0B6E0B50D8A4200E0C6EE5
:1023E000010EBDEC2FF0040E0A6EA90E0B6E0B5001
:1023F000D8A4200E0C6E020EBDEC2FF0A0EF12F050
:10240000CEB205EF12F007EF12F050EF12F056C007
:1024100001F057C002F058C003F059C004F0000E9C
:10242000056E000E066E800E076E3F0E086E0BECFA
:1024300020F001C056F002C057F003C058F004C0AD
:1024400059F0020E0001936F450E926FA90EE82E0F
:10245000FED7922FFCD7932FFAD700D0AC0E0001F5
:102460008C6FAE0E8D6F56C08EF057C08FF058C077
:1024700090F059C091F0F9EC2FF0000E0A6E8C0E1E
:102480000B6E0B50D8A4200E0C6E010EBDEC2FF07D
:10249000040E0A6EAC0E0B6E0C6A020EBDEC2FF031
:1024A000CEB055EF12F057EF12F0A0EF12F056C079
:1024B00028F057C029F058C02AF059C02BF0000E60
:1024C0002C6E000E2D6E800E2E6E3F0E2F6E58EC71
:1024D0002FF028C056F029C057F02AC058F02BC062
:1024E00059F0020E0001936F450E926FA90EE82E6F
:1024F000FED7922FFCD7932FFAD700D0AC0E000155
:102500008C6FAE0E8D6F56C08EF057C08FF058C0D6
:1025100090F059C091F0F9EC2FF0000E0A6E8C0E7D
:102520000B6E0B50D8A4200E0C6E010EBDEC2FF0DC
:10253000040E0A6EAC0E0B6E0C6A020EBDEC2FF090
:10254000CDBCA5EF12F0A7EF12F000EF12F05AC0C9
:1025500001F05BC002F0000E02BEFF0E036E046EBF
:10256000010EBFEC28F001C00FF002C010F003C054
:1025700011F004C012F056C013F057C014F058C048
:1025800015F059C016F044EC2DF0D8A0CAEF12F0A7
:10259000CCEF12F0F6EF12F090EC30F0010E5C246C
:1025A0005C6E000E5D205D6E000E0A6E990E0B6E65
:1025B0000B50D8A4200E0C6E010EBDEC2FF01A0E9D
:1025C0000001936F5E0E926F6E0EE82EFED7922F73
:1025D000FCD7932FFAD70000000E566E000E576EF0
:1025E000000E586E000E596E18EF13F090EC30F09C
:1025F000000E0A6E720E0B6E0B50D8A4200E0C6EDD
:10260000010EBDEC2FF01A0E0001936F5E0E926F5B
:102610006E0EE82EFED7922FFCD7932FFAD700002C
:10262000000E566E000E576E000E586E000E596E5C
:1026300090EC30F0000E0A6E240E0B6E0B50D8A4F6
:10264000200E0C6E010EBDEC2FF0060E0001936FF4
:10265000130E926FAD0EE82EFED7922FFCD7932F5C
:10266000FAD700D0000E0A6E350E0B6E0B50D8A4B0
:10267000200E0C6E010EBDEC2FF0060E0001936FC4
:10268000130E926FAD0EE82EFED7922FFCD7932F2C
:10269000FAD700D0000E0A6E130E0B6E0B50D8A4A2
:1026A000200E0C6E010EBDEC2FF0060E0001936F94
:1026B000130E926FAD0EE82EFED7922FFCD7932FFC
:1026C000FAD700D090EC30F01BEC2EF00F0E0D146A
:1026D0005A6E5B6A60006BF1CDFF020E0001936FD2
:1026E000450E926FA90EE82EFED7922FFCD7932F9E
:1026F000FAD700D0CD6A820E0001926FDD0EE82E6F
:10270000FED7922FFCD700D0000E0A6E8C0E0B6EF7
:102710000B50D8A4200E0C6E010EBDEC2FF0040E51
:102720000A6EA90E0B6E0B50D8A4200E0C6E020E72
:10273000BDEC2FF032EF14F0CEB2A1EF13F0A3EF07
:1027400013F0E7EF13F056C001F057C002F058C085
:1027500003F059C004F0000E056E000E066E800EE8
:10276000076E3F0E086E0BEC20F001C056F002C061
:1027700057F003C058F004C059F0C30E0001926F27
:10278000CD0EE82EFED7922FFCD7AC0E00018C6F39
:10279000AE0E8D6F56C08EF057C08FF058C090F0BF
:1027A00059C091F0F9EC2FF0000E0A6E8C0E0B6EF2
:1027B0000B50D8A4200E0C6E010EBDEC2FF0040EB1
:1027C0000A6EAC0E0B6E0C6A020EBDEC2FF0CEB092
:1027D000ECEF13F0EEEF13F032EF14F056C028F0E8
:1027E00057C029F058C02AF059C02BF0000E2C6EAB
:1027F000000E2D6E800E2E6E3F0E2F6E58EC2FF0B9
:1028000028C056F029C057F02AC058F02BC059F004
:10281000C30E0001926FCD0EE82EFED7922FFCD78B
:10282000AC0E00018C6FAE0E8D6F56C08EF057C08F
:102830008FF058C090F059C091F0F9EC2FF0000ED5
:102840000A6E8C0E0B6E0B50D8A4200E0C6E010E6F
:10285000BDEC2FF0040E0A6EAC0E0B6E0C6A020E6D
:10286000BDEC2FF0CDBC37EF14F039EF14F09CEF36
:1028700013F05AC001F05BC002F0000E02BEFF0E62
:10288000036E046E010EBFEC28F001C00FF002C011
:1028900010F003C011F004C012F056C013F057C07E
:1028A00014F058C015F059C016F044EC2DF0D8A023
:1028B0005CEF14F05EEF14F088EF14F090EC30F061
:1028C000010E5C245C6E000E5D205D6E000E0A6ED3
:1028D000990E0B6E0B50D8A4200E0C6E010EBDECA1
:1028E0002FF01A0E0001936F5E0E926F6E0EE82E9F
:1028F000FED7922FFCD7932FFAD70000000E566E0A
:10290000000E576E000E586E000E596EAAEF14F0AE
:1029100090EC30F0000E0A6E720E0B6E0B50D8A4C5
:10292000200E0C6E010EBDEC2FF01A0E0001936FFD
:102930005E0E926F6E0EE82EFED7922FFCD7932F6D
:10294000FAD70000000E566E000E576E000E586E3D
:10295000000E596E90EC30F0000E0A6E240E0B6ED5
:102960000B50D8A4200E0C6E010EBDEC2FF0060EFD
:102970000001936F130E926FAD0EE82EFED7922FCB
:10298000FCD7932FFAD700D0000E0A6E350E0B6ECF
:102990000B50D8A4200E0C6E010EBDEC2FF0060ECD
:1029A0000001936F130E926FAD0EE82EFED7922F9B
:1029B000FCD7932FFAD700D0000E0A6E130E0B6EC1
:1029C0000B50D8A4200E0C6E010EBDEC2FF0060E9D
:1029D0000001936F130E926FAD0EE82EFED7922F6B
:1029E000FCD7932FFAD700D090EC30F01BEC2EF0F0
:1029F0000F0E0D145A6E5B6A60006BF1CDFF020E74
:102A00000001936F450E926FA90EE82EFED7922F0C
:102A1000FCD7932FFAD700D0CD6A820E0001926FB7
:102A2000DD0EE82EFED7922FFCD700D0000E0A6EE6
:102A30008C0E0B6E0B50D8A4200E0C6E010EBDEC4C
:102A40002FF0040E0A6EA90E0B6E0B50D8A4200EA8
:102A50000C6E020EBDEC2FF0C6EF15F0CEB233EFC8
:102A600015F035EF15F07AEF15F056C001F057C0AC
:102A700002F058C003F059C004F0000E056E000EBD
:102A8000066E800E076E3F0E086E0BEC20F001C044
:102A900056F002C057F003C058F004C059F0410E80
:102AA0000001926FEE0EE82EFED7922FFCD70000A9
:102AB000AC0E00018C6FAE0E8D6F56C08EF057C0FD
:102AC0008FF058C090F059C091F0F9EC2FF0000E43
:102AD0000A6E8C0E0B6E0B50D8A4200E0C6E010EDD
:102AE000BDEC2FF0040E0A6EAC0E0B6E0C6A020EDB
:102AF000BDEC2FF0CEB07FEF15F081EF15F0C6EFF3
:102B000015F056C028F057C029F058C02AF059C017
:102B10002BF0000E2C6E000E2D6E800E2E6E3F0ED2
:102B20002F6E58EC2FF028C056F029C057F02AC05D
:102B300058F02BC059F0410E0001926FEE0EE82EB6
:102B4000FED7922FFCD70000AC0E00018C6FAE0EAA
:102B50008D6F56C08EF057C08FF058C090F059C09E
:102B600091F0F9EC2FF0000E0A6E8C0E0B6E0B50EC
:102B7000D8A4200E0C6E010EBDEC2FF0040E0A6ED0
:102B8000AC0E0B6E0C6A020EBDEC2FF0CDBCCBEF81
:102B900015F0CDEF15F02EEF15F05AC001F05BC027
:102BA00002F0000E02BEFF0E036E046E010EBFECBB
:102BB00028F001C00FF002C010F003C011F004C0F3
:102BC00012F056C013F057C014F058C015F059C099
:102BD00016F044EC2DF0D8A0F0EF15F0F2EF15F060
:102BE0001CEF16F090EC30F0010E5C245C6E000ED1
:102BF0005D205D6E000E0A6E990E0B6E0B50D8A410
:102C0000200E0C6E010EBDEC2FF01A0E0001936F1A
:102C10005E0E926F6E0EE82EFED7922FFCD7932F8A
:102C2000FAD70000000E566E000E576E000E586E5A
:102C3000000E596E3EEF16F090EC30F0000E0A6E6A
:102C4000720E0B6E0B50D8A4200E0C6E010EBDEC54
:102C50002FF01A0E0001936F5E0E926F6E0EE82E2B
:102C6000FED7922FFCD7932FFAD70000000E566E96
:102C7000000E576E000E586E000E596E5C505D10BF
:102C8000D8A445EF16F047EF16F06CEF16F0000EE3
:102C90000A6E7F0E0B6E0B50D8A4200E0C6E010E28
:102CA000BDEC2FF0040E0A6EBB0E0B6E0B50D8A4B9
:102CB000200E0C6E020EBDEC2FF01A0E0001936F69
:102CC0005E0E926F6E0EE82EFED7922FFCD7932FDA
:102CD000FAD7000060EF10F0AC0E00018C6FA30E6D
:102CE0008D6F5CC08EF05DC08FF0F9EC2FF0000EA0
:102CF0000A6E7F0E0B6E0B50D8A4200E0C6E010EC8
:102D0000BDEC2FF0AC0E016EBC0E026E87EC2EF007
:102D1000040E0A6EAC0E0B6E0C6A020EBDEC2FF0A8
:102D20005DEF16F09CC00FF09DC010F09EC011F03A
:102D30009FC012F0000E136E000E146E400E156E42
:102D4000400E166E44EC2DF0D8A0A9EF16F0ABEFB4
:102D500016F0F7EF17F01BEC2EF00F0E0D145A6E55
:102D60005B6A60006BF1CDFF030E0001936F8A0E6A
:102D7000926F550EE82EFED7922FFCD7932FFAD7DD
:102D800000D0CD6A820E0001926FDD0EE82EFED7D4
:102D9000922FFCD700D0000E0A6E8C0E0B6E0B50DB
:102DA000D8A4200E0C6E010EBDEC2FF0040E0A6E9E
:102DB000A90E0B6E0B50D8A4200E0C6E020EBDECAB
:102DC0002FF083EF17F0CEB2E8EF16F0EAEF16F02F
:102DD00033EF17F056C001F057C002F058C003F0AF
:102DE00059C004F0000E056E000E066E800E076ED0
:102DF0003F0E086E0BEC20F001C056F002C057F0F9
:102E000003C058F004C059F0020E0001936F450E44
:102E1000926FA90EE82EFED7922FFCD7932FFAD7E8
:102E200000D0AC0E00018C6FAE0E8D6F56C08EF0D0
:102E300057C08FF058C090F059C091F0F9EC2FF0C6
:102E4000000E0A6E8C0E0B6E0B50D8A4200E0C6E6A
:102E5000010EBDEC2FF0040E0A6EAC0E0B6E0C6A68
:102E6000020EBDEC2FF0CEB038EF17F03AEF17F0AE
:102E700083EF17F056C028F057C029F058C02AF049
:102E800059C02BF0000E2C6E000E2D6E800E2E6E93
:102E90003F0E2F6E58EC2FF028C056F029C057F087
:102EA0002AC058F02BC059F0020E0001936F450E56
:102EB000926FA90EE82EFED7922FFCD7932FFAD748
:102EC00000D0AC0E00018C6FAE0E8D6F56C08EF030
:102ED00057C08FF058C090F059C091F0F9EC2FF026
:102EE000000E0A6E8C0E0B6E0B50D8A4200E0C6ECA
:102EF000010EBDEC2FF0040E0A6EAC0E0B6E0C6AC8
:102F0000020EBDEC2FF0CDBC88EF17F08AEF17F062
:102F1000E3EF16F05AC001F05BC002F0000E02BEF3
:102F2000FF0E036E046E010EBFEC28F001C00FF01F
:102F300002C010F003C011F004C012F056C013F02C
:102F400057C014F058C015F059C016F044EC2DF0DD
:102F5000D8A0ADEF17F0AFEF17F0D3EF17F090EC6C
:102F600030F0000E0A6E990E0B6E0B50D8A4200E96
:102F70000C6E010EBDEC2FF01A0E0001936F5E0E69
:102F8000926F6E0EE82EFED7922FFCD7932FFAD7B2
:102F90000000000E566E000E576E000E586E000EAA
:102FA000596E60EF10F090EC30F0000E0A6E720E69
:102FB0000B6E0B50D8A4200E0C6E010EBDEC2FF042
:102FC0001A0E0001936F5E0E926F6E0EE82EFED702
:102FD000922FFCD7932FFAD70000000E566E000EEA
:102FE000576E000E586E000E596E60EF10F09CC0C8
:102FF0000FF09DC010F09EC011F09FC012F0000EA7
:10300000136E000E146E000E156E400E166E44EC1C
:103010002DF0D8A00EEF18F010EF18F068EF19F0AF
:103020001BEC2EF00DC013F00EC014F0000E166E47
:103030000E0E156E97EC2CF0010E13245A6E000E36
:1030400014205B6E60006BF1CDFF060E0001936FE4
:10305000130E926FAD0EE82EFED7922FFCD7932F52
:10306000FAD700D0CD6A820E0001926FDD0EE82EF5
:10307000FED7922FFCD700D0000E0A6E8C0E0B6E7E
:103080000B50D8A4200E0C6E010EBDEC2FF0040ED8
:103090000A6EA90E0B6E0B50D8A4200E0C6E020EF9
:1030A000BDEC2FF0F4EF18F0CEB259EF18F05BEF53
:1030B00018F0A4EF18F056C001F057C002F058C045
:1030C00003F059C004F0000E056E000E066E800E6F
:1030D000076E3F0E086E0BEC20F001C056F002C0E8
:1030E00057F003C058F004C059F0020E0001936F6E
:1030F000450E926FA90EE82EFED7922FFCD7932F84
:10310000FAD700D0AC0E00018C6FAE0E8D6F56C09A
:103110008EF057C08FF058C090F059C091F0F9EC84
:103120002FF0000E0A6E8C0E0B6E0B50D8A4200EE2
:103130000C6E010EBDEC2FF0040E0A6EAC0E0B6E81
:103140000C6A020EBDEC2FF0CEB0A9EF18F0ABEF79
:1031500018F0F4EF18F056C028F057C029F058C006
:103160002AF059C02BF0000E2C6E000E2D6E800E32
:103170002E6E3F0E2F6E58EC2FF028C056F029C04F
:1031800057F02AC058F02BC059F0020E0001936F7F
:10319000450E926FA90EE82EFED7922FFCD7932FE3
:1031A000FAD700D0AC0E00018C6FAE0E8D6F56C0FA
:1031B0008EF057C08FF058C090F059C091F0F9ECE4
:1031C0002FF0000E0A6E8C0E0B6E0B50D8A4200E42
:1031D0000C6E010EBDEC2FF0040E0A6EAC0E0B6EE1
:1031E0000C6A020EBDEC2FF0CDBCF9EF18F0FBEF2E
:1031F00018F054EF18F05AC001F05BC002F0000E56
:1032000002BEFF0E036E046E010EBFEC28F001C07B
:103210000FF002C010F003C011F004C012F056C04D
:1032200013F057C014F058C015F059C016F044EC14
:103230002DF0D8A01EEF19F020EF19F044EF19F08F
:1032400090EC30F0000E0A6E990E0B6E0B50D8A465
:10325000200E0C6E010EBDEC2FF01A0E0001936FC4
:103260005E0E926F6E0EE82EFED7922FFCD7932F34
:10327000FAD70000000E566E000E576E000E586E04
:10328000000E596E60EF10F090EC30F0000E0A6EF8
:10329000720E0B6E0B50D8A4200E0C6E010EBDECFE
:1032A0002FF01A0E0001936F5E0E926F6E0EE82ED5
:1032B000FED7922FFCD7932FFAD70000000E566E40
:1032C000000E576E000E586E000E596E60EF10F033
:1032D0009CC00FF09DC010F09EC011F09FC012F076
:1032E000000E136E000E146E800E156E3F0E166EDD
:1032F00044EC2DF0D8A07FEF19F081EF19F0AFEF7B
:1033000011F01BEC2EF00F0E0D145A6E5B6A60006C
:103310006BF1CDFF0B0E0001936F260E926F5D0EC9
:10332000E82EFED7922FFCD7932FFAD700D0CD6A84
:10333000820E0001926FDD0EE82EFED7922FFCD791
:1033400000D0000E0A6E8C0E0B6E0B50D8A4200E0F
:103350000C6E010EBDEC2FF0040E0A6EA90E0B6E62
:103360000B50D8A4200E0C6E020EBDEC2FF059EFBE
:103370001AF0CEB2BEEF19F0C0EF19F009EF1AF053
:1033800056C001F057C002F058C003F059C004F015
:10339000000E056E000E066E800E076E3F0E086E64
:1033A0000BEC20F001C056F002C057F003C058F0FB
:1033B00004C059F0020E0001936F450E926FA90EE2
:1033C000E82EFED7922FFCD7932FFAD700D0AC0E61
:1033D00000018C6FAE0E8D6F56C08EF057C08FF00F
:1033E00058C090F059C091F0F9EC2FF0000E0A6E21
:1033F0008C0E0B6E0B50D8A4200E0C6E010EBDEC83
:103400002FF0040E0A6EAC0E0B6E0C6A020EBDECB1
:103410002FF0CEB00EEF1AF010EF1AF059EF1AF0AD
:1034200056C028F057C029F058C02AF059C02BF0D8
:10343000000E2C6E000E2D6E800E2E6E3F0E2F6E27
:1034400058EC2FF028C056F029C057F02AC058F089
:103450002BC059F0020E0001936F450E926FA90E1A
:10346000E82EFED7922FFCD7932FFAD700D0AC0EC0
:1034700000018C6FAE0E8D6F56C08EF057C08FF06E
:1034800058C090F059C091F0F9EC2FF0000E0A6E80
:103490008C0E0B6E0B50D8A4200E0C6E010EBDECE2
:1034A0002FF0040E0A6EAC0E0B6E0C6A020EBDEC11
:1034B0002FF0CDBC5EEF1AF060EF1AF0B9EF19F003
:1034C0005AC001F05BC002F0000E02BEFF0E036E98
:1034D000046E010EBFEC28F001C00FF002C010F026
:1034E00003C011F004C012F056C013F057C014F01E
:1034F00058C015F059C016F044EC2DF0D8A083EF59
:103500001AF085EF1AF0F2EF1AF05AC001F05BC022
:1035100002F0000E02BEFF0E036E046E010EBFEC41
:1035200028F001C00FF002C010F003C011F004C079
:1035300012F056C013F057C014F058C015F059C01F
:1035400016F044EC2DF0D8A0A8EF1AF0AAEF1AF06C
:10355000CEEF1AF090EC30F0000E0A6E990E0B6E62
:103560000B50D8A4200E0C6E010EBDEC2FF01A0EDD
:103570000001936F5E0E926F6E0EE82EFED7922FB3
:10358000FCD7932FFAD70000000E566E000E576E30
:10359000000E586E000E596E60EF10F090EC30F097
:1035A000000E0A6E990E0B6E0B50D8A4200E0C6EF6
:1035B000010EBDEC2FF01A0E0001936F5E0E926F9C
:1035C0006E0EE82EFED7922FFCD7932FFAD700006D
:1035D000000E566E000E576E000E586E000E596E9D
:1035E00060EF10F090EC30F0000E0A6E720E0B6E71
:1035F0000B50D8A4200E0C6E010EBDEC2FF01A0E4D
:103600000001936F5E0E926F6E0EE82EFED7922F22
:10361000FCD7932FFAD70000000E566E000E576E9F
:10362000000E586E000E596E60EF10F0FEEFFFF0C6
:103630000001816B35C084F036C085F037C086F05C
:1036400038C087F087BF29EF1BF027EF1BF03DEF55
:103650001BF0010E816F84C001F085C002F086C0AE
:1036600003F087C004F0DDEC2FF001C084F002C04D
:1036700085F003C086F004C087F0000E0001836F60
:10368000000E826FA4C071F0A5C072F08151D8B451
:103690004CEF1BF04EEF1BF062EF1BF08151D8A4F2
:1036A00054EF1BF056EF1BF05CEF1BF0000E676F42
:1036B0002B0E666F60EF1BF0000E676F2D0E666FAE
:1036C00066C081F084C001F085C002F086C003F0BE
:1036D00087C004F05BEC2BF001040210D8A473EF58
:1036E0001BF075EF1BF0A4EF1BF000018151D8B463
:1036F0007CEF1BF07EEF1BF087EF1BF081C000F129
:103700007107D8A07207000E836F010E826F000E42
:103710008225016E010E8321026EB30E036E35EC1D
:103720002FF00001FD0E7127FF0E722334C00FF041
:10373000000E106E010E116E71C012F072C013F007
:1037400099EC2DF00AEF20F084C001F085C002F062
:1037500086C003F087C004F05BEC2BF00150021030
:10376000D8A4B5EF1BF0B7EF1BF0D5EF1BF00001AD
:103770008151D8B4BEEF1BF0C0EF1BF0C9EF1BF0B6
:1037800081C000F17107D8A07207000E836F010E8F
:10379000826F000E8225016E010E8321026EB70E2C
:1037A000036E35EC2FF091EF1BF0000E0001886FD7
:1037B000000E896F800E8A6F3F0E8B6F000E706F48
:1037C000000E6F6F84C00FF085C010F086C011F03E
:1037D00087C012F0000E136E000E146E000E156EF0
:1037E000000E166E44EC2DF0D8B0F9EF1BF0FBEF95
:1037F0001BF0DAEF1CF008EF1CF073C088F074C007
:1038000089F075C08AF076C08BF000016F4B702B89
:1038100088C00FF089C010F08AC011F08BC012F080
:10382000000E136E000E146E200E156E410E166EF5
:1038300066EC22F00FC073F010C074F011C075F088
:1038400012C076F000017351845D016E7451855988
:10385000026E75518659036E76518759046EE5ECF8
:103860002EF004BE3FEF1CF004500310021009E1DB
:10387000020E015CD8A03FEF1CF041EF1CF0FDEF01
:103880001BF073C028F074C029F075C02AF076C010
:103890002BF084C02CF085C02DF086C02EF087C0A0
:1038A0002FF0D9EC2AF0D8A058EF1CF05AEF1CF0FA
:1038B000FDEF1BF000018851845D016E895185592F
:1038C000026E8A518659036E8B518759046EE5EC5E
:1038D0002EF004BE79EF1CF004500310021007E133
:1038E000020E015CD8B077EF1CF079EF1CF0C1EF4D
:1038F0001CF088C084F089C085F08AC086F08BC037
:1039000087F0DAEF1CF088C001F089C002F08AC0AD
:1039100003F08BC004F0000E056E000E066E200E44
:10392000076E410E086E8BEC24F001C088F002C0D7
:1039300089F003C08AF004C08BF000016F07D8A0A3
:1039400070078851845D016E89518559026E8A51D4
:103950008659036E8B518759046EE5EC2EF004BE38
:10396000BFEF1CF004500310021007E1020E015CCF
:10397000D8B0BDEF1CF0BFEF1CF0C1EF1CF079EF29
:103980001CF084C028F085C029F086C02AF087C0CA
:103990002BF088C02CF089C02DF08AC02EF08BC08F
:1039A0002FF0D9EC2AF0D8A0D8EF1CF0DAEF1CF0F9
:1039B00083EF1CF039C069F069C06AF00001A7BF4D
:1039C000E4EF1CF0E6EF1CF0ECEF1CF0A6C062F098
:1039D000A7C063F0F0EF1CF0000E636F060E626F7D
:1039E00062C06DF063C06EF06D4B6E2B660E6A198F
:1039F000D8A4FDEF1CF0FFEF1CF01FEF1DF070BF0F
:103A000006EF1DF004EF1DF012EF1DF0000E886FA1
:103A1000000E896F800E8A6F3F0E8B6F000E706FE5
:103A2000000E6F6F670E6919D8B419EF1DF01BEF08
:103A30001DF01FEF1DF06F516D2770516E23000EAA
:103A4000786F000E776F84C079F085C07AF086C0F9
:103A50007BF087C07CF088C073F089C074F08AC0A6
:103A600075F08BC076F0B0EF1DF079C001F07AC030
:103A700002F07BC003F07CC004F088C005F089C070
:103A800006F08AC007F08BC008F08BEC24F001C070
:103A90001AF002C01BF003C01CF004C01DF0B6EC0D
:103AA00027F01AC07DF01BC07EF01CC07FF01DC047
:103AB00080F07DC001F07EC002F07FC003F080C0C6
:103AC00004F056EC2AF001C06BF002C06CF079C033
:103AD00028F07AC029F07BC02AF07CC02BF07DC092
:103AE00013F07EC014F07FC015F080C016F088C0BF
:103AF0000FF089C010F08AC011F08BC012F066EC94
:103B000022F00FC02CF010C02DF011C02EF012C00A
:103B10002FF058EC2FF028C079F029C07AF02AC095
:103B20007BF02BC07CF088C001F089C002F08AC015
:103B300003F08BC004F0000E056E000E066E200E22
:103B4000076E410E086E8BEC24F001C088F002C0B5
:103B500089F003C08AF004C08BF00001774B782B0A
:103B60006D51775D7851800A3A6E6E51800A3A58ED
:103B7000D8A0BDEF1DF0BFEF1DF035EF1DF088C0E0
:103B80000FF089C010F08AC011F08BC012F0000E47
:103B9000136E000E146EA00E156E400E166E66ECBF
:103BA00022F00FC07DF010C07EF011C07FF012C077
:103BB00080F079C028F07AC029F07BC02AF07CC060
:103BC0002BF07DC02CF07EC02DF07FC02EF080C089
:103BD0002FF0D9EC2AF0D8B0F0EF1DF0F2EF1DF085
:103BE000FDEF1DF0000E00017D6F000E7E6F000ED8
:103BF0007F6F000E806F26EF1EF079C00FF07AC045
:103C000010F07BC011F07CC012F07DC013F07EC0BC
:103C100014F07FC015F080C016F044EC2DF0D8A051
:103C200014EF1EF016EF1EF026EF1EF000016BB130
:103C30001CEF1EF01EEF1EF026EF1EF0000E7D6F33
:103C4000000E7E6F000E7F6F000E806F84C001F04B
:103C500085C002F086C003F087C004F07DC005F087
:103C60007EC006F07FC007F080C008F00BEC20F0AB
:103C700001C079F002C07AF003C07BF004C07CF090
:103C800079C028F07AC029F07BC02AF07CC02BF0E4
:103C9000000E136E000E146E200E156E410E166E81
:103CA00073C00FF074C010F075C011F076C012F040
:103CB00066EC22F00FC02CF010C02DF011C02EF0D9
:103CC00012C02FF0D9EC2AF0D8A069EF1EF06BEFEC
:103CD0001EF094EF1EF000016F4B702B73C00FF0BD
:103CE00074C010F075C011F076C012F0000E136EA3
:103CF000000E146E200E156E410E166E66EC22F04C
:103D00000FC073F010C074F011C075F012C076F0DF
:103D1000660E00016A19D8A490EF1EF092EF1EF013
:103D200094EF1EF06D4B6E2B73C088F074C089F059
:103D300075C08AF076C08BF06FC060F070C061F023
:103D40000001686B000E656F000E646F000E786FE7
:103D5000000E776F91EF1FF079C001F07AC002F08A
:103D60007BC003F07CC004F088C005F089C006F079
:103D70008AC007F08BC008F08BEC24F001C01AF069
:103D800002C01BF003C01CF004C01DF0B6EC27F00D
:103D90001AC07DF01BC07EF01CC07FF01DC080F0FB
:103DA0007DC001F07EC002F07FC003F080C004F04F
:103DB00056EC2AF002BEE8EF1EF0025007E10A0EB0
:103DC000015CD8B0E6EF1EF0E8EF1EF0F8EF1EF051
:103DD0007DC001F07EC002F07FC003F080C004F01F
:103DE00056EC2AF001C06BF002C06CF0FDEF1EF043
:103DF000000E00016C6F090E6B6F00016851D8A4B2
:103E000004EF1FF006EF1FF02EEF1FF061BF0DEF64
:103E10001FF00BEF1FF02EEF1FF0000E8225D96E62
:103E2000010E8321DA6E2E0EDF6E824B832B71071B
:103E3000D8A07207010E686F2EEF1FF0000E8225CA
:103E4000D96E010E8321DA6E300EDF6E824B832B2A
:103E50007107D8A072076407D8A06507645165117F
:103E6000D8A435EF1FF037EF1FF01EEF1FF0000E44
:103E70008225D96E010E8321DA6E6B51300FDF6E11
:103E8000824B832B7107D8A0720779C028F07AC0C3
:103E900029F07BC02AF07CC02BF07DC013F07EC0DF
:103EA00014F07FC015F080C016F088C00FF089C0F4
:103EB00010F08AC011F08BC012F066EC22F00FC037
:103EC0002CF010C02DF011C02EF012C02FF058ECC5
:103ED0002FF028C079F029C07AF02AC07BF02BC0DF
:103EE0007CF088C001F089C002F08AC003F08BC06A
:103EF00004F0000E056E000E066E200E076E410ED9
:103F0000086E8BEC24F001C088F002C089F003C079
:103F10008AF004C08BF000016007D8A06107774BDE
:103F2000782B6D51775D7851800A3A6E6E51800A18
:103F30003A58D8B09EEF1FF0A0EF1FF0AEEF1FF081
:103F400083BFACEF1FF0835109E14B0E825DD8A017
:103F5000ACEF1FF0AEEF1FF0ACEF1EF0000E786F6D
:103F60004F0E776F000E7725D96E010E7821DA6E2D
:103F7000DF6A000E3A6E010E3B6E82513A5E83514B
:103F80003B5A77513A24016E78513B20026E000E65
:103F9000036E010E046E82C005F083C006F0B8EC1B
:103FA0002EF000018251775D826F83517859836FC3
:103FB0008151D8A4DEEF1FF0E1EF1FF0010EE2EF18
:103FC0001FF0000E776F786B8151D8B4EAEF1FF0C5
:103FD000ECEF1FF0F8EF1FF08207D8A08307000E68
:103FE0008225D96E010E8321DA6E600007F2DFFFB1
:103FF0007751715F7851725B34C00FF0000E8225EB
:10400000106E010E8321116E71C012F072C013F098
:1040100099EC2DF012000450800B0D6E0450042416
:104020000F6E03AE16EF20F018EF20F019EF20F01E
:104030000F800F50D8B41FEF20F021EF20F035EFA4
:1040400020F00F28D8A427EF20F029EF20F031EF3F
:1040500020F0000E016E000E026E000E036E000EC8
:10406000046E038E046A3DEF20F0000E016E000E18
:10407000026E000E036E000E046E0850800B0E6E72
:104080000D500E18D8B447EF20F049EF20F04AEF5A
:1040900020F00D8C085008240E6E07AE52EF20F071
:1040A00054EF20F055EF20F00E800E50D8B45BEFA7
:1040B00020F05DEF20F071EF20F00E28D8A463EF20
:1040C00020F065EF20F06DEF20F0000E056E000E81
:1040D000066E000E076E000E086E078E086A79EFF6
:1040E00020F0000E056E000E066E000E076E000E2C
:1040F000086E0F500E5CD8B080EF20F082EF20F0F9
:10410000A9EF20F00DAC87EF20F089EF20F08BEFC6
:1041100020F0800E0D1A0FC010F00EC00FF010C06E
:104120000EF001C010F005C001F010C005F002C093
:1041300010F006C002F010C006F003C010F007C077
:1041400003F010C007F004C010F008C004F010C065
:1041500008F0106A0F500EC009F00A6A095E000EDE
:104160000A5A0ABEBDEF20F00A5009E11A0E095C96
:10417000D8A0BDEF20F0BFEF20F0F6EF20F0015007
:10418000021003100410D8A4C8EF20F0CBEF20F0E9
:10419000010ECCEF20F0000E106E000E016E000E2E
:1041A000026E000E036E000E046E0EC00FF0FFEFE5
:1041B00020F010A0DEEF20F0E0EF20F0E6EF20F09E
:1041C000D89010300109106EE8EF20F0D89010322E
:1041D00001A0EDEF20F0EFEF20F0F0EF20F0108ED7
:1041E000043404320332023201320F2A0E500F5CC3
:1041F000D8A0FDEF20F0FFEF20F0D9EF20F00DBCAC
:1042000004EF21F006EF21F046EF21F00F50D8A483
:104210000CEF21F00EEF21F018EF21F0000E016EEF
:10422000000E026E000E036E000E046E65EF22F0AB
:10423000055001260650022207500322085004228E
:1042400004A025EF21F027EF21F0D3EF21F010A0FB
:104250002CEF21F02EEF21F034EF21F0D890103028
:104260000109106E36EF21F0D890103201A03BEF1B
:1042700021F03DEF21F03EEF21F0108E04340432A6
:104280000332023201320F2AD3EF21F00550015CD4
:1042900006500258075003580450800A096E08500F
:1042A000800A0958D8B057EF21F059EF21F084EF78
:1042B00021F00150055C096E025006580A6E035049
:1042C00007580B6E045008580C6EFF0E0924016E3F
:1042D000FF0E0A20026EFF0E0B20036EFF0E0C2055
:1042E000046E800E0D1A106C1050D8A47AEF21F0D5
:1042F0007CEF21F08CEF21F0010E0126000E02224E
:10430000032204228CEF21F00550015E0650025A70
:104310000750035A0850045A0150021003100410A9
:10432000D8A495EF21F097EF21F0CCEF21F01050B9
:10433000D8A49DEF21F09FEF21F0CCEF21F0000EEB
:10434000016E000E026E000E036E000E046E65EF2D
:1043500022F0D890013602360336043610AEB3EFA1
:1043600021F0B5EF21F0B6EF21F0018010A0BBEFF6
:1043700021F0BDEF21F0C1EF21F0D8801036C3EF5E
:1043800021F0D89010360F50D8B4C9EF21F0CBEF00
:1043900021F0CCEF21F00F0603AED1EF21F0D3EFE7
:1043A00021F0A9EF21F00E6A10AED9EF21F0DBEF7A
:1043B00021F0F3EF21F010C009F07F0E0916D8B4F8
:1043C000E4EF21F0E6EF21F0EAEF21F0010E0E6EAE
:1043D000F3EF21F001A0EFEF21F0F1EF21F0F3EF87
:1043E00021F0E6EF21F00E50D8B4F9EF21F0FBEF09
:1043F00021F026EF22F0010E0126000E02220322F8
:10440000042204A006EF22F008EF22F026EF22F0AB
:1044100001C009F002C00AF003C00BF004C00CF0A8
:104420000C340C320B320A32093209C001F00AC0D6
:1044300002F00BC003F00CC004F00F28D8B423EF37
:1044400022F025EF22F026EF22F00F2A0F28D8B411
:104450002CEF22F02EEF22F036EF22F00F50D8A4EE
:1044600034EF22F036EF22F047EF22F0000E016E1B
:10447000000E026E000E036E000E046E0F50D8A4E4
:1044800044EF22F046EF22F047EF22F00D6A0FA032
:104490004CEF22F04EEF22F051EF22F0038E52EF5C
:1044A00022F0039ED8900F30046E0DAE5AEF22F02A
:1044B0005CEF22F05DEF22F0048E01C001F002C03B
:1044C00002F003C003F004C004F012001250800B8D
:1044D0001B6E12501224216E11AE71EF22F073EF99
:1044E00022F074EF22F021802150D8B47AEF22F02C
:1044F0007CEF22F08FEF22F02128D8A482EF22F067
:1045000084EF22F08CEF22F0000E0F6E000E106E82
:10451000000E116E000E126E118E97EF22F0000E3B
:104520000F6E000E106E000E116E000E126E165001
:10453000800B1B1A16501624206E15AEA2EF22F027
:10454000A4EF22F0A5EF22F020802050D8B4ABEFEA
:1045500022F0ADEF22F0C0EF22F02028D8A4B3EF74
:1045600022F0B5EF22F0BDEF22F0000E136E000E28
:10457000146E000E156E000E166E158EC8EF22F02A
:10458000000E136E000E146E000E156E000E166EE9
:104590002050D8B4CEEF22F0D0EF22F0D8EF22F0A6
:1045A0002150D8A4D6EF22F0D8EF22F0E2EF22F08B
:1045B000000E0F6E000E106E000E116E000E126EC9
:1045C0008AEF24F015500F026F00CCFF26F06F0029
:1045D000D0FF27F026501C6E1D6A1E6A1F6A2750E6
:1045E000226E236A246A256A145010026F00CCFFE1
:1045F00026F06F00D0FF27F026501C26000E1D224B
:104600001E221F2227502226000E2322242225228A
:10461000135011026F00CCFF26F06F00D0FF27F07F
:1046200026501C26000E1D221E221F222750222645
:10463000000E2322242225221EC01FF01DC01EF0C2
:104640001CC01DF01C6A135010026F00CCFF26F036
:104650006F00D0FF27F026501C2627501D22000E89
:104660001E22000E1F2214500F026F00CCFF26F0F6
:104670006F00D0FF27F026501C2627501D22000E69
:104680001E22000E1F221EC01FF01DC01EF01CC0E7
:104690001DF01C6A13500F026F00CCFF26F06F0054
:1046A000D0FF27F026501C2627501D22000E1E2268
:1046B000000E1F22155010026F00CCFF26F06F0075
:1046C000D0FF27F02650222627502322000E242236
:1046D000000E2522145011026F00CCFF26F06F004F
:1046E000D0FF27F02650222627502322000E242216
:1046F000000E2522155011026F00CCFF26F06F002E
:10470000D0FF27F02650176E2750186E196A1A6AC4
:1047100019C01AF018C019F017C018F0176A17500E
:10472000222618502322195024221A5025221CC058
:1047300017F01DC018F01EC019F01FC01AF0190E96
:10474000A7EF23F0D8901A32193218321732E82E18
:10475000A2EF23F0175022261850232219502422AA
:104760001A5025221EC01FF01DC01EF01CC01DF0D7
:104770001C6A205021C017F0186A1726000E182254
:10478000820E1724266EFF0E1820276EDDEF23F011
:10479000D89022362336243625361FAED2EF23F0AA
:1047A000D4EF23F0D5EF23F02280D8901C361D36AD
:1047B0001E361F362606D8A0270624AEE2EF23F0C9
:1047C000E4EF23F0C8EF23F0206A1FAEEAEF23F0F6
:1047D000ECEF23F010EF24F0FF0E1C14176EFF0E09
:1047E0001D14186EFF0E1E14196E7F0E1F141A6E04
:1047F0001750181019101A10D8B401EF24F003EF55
:1048000024F007EF24F0010E206E10EF24F022A018
:104810000CEF24F00EEF24F010EF24F003EF24F05F
:104820002050D8B416EF24F018EF24F03CEF24F019
:10483000010E2226000E23222422252225A023EF6A
:1048400024F025EF24F03CEF24F022C017F023C021
:1048500018F024C019F025C01AF01A341A3219328F
:104860001832173217C022F018C023F019C024F0F4
:104870001AC025F0264A272A27BE47EF24F02750E2
:1048800008E12628D8A047EF24F049EF24F053EFA1
:1048900024F0000E226E000E236E800E246E7F0E1A
:1048A000256E80EF24F027BE60EF24F0275006E14C
:1048B0002604D8B05EEF24F060EF24F06BEF24F014
:1048C000000E226E000E236E000E246E000E256E6A
:1048D0001B6A80EF24F026C021F0FF0E2216FF0E87
:1048E00023167F0E2416000E251621A07AEF24F041
:1048F0007CEF24F07DEF24F0248ED8902130256EBB
:104900001B50251222C00FF023C010F024C011F05C
:1049100025C012F012000450800B116E04500424C4
:10492000186E03AE96EF24F098EF24F099EF24F080
:1049300018801850D8B49FEF24F0A1EF24F0B5EF01
:1049400024F01828D8A4A7EF24F0A9EF24F0B1EFA1
:1049500024F0000E016E000E026E000E036E000EBB
:10496000046E038E046ABDEF24F0000E016E000E8B
:10497000026E000E036E000E046E0850800B111ABA
:1049800008500824196E07AEC8EF24F0CAEF24F0CF
:10499000CBEF24F019801950D8B4D1EF24F0D3EF25
:1049A00024F0E7EF24F01928D8A4D9EF24F0DBEFA6
:1049B00024F0E3EF24F0000E056E000E066E000EEC
:1049C000076E000E086E078E086AEFEF24F0000EE7
:1049D000056E000E066E000E076E000E086E055086
:1049E000061007100810D8A4F8EF24F0FAEF24F00E
:1049F00012EF25F0000E016E000E026E000E036E27
:104A0000000E046E800E03127F0E04121150041269
:104A100001C001F002C002F003C003F004C004F0C2
:104A200052EF26F01850D8A418EF25F01AEF25F011
:104A300024EF25F0000E016E000E026E000E036ED4
:104A4000000E046E52EF26F0195018C009F00A6AE1
:104A5000095E000E0A5A7F0E0924126E000E0A200B
:104A6000136E01C00DF002C00EF003C00FF004C0C1
:104A700010F0000E016E000E026E000E036E000EAE
:104A8000046E000E146E000E156E000E166E000EF3
:104A9000176E196A84EF25F01950D8B452EF25F03B
:104AA00054EF25F06BEF25F0D8900D360E360F360B
:104AB0001036D890013602360336043617AE63EF4F
:104AC00025F065EF25F066EF25F00180D8901436CB
:104AD00015361636173605500D5C06500E58075021
:104AE0000F5808501058D8A078EF25F07AEF25F02D
:104AF00083EF25F0178C05500D5E06500E5A0750B7
:104B00000F5A0850105A192A190E19648AEF25F005
:104B10008CEF25F04CEF25F00D500E100F101010FB
:104B2000D8B495EF25F097EF25F0AFEF25F014807E
:104B3000AFEF25F0D890013602360336043617AEB3
:104B4000A4EF25F0A6EF25F0A7EF25F00180D8907F
:104B500014361536163617361206D8A0130603AECD
:104B6000B4EF25F0B6EF25F09AEF25F0196A17AEED
:104B7000BCEF25F0BEEF25F0E2EF25F0FF0E141498
:104B8000096EFF0E15140A6EFF0E16140B6E7F0EC3
:104B900017140C6E09500A100B100C10D8B4D3EF78
:104BA00025F0D5EF25F0D9EF25F0010E196EE2EFD3
:104BB00025F001A0DEEF25F0E0EF25F0E2EF25F093
:104BC000D5EF25F01950D8B4E8EF25F0EAEF25F03D
:104BD0000EEF26F0010E0126000E0222032204220F
:104BE00004A0F5EF25F0F7EF25F00EEF26F001C059
:104BF00009F002C00AF003C00BF004C00CF00C3442
:104C00000C320B320A32093209C001F00AC002F03C
:104C10000BC003F00CC004F0124A132A13BE19EFA4
:104C200026F0135008E11228D8A019EF26F01BEF48
:104C300026F026EF26F0000E136E1268000E016EAD
:104C4000000E026E000E036E000E046E13BE33EFF4
:104C500026F0135006E11204D8B031EF26F033EFFE
:104C600026F040EF26F0000E136E000E126E000EBE
:104C7000016E000E026E000E036E000E046E116ACD
:104C800012C018F018A047EF26F049EF26F04CEFBD
:104C900026F0038E4DEF26F0039ED8901830046E58
:104CA00006EF25F012003D50D96EDA6A6F007FFFE3
:104CB000F6FF200EF76E000EF86E0800F550250A7C
:104CC000D8A465EF26F067EF26F0A1EF27F03D505E
:104CD000D96EDA6ADF2A000E0001A56F000EA46FFC
:104CE000A4C05EF0A669A7693DC001F03EC002F015
:104CF0003BEC2CF001C0A4F002C0A5F00001A5BF60
:104D000086EF26F084EF26F08BEF26F05E80A46D10
:104D1000A51FD8B0A52B3D50D96EDA6A6F007FFF72
:104D2000F6FF200EF76E000EF86E0800F5502E0A02
:104D3000D8A49DEF26F09FEF26F0ADEF26F03D5072
:104D4000D96EDA6ADF2A3DC001F03EC002F03BECCA
:104D50002CF001C0A6F002C0A7F03D50D96EDA6A6F
:104D6000DF50456E600017F1F6FF200EF76E000E63
:104D7000F86E0800F550640AD8B4C1EF26F0C3EF0E
:104D800026F0D4EF26F0600017F1F6FF200EF76E44
:104D9000000EF86E0800F550690AD8A4D2EF26F08C
:104DA000D4EF26F0F1EF26F03E50D96EDA6A020E0B
:104DB000DF26DF5CD96EDA6A6F0078FF40F06F00A3
:104DC00078FF41F03D50D96EDA6A4528DF6E3CC06D
:104DD0001DF040C01EF041C01FF099EC29F0B5EF66
:104DE00027F03D50D96EDA6ADF50456E600017F14A
:104DF000F6FF200EF76E000EF86E08006F00D4FF6D
:104E000044F00DEF27F0452A1CEF27F06C0E446E9E
:104E10001CEF27F0446A1CEF27F044504C0AD8B42A
:104E200003EF27F02A0AD8B406EF27F00A0AD8B40D
:104E300003EF27F00AEF27F0600017F1F6FF200ECE
:104E4000F76E000EF86E0800F550660AD8A42BEF36
:104E500027F02DEF27F09BEF27F061EF27F03E5072
:104E6000D96EDA6A6F007CFF3FF0040EDF263F50F8
:104E7000D96EDA6A6F0078FF40F06F0078FF41F07A
:104E80006F0078FF42F06F0078FF43F06CEF27F07F
:104E90003E50D96EDA6A6F007CFF3FF0040EDF26C9
:104EA0003F50D96EDA6A6F0078FF40F06F0078FFEC
:104EB00041F06F0078FF42F06F0078FF43F06CEF35
:104EC00027F044504C0AD8B448EF27F0200AD8B451
:104ED0002FEF27F06CEF27F03D50D96EDA6A4528A6
:104EE000DF6E8CEF27F03CC034F040C035F041C09D
:104EF00036F042C037F043C038F0600017F1F6FFDB
:104F0000200EF76E000EF86E08006F00D4FF39F027
:104F100018EC1BF0B5EF27F0600017F1F6FF200E3C
:104F2000F76E000EF86E0800F550660AD8B473EFFD
:104F300027F09BEF27F03D50D96EDA6ADF2AB5EFF4
:104F400027F03D50D96EDA6A6F007FFFF6FF200E22
:104F5000F76E000EF86E0800F550016E026A3CC054
:104F600003F0EEEC2CF09BEF27F0120094C02AF037
:104F700095C02BF096C02CF097C02DF01AC02AF0E7
:104F80001BC02BF01CC02CF01DC02DF0810E1E6E1E
:104F9000FF0E1F6E2AC020F02BC021F02CC022F083
:104FA0002DC023F0180EDAEF27F0D89023322232EA
:104FB00021322032E82ED5EF27F020501E24286E13
:104FC000000E1F20296E29BEEFEF27F0295009E1BE
:104FD000170E285CD8A0EFEF27F0F1EF27F0FBEFDA
:104FE00027F01AC01AF01BC01BF01CC01CF01DC01B
:104FF0001DF0BEEF28F029BE00EF28F002EF28F0E8
:1050000072EF28F028C01EF0FF0E1F6EFF0E206EFC
:105010007F0E216E000E226E1E6611EF28F019EF32
:1050200028F022342232213220321F321E2E0CEF81
:1050300028F01FC024F020C025F021C026F022C097
:1050400027F024502A141E6E25502B141F6E265054
:105050002C14206E27502D14216E1E501F1020106E
:105060002110D8A436EF28F038EF28F03AEF28F0D6
:10507000F1EF27F02AC01EF02BC01FF02CC020F04B
:105080002DC021F0200E4AEF28F0D8902132203296
:105090001F321E32E82E45EF28F01E501F10201040
:1050A0002110D8B456EF28F058EF28F060EF28F020
:1050B00024502A2625502B2226502C2227502D22E0
:1050C000241C1E6E251C1F6E261C206E271C216EA4
:1050D0001E502A161F502B1620502C1621502D160C
:1050E000B6EF28F02AC01EF02BC01FF02CC020F015
:1050F0002DC021F0200E82EF28F0D89021322032EE
:105100001F321E32E82E7DEF28F01E501F10201097
:105110002110D8A48EEF28F090EF28F09AEF28F015
:10512000000E2A6E000E2B6E000E2C6E000E2D6EE1
:10513000B6EF28F0D8902A341E6E2B341F6E2C3414
:10514000206E2D34216E1E501F1020102110D8B457
:10515000ACEF28F0AEEF28F0B6EF28F0000E2A6E84
:10516000000E2B6E800E2C6EBF0E2D6E2AC01AF014
:105170002BC01BF02CC01CF02DC01DF01200096EBE
:105180000950D8B4C6EF28F0C8EF28F0EAEF28F0AD
:1051900004BECFEF28F0CDEF28F0EAEF28F001C0F1
:1051A00005F002C006F003C007F004C008F0051EB9
:1051B000061E071E081E052A000E062207220822C8
:1051C00005C00BF006C00CF007C00DF008C00EF0D3
:1051D000F2EF28F001C00BF002C00CF003C00DF09C
:1051E00004C00EF00150021003100410D8A4FBEF0D
:1051F00028F0FDEF28F007EF29F0000E016E000EF9
:10520000026E000E036E000E046E98EF29F0960EEB
:105210000A6E11EF29F00A2AD8900E320D320C32A4
:105220000B32000E0B14056E000E0C14066E000EF1
:105230000D14076EFE0E0E14086E055006100710B2
:105240000810D8A426EF29F028EF29F00BEF29F059
:1052500036EF29F00A2A010E0B26000E0C220D2231
:105260000E22D8900E320D320C320B32000E0B147F
:10527000056E000E0C14066E000E0D14076EFF0E68
:105280000E14086E0550061007100810D8A44BEF36
:1052900029F04DEF29F02AEF29F055EF29F00A0601
:1052A000D8900B360C360D360E360DBE5AEF29F05F
:1052B0005CEF29F064EF29F0020E0A6062EF29F03A
:1052C00064EF29F04FEF29F00AB069EF29F06BEF96
:1052D00029F06CEF29F00D9ED8900A320AC005F033
:1052E000066A076A086A05C008F0076A066A056A5E
:1052F00005500B1206500C1207500D1208500E12DA
:105300000950D8B486EF29F088EF29F090EF29F002
:1053100004BE8FEF29F08DEF29F090EF29F00E8E6B
:105320000BC001F00CC002F00DC003F00EC004F081
:1053300012001FBE9EEF29F0A1EF29F0010EA2EF8F
:1053400029F0000E266E0001A7BFABEF29F0A9EFF0
:1053500029F0B1EF29F0000E256E010E246EB5EF95
:1053600029F0A6C024F0A7C025F0A4C022F0A5C053
:1053700023F02650D8B4BFEF29F0C1EF29F0D8EFC1
:1053800029F02206D8A023062650D8A4CAEF29F077
:10539000CCEF29F0D2EF29F0000E216E2B0E206EFB
:1053A000D6EF29F0000E216E2D0E206E20C026F0C3
:1053B000000E286E4F0E276E01014F6B10EF2AF082
:1053C0002706D8A02806000E2724D96E010E282013
:1053D000DA6E1EC013F01FC014F0000E166E0A0E17
:1053E000156E97EC2CF013C019F014C01AF02FECC6
:1053F00030F01950300FDF6E2406D8A025062206A3
:10540000D8A023061EC001F01FC002F0000E046EDB
:105410000A0E036EDAEC2BF001C01EF002C01FF082
:1054200028BE1BEF2AF0285008E12704D8A01BEF64
:105430002AF01DEF2AF033EF2AF01E501F10D8A4D7
:1054400024EF2AF026EF2AF0E0EF29F025BE33EF13
:105450002AF0255006E12404D8B031EF2AF033EFCA
:105460002AF0E0EF29F02650D8B439EF2AF03BEFCC
:105470002AF047EF2AF02706D8A02806000E272496
:10548000D96E010E2820DA6E60009BF0DFFF1DC090
:105490000FF0000E2724106E010E2820116E22C07E
:1054A00012F023C013F099EC2DF0120003340434F1
:1054B0000A6E0A50D8A45FEF2AF061EF2AF06BEF72
:1054C0002AF0000E016E000E026E000E036E000E3A
:1054D000046ED8EF2AF001C005F002C006F003C048
:1054E00007F004C008F0200E7BEF2AF0D8900832B5
:1054F000073206320532E82E76EF2AF00550096EA3
:10550000038EFF0E0116FF0E0216FF0E0316000E8D
:105510000416960E0A5E0ABE92EF2AF090EF2AF069
:10552000A8EF2AF00A50800A970FD8B09AEF2AF015
:105530009CEF2AF09EEF2AF061EF2AF0D890043217
:105540000332023201320A3E9EEF2AF0C0EF2AF007
:105550001F0E0A64AEEF2AF0B0EF2AF0B8EF2AF07F
:1055600061EF2AF0D89001360236033604360A0677
:105570000A50D8A4BEEF2AF0C0EF2AF0B2EF2AF00A
:105580000950D8B4C6EF2AF0C8EF2AF0D0EF2AF0BD
:10559000041E031E021E016C000E022203220422BE
:1055A00001C001F002C002F003C003F004C004F027
:1055B0001200000E2814306E000E2914316E800E79
:1055C0002A14326E7F0E2B14336E3050311032108D
:1055D0003310D8A4EEEF2AF0F0EF2AF0F8EF2AF01B
:1055E000000E286E000E296E000E2A6E000E2B6E25
:1055F000000E2C14306E000E2D14316E800E2E1401
:10560000326E7F0E2F14336E305031103210331043
:10561000D8A40DEF2BF00FEF2BF017EF2BF0000EAF
:105620002C6E000E2D6E000E2E6E000E2F6E2BAE09
:105630001CEF2BF01EEF2BF027EF2BF0286C291E10
:10564000D8B0292A2A1ED8B02A2A800E2B562FAE6F
:105650002CEF2BF02EEF2BF037EF2BF02C6C2D1EB8
:10566000D8B02D2A2E1ED8B02E2A800E2F56000E0E
:10567000281A000E291A000E2A1A800E2B1A000E64
:105680002C1A000E2D1A000E2E1A800E2F1A2C50D6
:10569000285C2D5029582E502A582F502B58D8B0FE
:1056A00054EF2BF056EF2BF059EF2BF0D8905AEF28
:1056B0002BF0D880120098C00BF099C00CF09AC063
:1056C0000DF09BC00EF001C00BF002C00CF003C047
:1056D0000DF004C00EF00BC005F00CC006F00DC0BC
:1056E00007F00EC008F0180E7BEF2BF0D8900832B0
:1056F000073206320532E82E76EF2BF00550096EA0
:105700000A6A09500A10D8A488EF2BF08AEF2BF010
:10571000AAEF2BF0D8900B34056E0C34066E0D34C6
:10572000076E0E34086E0550061007100810D8A436
:105730009CEF2BF09EEF2BF0A4EF2BF0000E026EEF
:10574000020E016ED9EF2BF0000E026E030E016EF9
:10575000D9EF2BF009280A10D8A4B1EF2BF0B3EF42
:105760002BF0D5EF2BF00BC005F00CC006F00DC0F0
:1057700007F00EC008F0090ED89005360636073639
:105780000836E82EBCEF2BF0055006100710081065
:10579000D8B4CDEF2BF0D0EF2BF0010ED1EF2BF0E2
:1057A000000E016E026AD9EF2BF0000E026E040E9D
:1057B000016E1200066A04BEE2EF2BF0E0EF2BF060
:1057C000E8EF2BF0036C041ED8B0042A010E066E1D
:1057D00002BEEFEF2BF0EDEF2BF0F5EF2BF0016CAD
:1057E000021ED8B0022A010E061A000E086E000E24
:1057F000076E03500410D8B400EF2CF002EF2CF029
:105800002AEF2CF0010E056E0AEF2CF0D89003362B
:105810000436052A04AE0FEF2CF011EF2CF006EF42
:105820002CF0D890073608360350015C045002581B
:10583000D8A01DEF2CF01FEF2CF024EF2CF003501C
:10584000015E0450025A0780D89004320332052EBC
:1058500011EF2CF00650D8B430EF2CF032EF2CF0D2
:1058600036EF2CF0076C081ED8B0082A07C001F0EC
:1058700008C002F01200000E076E000E066E015006
:10588000D96EDA6A6F007FFFF6FF200EF76E000E0A
:10589000F86E0800F5502A0AD8A451EF2CF053EF07
:1058A0002CF07CEF2CF00150D96EDA6ADF2A02501E
:1058B000D96EDA6A020EDF26DF5CD96EDA6A6F0013
:1058C00078FF06F06F0078FF07F092EF2CF00A0ED9
:1058D00006026F00CCFF03F06F00D0FF04F0070258
:1058E000F350042605500324066E000E0420076EB4
:1058F0000150D96EDA6ADF2A0150D96EDA6A6F0078
:105900007FFFF6FF200EF76E000EF86E0800F550D0
:10591000D00F056E090E056490EF2CF092EF2CF07D
:1059200067EF2CF006C001F007C002F01200186A01
:1059300014BE9FEF2CF09DEF2CF0A5EF2CF0136C14
:10594000141ED8B0142A010E186E16BEACEF2CF03F
:10595000AAEF2CF0B0EF2CF0156C161ED8B0162A5A
:1059600015501610D8B4B7EF2CF0B9EF2CF0DDEFCE
:105970002CF0010E176EC1EF2CF0D89015361636AC
:10598000172A16AEC6EF2CF0C8EF2CF0BDEF2CF0A6
:105990001550135C16501458D8A0D1EF2CF0D3EF4B
:1059A0002CF0D7EF2CF01550135E1650145AD890E7
:1059B00016321532172EC8EF2CF01850D8B4E3EF7A
:1059C0002CF0E5EF2CF0E9EF2CF0136C141ED8B09E
:1059D000142A13C013F014C014F012000350D8B4EA
:1059E000F4EF2CF0F6EF2CF0FEEF2CF00350D8A4DF
:1059F000FCEF2CF0FEEF2CF003EF2DF0015094ECB7
:105A000030F043EF2DF00350D96EDA6A090ED92633
:105A1000DE50DE10D8B40FEF2DF011EF2DF02AEF8D
:105A20002DF00350D96EDA6A090ED9260350E16EC3
:105A3000E26A020EE126DE50E65CE650800A086E5D
:105A4000DE50800A0858D8B028EF2DF02AEF2DF04C
:105A500043EF2DF00350D96EDA6A020ED926DF50DB
:105A6000046E0350D96EDA6ADF500424D96EDA6A04
:105A7000600007F0DFFF0350D96EDA6A020ED92604
:105A8000DE2A000EDD221200000E0F14176E000E2B
:105A90001014186E800E1114196E7F0E12141A6EE7
:105AA0001750181019101A10D8A459EF2DF05BEFE9
:105AB0002DF063EF2DF0000E0F6E000E106E000E35
:105AC000116E000E126E000E1314176E000E1414D9
:105AD000186E800E1514196E7F0E16141A6E17505C
:105AE000181019101A10D8A478EF2DF07AEF2DF0B5
:105AF00082EF2DF0000E136E000E146E000E156E68
:105B0000000E166E13500F180FE1145010180CE110
:105B10001550111809E116501218D8B492EF2DF053
:105B200094EF2DF097EF2DF0D89098EF2DF0D880CE
:105B300012005EA09EEF2DF0A0EF2DF0A8EF2DF04B
:105B400010C009F011C00AF00FC00BF09DEC2FF04F
:105B500013BEAFEF2DF0ADEF2DF0B3EF2DF0000E33
:105B6000136E000E126E000E166E000E156EC3EF51
:105B70002DF0000E026E200E016E0FC003F0EEEC51
:105B80002CF0154A162A1250155C1650800A146E15
:105B90001350800A1458D8A0D0EF2DF0D2EF2DF07A
:105BA000B9EF2DF05EB0D7EF2DF0D9EF2DF0E1EF8A
:105BB0002DF010C009F011C00AF00FC00BF09DECE1
:105BC0002FF01200FDEF2DF0600023F0F6FF6000D3
:105BD00027F0F7FF000EF86E1F0EF76403D00800E1
:105BE000F55007D06F00DBFFE1FF6F00DFFFE2FF42
:105BF000E75072EC30F0084A092A600023F0F6FF03
:105C0000600027F0F7FF000EF86E1F0EF76403D058
:105C10000800F55007D06F00DBFFE1FF6F00DFFFEA
:105C2000E2FFE7500009D8A418EF2EF01AEF2EF08B
:105C3000E4EF2DF01200B6C001F0B7C002F0B8C01A
:105C400003F0B9C004F02D0E056E7F0E066E950EA2
:105C5000076E4C0E086E52EC2EF0010E012400016E
:105C6000B66F000E0220B76F000E0320B86F000E53
:105C70000420B96FB6C00FF0B7C010F0B8C011F073
:105C8000B9C012F0120E4AEF2EF0D8901232113233
:105C900010320F32E82E45EF2EF00FC00DF010C07D
:105CA0000EF01200000E096E000E0A6E000E0B6E52
:105CB000000E0C6E01A05FEF2EF061EF2EF069EF89
:105CC0002EF00550092606500A2207500B220850D4
:105CD0000C22D8900536063607360836D89004329E
:105CE0000332023201320150021003100410D8A412
:105CF0007CEF2EF07EEF2EF05AEF2EF009C001F06F
:105D00000AC002F00BC003F00CC004F01200000E39
:105D1000046E000E036E8FEF2EF0034A042A01502A
:105D20000324D96EDA6ADF50D8A499EF2EF09BEFE6
:105D30002EF08DEF2EF0A0EF2EF0034A042A022A57
:105D400060000BF0F6FF200EF76E000EF86E0150AB
:105D50000324D96EDA6A08006F00D7FFDFFFDF5037
:105D6000D8A4B5EF2EF0B7EF2EF09DEF2EF0120075
:105D700003C009F004C00AF001C007F002C008F037
:105D8000D7EF2EF0600027F0D9FF60002BF0DAFF8C
:105D9000DF500B6E094A0A2A60001FF0D9FF60002D
:105DA00023F0DAFF60002FF0DFFF074A082A05061C
:105DB000D8A00606052806E10628D8A4E2EF2EF0B2
:105DC000E4EF2EF0C2EF2EF0120004BEEAEF2EF048
:105DD000ECEF2EF0F6EF2EF001C001F002C002F061
:105DE00003C003F004C004F00FEF2FF001C005F072
:105DF00002C006F003C007F004C008F0051E061E2E
:105E0000071E081E052A000E06220722082205C0CA
:105E100001F006C002F007C003F008C004F0120051
:105E2000000E046E000E036E29EF2FF0000E066EBA
:105E3000000E056E054A062A065009E1A50E055C0E
:105E4000D8A025EF2FF027EF2FF01AEF2FF0034AFD
:105E5000042A0150035C02500458D8A032EF2FF0FE
:105E600034EF2FF016EF2FF0120001C005F002C042
:105E700006F0032A0304046E600013F0F6FF200E00
:105E8000F76E000EF86E600017F0D9FF60001BF08F
:105E9000DAFF054A062A08006F00D7FFDFFFDF5050
:105EA000D8A455EF2FF057EF2FF039EF2FF0120055
:105EB000000E2C1A000E2D1A000E2E1A800E2F1A0C
:105EC00028C001F029C002F02AC003F02BC004F062
:105ED0002CC005F02DC006F02EC007F02FC008F032
:105EE0000BEC20F001C028F002C029F003C02AF01A
:105EF00004C02BF0120047C049F087EF2FF046C0D6
:105F00003CF0490E3D6E48C03EF053EC26F0600078
:105F100027F1F6FF200EF76E000EF86E0800F55020
:105F20000009D8A496EF2FF098EF2FF07FEF2FF015
:105F3000000E476E000E466E1200000E0E6E000E32
:105F40000D6EACEF2FF00CC001F0026A0BC003F035
:105F5000EEEC2CF00D4A0E2A0D500924D96E0E508D
:105F60000A20DA6EDF500C6E0C50D8A4BAEF2FF076
:105F7000BCEF2FF0A3EF2FF012000D6E020E0D609C
:105F8000C4EF2FF0C6EF2FF0CFEF2FF00A500F0B1A
:105F900080090E6E0E5081EC30F0D6EF2FF00A50D3
:105FA0000F0BC0090E6E0E5081EC30F00BC008F0E4
:105FB0000CC009F0E2EC2DF01200015002100310A9
:105FC0000410D8B4E6EF2FF0E8EF2FF0F0EF2FF049
:105FD000000E011A000E021A000E031A800E041A97
:105FE00001C001F002C002F003C003F004C004F0DD
:105FF00012008E0E4A6E8CC04BF0000E4E6E000EDC
:106000004D6E000E556E000E546E4B0E466E8DC0DA
:1060100047F04A0E486E7BEC2FF000018C514D2466
:10602000D96EDA6ADF6A1200000E026E0F0E016E80
:1060300010EC2FF0C36AC00EC56EC6683A01706BD3
:10604000506B806B010E81EC30F0380E81EC30F03B
:106050000C0E81EC30F0060E81EC30F012001ABE0E
:1060600034EF30F036EF30F03CEF30F019C019F07B
:106070001AC01AF048EF30F019C01BF01AC01CF01B
:106080001B1E1C1E1B4A1C2A1BC019F01CC01AF028
:10609000120000EE00F1500EEE6AE806FDE100EE9F
:1060A00094F0260EEE6AE806FDE100EE56F0090EC9
:1060B000EE6AE806FDE1000160EF10F03E01F851E4
:1060C000F30B0409F86FF889C2803A0140813E0160
:1060D000F16BFF6BF06BEF6BF66BF76BF36BF46BC5
:1060E000F88F1200076E60001FF0BBFFBD88BD8AED
:1060F0000000BD9A000E026E010E016E10EC2FF032
:106100001200076E60001FF0BBFFBD98BD8A000043
:10611000BD9A000E026E030E016E10EC2FF01200FD
:0A612000010E81EC30F012001200B5
:020000040001F9
:04FFFC0049EF30F0A9
:020000040030CA
:0A000000F8FFFFFF9FFFFFFFFFFF67
:00000001FF
