:04000000FEEFFFF020
:1020000000446966666963756C7479204C65766511
:102010006C3A004E65787420537461676520696E70
:1020200020313A004E6578742053746167652069E9
:102030006E20333A004E65787420537461676520D2
:10204000696E2032005374617274696E6720696E24
:1020500020313A005374617274696E6720696E2092
:10206000323A005374617274696E6720696E20336E
:102070003A00594F55204C4F5345203A28200046EE
:10208000696E616C2053636F72653A00456E7465CA
:10209000722047756573733A00594F552057494E62
:1020A00021210025312E306400302E303000252EC5
:1020B000326600696E66006E616E00302F3300007C
:1020C00051EC3AF09BEC3AF0000E5D6E000E5C6E47
:1020D000000E566E000E576E000E586E000E596EB2
:1020E0003E01F881F8B177EF10F079EF10F072EF60
:1020F00010F0EF516F00C0FB92F00001936B92C0A3
:1021000093F0926B9211A86F9351A96FA8C001F040
:10211000A9C002F0000E02BEFF0E036E046E010E97
:10212000FCEC32F001C00FF002C010F003C011F05F
:1021300004C012F0330E136E330E146E530E156E70
:102140003A0E166EA3EC2CF00FC0A0F010C0A1F058
:1021500011C0A2F012C0A3F0A0C028F0A1C029F0C5
:10216000A2C02AF0A3C02BF0000E2C6E000E2D6E24
:10217000800E2E6E3F0E2F6E16EC35F0D8B0C3EFEA
:1021800010F0C5EF10F0CEEF10F0000E00019C6FC4
:10219000000E9D6F800E9E6F3F0E9F6F000E286E8B
:1021A000000E296E800E2A6E3F0E2B6EA0C02CF002
:1021B000A1C02DF0A2C02EF0A3C02FF016EC35F078
:1021C000D8B0E5EF10F0E7EF10F0F0EF10F0000EF0
:1021D00000019C6F000E9D6F000E9E6F400E9F6F62
:1021E000000E286E000E296EC00E2A6E3F0E2B6E5A
:1021F000A0C02CF0A1C02DF0A2C02EF0A3C02FF0E3
:1022000016EC35F0D8B007EF11F009EF11F012EF2E
:1022100011F0000E00019C6F000E9D6F400E9E6F2E
:10222000400E9F6F000E286E000E296E000E2A6E63
:10223000400E2B6EA0C02CF0A1C02DF0A2C02EF03D
:10224000A3C02FF016EC35F0D8B029EF11F02BEF2A
:1022500011F034EF11F0000E00019C6F000E9D6F25
:10226000800E9E6F400E9F6FAC0E00018C6FAE0E05
:102270008D6F9CC08EF09DC08FF09EC090F09FC06F
:1022800091F036EC3AF0000E0A6E010E0B6E0B5018
:10229000D8A4200E0C6E010EFAEC39F0040E0A6E72
:1022A000AC0E0B6E0C6A020EFAEC39F0000E026EE8
:1022B000640E016E4DEC39F0CDBE61EF11F063EFAD
:1022C00011F070EF10F0CDEC3AF0000E0A6E630ED4
:1022D0000B6E0B50D8A4200E0C6E010EFAEC39F0E8
:1022E000060E0001936F130E926FAD0EE82EFED70F
:1022F000922FFCD7932FFAD700D0000E0A6E540EFF
:102300000B6E0B50D8A4200E0C6E010EFAEC39F0B7
:10231000060E0001936F130E926FAD0EE82EFED7DE
:10232000922FFCD7932FFAD700D0000E0A6E450EDD
:102330000B6E0B50D8A4200E0C6E010EFAEC39F087
:10234000060E0001936F130E926FAD0EE82EFED7AE
:10235000922FFCD7932FFAD700D0CDEC3AF09CC047
:102360000FF09DC010F09EC011F09FC012F0000E43
:10237000136E000E146E800E156E400E166E81ECFC
:1023800037F0D8A0C6EF11F0C8EF11F09BEF16F0B0
:1023900058EC38F00F0E0D145A6E5B6A60006BF14A
:1023A000CDFF020E0001936F450E926FA90EE82E2D
:1023B000FED7922FFCD7932FFAD700D0CD6A820E8A
:1023C0000001926FDD0EE82EFED7922FFCD700D0D1
:1023D000000E0A6E8C0E0B6E0B50D8A4200E0C6EE5
:1023E000010EFAEC39F0040E0A6EA90E0B6E0B50BA
:1023F000D8A4200E0C6E020EFAEC39F0A0EF12F009
:10240000CEB205EF12F007EF12F050EF12F056C007
:1024100001F057C002F058C003F059C004F0000E9C
:10242000056E000E066E800E076E3F0E086E48ECBD
:102430002AF001C056F002C057F003C058F004C0A3
:1024400059F0020E0001936F450E926FA90EE82E0F
:10245000FED7922FFCD7932FFAD700D0AC0E0001F5
:102460008C6FAE0E8D6F56C08EF057C08FF058C077
:1024700090F059C091F036EC3AF0000E0A6E8C0ED6
:102480000B6E0B50D8A4200E0C6E010EFAEC39F036
:10249000040E0A6EAC0E0B6E0C6A020EFAEC39F0EA
:1024A000CEB055EF12F057EF12F0A0EF12F056C079
:1024B00028F057C029F058C02AF059C02BF0000E60
:1024C0002C6E000E2D6E800E2E6E3F0E2F6E95EC34
:1024D00039F028C056F029C057F02AC058F02BC058
:1024E00059F0020E0001936F450E926FA90EE82E6F
:1024F000FED7922FFCD7932FFAD700D0AC0E000155
:102500008C6FAE0E8D6F56C08EF057C08FF058C0D6
:1025100090F059C091F036EC3AF0000E0A6E8C0E35
:102520000B6E0B50D8A4200E0C6E010EFAEC39F095
:10253000040E0A6EAC0E0B6E0C6A020EFAEC39F049
:10254000CDBCA5EF12F0A7EF12F000EF12F05AC0C9
:1025500001F05BC002F0000E02BEFF0E036E046EBF
:10256000010EFCEC32F001C00FF002C010F003C00D
:1025700011F004C012F056C013F057C014F058C048
:1025800015F059C016F081EC37F0D8A0CAEF12F060
:10259000CCEF12F0F6EF12F0CDEC3AF0010E5C2425
:1025A0005C6E000E5D205D6E000E0A6E990E0B6E65
:1025B0000B50D8A4200E0C6E010EFAEC39F01A0E56
:1025C0000001936F5E0E926F6E0EE82EFED7922F73
:1025D000FCD7932FFAD70000000E566E000E576EF0
:1025E000000E586E000E596E18EF13F0CDEC3AF055
:1025F000000E0A6E720E0B6E0B50D8A4200E0C6EDD
:10260000010EFAEC39F01A0E0001936F5E0E926F14
:102610006E0EE82EFED7922FFCD7932FFAD700002C
:10262000000E566E000E576E000E586E000E596E5C
:10263000CDEC3AF0000E0A6E240E0B6E0B50D8A4AF
:10264000200E0C6E010EFAEC39F0060E0001936FAD
:10265000130E926FAD0EE82EFED7922FFCD7932F5C
:10266000FAD700D0000E0A6E350E0B6E0B50D8A4B0
:10267000200E0C6E010EFAEC39F0060E0001936F7D
:10268000130E926FAD0EE82EFED7922FFCD7932F2C
:10269000FAD700D0000E0A6E130E0B6E0B50D8A4A2
:1026A000200E0C6E010EFAEC39F0060E0001936F4D
:1026B000130E926FAD0EE82EFED7922FFCD7932FFC
:1026C000FAD700D0CDEC3AF058EC38F00F0E0D14DC
:1026D0005A6E5B6A60006BF1CDFFC30E0001926F12
:1026E000CD0EE82EFED7922FFCD7CD6A820E0001C8
:1026F000926FDD0EE82EFED7922FFCD700D0000E91
:102700000A6E8C0E0B6E0B50D8A4200E0C6E010EB0
:10271000FAEC39F0040E0A6EA90E0B6E0B50D8A419
:10272000200E0C6E020EFAEC39F037EF14F0CEB238
:102730009CEF13F09EEF13F0E7EF13F056C001F09B
:1027400057C002F058C003F059C004F0000E056EE7
:10275000000E066E800E076E3F0E086E48EC2AF0E3
:1027600001C056F002C057F003C058F004C059F041
:10277000020E0001936F450E926FA90EE82EFED750
:10278000922FFCD7932FFAD700D0AC0E00018C6F9C
:10279000AE0E8D6F56C08EF057C08FF058C090F0BF
:1027A00059C091F036EC3AF0000E0A6E8C0E0B6EAA
:1027B0000B50D8A4200E0C6E010EFAEC39F0040E6A
:1027C0000A6EAC0E0B6E0C6A020EFAEC39F0CEB04B
:1027D000ECEF13F0EEEF13F037EF14F056C028F0E3
:1027E00057C029F058C02AF059C02BF0000E2C6EAB
:1027F000000E2D6E800E2E6E3F0E2F6E95EC39F072
:1028000028C056F029C057F02AC058F02BC059F004
:10281000020E0001936F450E926FA90EE82EFED7AF
:10282000922FFCD7932FFAD700D0AC0E00018C6FFB
:10283000AE0E8D6F56C08EF057C08FF058C090F01E
:1028400059C091F036EC3AF0000E0A6E8C0E0B6E09
:102850000B50D8A4200E0C6E010EFAEC39F0040EC9
:102860000A6EAC0E0B6E0C6A020EFAEC39F0CDBC9F
:102870003CEF14F03EEF14F097EF13F05AC001F064
:102880005BC002F0000E02BEFF0E036E046E010E6E
:10289000FCEC32F001C00FF002C010F003C011F0E8
:1028A00004C012F056C013F057C014F058C015F011
:1028B00059C016F081EC37F0D8A061EF14F063EF47
:1028C00014F08DEF14F0CDEC3AF0010E5C245C6E48
:1028D000000E5D205D6E000E0A6E990E0B6E0B50A1
:1028E000D8A4200E0C6E010EFAEC39F01A0E00017D
:1028F000936F5E0E926F6E0EE82EFED7922FFCD76E
:10290000932FFAD70000000E566E000E576E000E81
:10291000586E000E596EAFEF14F0CDEC3AF0000E89
:102920000A6E720E0B6E0B50D8A4200E0C6E010EA8
:10293000FAEC39F01A0E0001936F5E0E926F6E0E74
:10294000E82EFED7922FFCD7932FFAD70000000E67
:10295000566E000E576E000E586E000E596ECDEC7E
:102960003AF0000E0A6E240E0B6E0B50D8A4200E07
:102970000C6E010EFAEC39F0060E0001936F130E87
:10298000926FAD0EE82EFED7922FFCD7932FFAD779
:1029900000D0000E0A6E350E0B6E0B50D8A4200E20
:1029A0000C6E010EFAEC39F0060E0001936F130E57
:1029B000926FAD0EE82EFED7922FFCD7932FFAD749
:1029C00000D0000E0A6E130E0B6E0B50D8A4200E12
:1029D0000C6E010EFAEC39F0060E0001936F130E27
:1029E000926FAD0EE82EFED7922FFCD7932FFAD719
:1029F00000D0CDEC3AF058EC38F00F0E0D145A6EB2
:102A00005B6A60006BF1CDFF410E0001926FEE0E2C
:102A1000E82EFED7922FFCD70000CD6A820E00016F
:102A2000926FDD0EE82EFED7922FFCD700D0000E5D
:102A30000A6E8C0E0B6E0B50D8A4200E0C6E010E7D
:102A4000FAEC39F0040E0A6EA90E0B6E0B50D8A4E6
:102A5000200E0C6E020EFAEC39F0CFEF15F0CEB26C
:102A600034EF15F036EF15F07FEF15F056C001F09A
:102A700057C002F058C003F059C004F0000E056EB4
:102A8000000E066E800E076E3F0E086E48EC2AF0B0
:102A900001C056F002C057F003C058F004C059F00E
:102AA000020E0001936F450E926FA90EE82EFED71D
:102AB000922FFCD7932FFAD700D0AC0E00018C6F69
:102AC000AE0E8D6F56C08EF057C08FF058C090F08C
:102AD00059C091F036EC3AF0000E0A6E8C0E0B6E77
:102AE0000B50D8A4200E0C6E010EFAEC39F0040E37
:102AF0000A6EAC0E0B6E0C6A020EFAEC39F0CEB018
:102B000084EF15F086EF15F0CFEF15F056C028F0E2
:102B100057C029F058C02AF059C02BF0000E2C6E77
:102B2000000E2D6E800E2E6E3F0E2F6E95EC39F03E
:102B300028C056F029C057F02AC058F02BC059F0D1
:102B4000020E0001936F450E926FA90EE82EFED77C
:102B5000922FFCD7932FFAD700D0AC0E00018C6FC8
:102B6000AE0E8D6F56C08EF057C08FF058C090F0EB
:102B700059C091F036EC3AF0000E0A6E8C0E0B6ED6
:102B80000B50D8A4200E0C6E010EFAEC39F0040E96
:102B90000A6EAC0E0B6E0C6A020EFAEC39F0CDBC6C
:102BA000D4EF15F0D6EF15F02FEF15F05AC001F065
:102BB0005BC002F0000E02BEFF0E036E046E010E3B
:102BC000FCEC32F001C00FF002C010F003C011F0B5
:102BD00004C012F056C013F057C014F058C015F0DE
:102BE00059C016F081EC37F0D8A0F9EF15F0FBEFE3
:102BF00015F025EF16F0CDEC3AF0010E5C245C6E7A
:102C0000000E5D205D6E000E0A6E990E0B6E0B506D
:102C1000D8A4200E0C6E010EFAEC39F01A0E000149
:102C2000936F5E0E926F6E0EE82EFED7922FFCD73A
:102C3000932FFAD70000000E566E000E576E000E4E
:102C4000586E000E596E47EF16F0CDEC3AF0000EBC
:102C50000A6E720E0B6E0B50D8A4200E0C6E010E75
:102C6000FAEC39F01A0E0001936F5E0E926F6E0E41
:102C7000E82EFED7922FFCD7932FFAD70000000E34
:102C8000566E000E576E000E586E000E596E5C5058
:102C90005D10D8A44EEF16F050EF16F075EF16F059
:102CA000000E0A6E7F0E0B6E0B50D8A4200E0C6E19
:102CB000010EFAEC39F0040E0A6EBB0E0B6E0B50CF
:102CC000D8A4200E0C6E020EFAEC39F01A0E000198
:102CD000936F5E0E926F6E0EE82EFED7922FFCD78A
:102CE000932FFAD7000060EF10F0AC0E00018C6F4C
:102CF000A30E8D6F5CC08EF05DC08FF036EC3AF0A5
:102D0000000E0A6E7F0E0B6E0B50D8A4200E0C6EB8
:102D1000010EFAEC39F0AC0E016EBC0E026EC4EC82
:102D200038F0040E0A6EAC0E0B6E0C6A020EFAEC52
:102D300039F066EF16F09CC00FF09DC010F09EC0F9
:102D400011F09FC012F0000E136E000E146E400EB4
:102D5000156E400E166E81EC37F0D8A0B2EF16F06B
:102D6000B4EF16F083EF1BF058EC38F00F0E0D1493
:102D70005A6E5B6A60006BF1CDFF060E0001936F27
:102D8000130E926FAD0EE82EFED7922FFCD7932F25
:102D9000FAD700D0CD6A820E0001926FDD0EE82EC8
:102DA000FED7922FFCD700D0000E0A6E8C0E0B6E51
:102DB0000B50D8A4200E0C6E010EFAEC39F0040E64
:102DC0000A6EA90E0B6E0B50D8A4200E0C6E020ECC
:102DD000FAEC39F08CEF17F0CEB2F1EF16F0F3EF1A
:102DE00016F03CEF17F056C001F057C002F058C083
:102DF00003F059C004F0000E056E000E066E800E42
:102E0000076E3F0E086E48EC2AF001C056F002C073
:102E100057F003C058F004C059F0020E0001936F40
:102E2000450E926FA90EE82EFED7922FFCD7932F56
:102E3000FAD700D0AC0E00018C6FAE0E8D6F56C06D
:102E40008EF057C08FF058C090F059C091F036EC1A
:102E50003AF0000E0A6E8C0E0B6E0B50D8A4200EAA
:102E60000C6E010EFAEC39F0040E0A6EAC0E0B6E0D
:102E70000C6A020EFAEC39F0CEB041EF17F043EFD6
:102E800017F08CEF17F056C028F057C029F058C043
:102E90002AF059C02BF0000E2C6E000E2D6E800E05
:102EA0002E6E3F0E2F6E95EC39F028C056F029C0DB
:102EB00057F02AC058F02BC059F0020E0001936F52
:102EC000450E926FA90EE82EFED7922FFCD7932FB6
:102ED000FAD700D0AC0E00018C6FAE0E8D6F56C0CD
:102EE0008EF057C08FF058C090F059C091F036EC7A
:102EF0003AF0000E0A6E8C0E0B6E0B50D8A4200E0A
:102F00000C6E010EFAEC39F0040E0A6EAC0E0B6E6C
:102F10000C6A020EFAEC39F0CDBC91EF17F093EF8A
:102F200017F0ECEF16F05AC001F05BC002F0000E93
:102F300002BEFF0E036E046E010EFCEC32F001C007
:102F40000FF002C010F003C011F004C012F056C020
:102F500013F057C014F058C015F059C016F081ECAA
:102F600037F0D8A0B6EF17F0B8EF17F0E2EF17F090
:102F7000CDEC3AF0010E5C245C6E000E5D205D6EBF
:102F8000000E0A6E990E0B6E0B50D8A4200E0C6E1C
:102F9000010EFAEC39F01A0E0001936F5E0E926F7B
:102FA0006E0EE82EFED7922FFCD7932FFAD7000093
:102FB000000E566E000E576E000E586E000E596EC3
:102FC00004EF18F0CDEC3AF0000E0A6E720E0B6EA4
:102FD0000B50D8A4200E0C6E010EFAEC39F01A0E2C
:102FE0000001936F5E0E926F6E0EE82EFED7922F49
:102FF000FCD7932FFAD70000000E566E000E576EC6
:10300000000E586E000E596ECDEC3AF0000E0A6EAE
:10301000240E0B6E0B50D8A4200E0C6E010EFAEC91
:1030200039F0060E0001936F130E926FAD0EE82E6D
:10303000FED7922FFCD7932FFAD700D0000E0A6E3E
:10304000350E0B6E0B50D8A4200E0C6E010EFAEC50
:1030500039F0060E0001936F130E926FAD0EE82E3D
:10306000FED7922FFCD7932FFAD700D0000E0A6E0E
:10307000130E0B6E0B50D8A4200E0C6E010EFAEC42
:1030800039F0060E0001936F130E926FAD0EE82E0D
:10309000FED7922FFCD7932FFAD700D0CDEC3AF081
:1030A00058EC38F00F0E0D145A6E5B6A60006BF12D
:1030B000CDFF030E0001936F8A0E926F550EE82E1E
:1030C000FED7922FFCD7932FFAD700D0CD6A820E6D
:1030D0000001926FDD0EE82EFED7922FFCD700D0B4
:1030E000000E0A6E8C0E0B6E0B50D8A4200E0C6EC8
:1030F000010EFAEC39F0040E0A6EA90E0B6E0B509D
:10310000D8A4200E0C6E020EFAEC39F028EF19F05C
:10311000CEB28DEF18F08FEF18F0D8EF18F056C040
:1031200001F057C002F058C003F059C004F0000E7F
:10313000056E000E066E800E076E3F0E086E48ECA0
:103140002AF001C056F002C057F003C058F004C086
:1031500059F0020E0001936F450E926FA90EE82EF2
:10316000FED7922FFCD7932FFAD700D0AC0E0001D8
:103170008C6FAE0E8D6F56C08EF057C08FF058C05A
:1031800090F059C091F036EC3AF0000E0A6E8C0EB9
:103190000B6E0B50D8A4200E0C6E010EFAEC39F019
:1031A000040E0A6EAC0E0B6E0C6A020EFAEC39F0CD
:1031B000CEB0DDEF18F0DFEF18F028EF19F056C0B1
:1031C00028F057C029F058C02AF059C02BF0000E43
:1031D0002C6E000E2D6E800E2E6E3F0E2F6E95EC17
:1031E00039F028C056F029C057F02AC058F02BC03B
:1031F00059F0020E0001936F450E926FA90EE82E52
:10320000FED7922FFCD7932FFAD700D0AC0E000137
:103210008C6FAE0E8D6F56C08EF057C08FF058C0B9
:1032200090F059C091F036EC3AF0000E0A6E8C0E18
:103230000B6E0B50D8A4200E0C6E010EFAEC39F078
:10324000040E0A6EAC0E0B6E0C6A020EFAEC39F02C
:10325000CDBC2DEF19F02FEF19F088EF18F05AC000
:1032600001F05BC002F0000E02BEFF0E036E046EA2
:10327000010EFCEC32F001C00FF002C010F003C0F0
:1032800011F004C012F056C013F057C014F058C02B
:1032900015F059C016F081EC37F0D8A052EF19F0B4
:1032A00054EF19F07EEF19F0CDEC3AF0010E5C24EA
:1032B0005C6E000E5D205D6E000E0A6E990E0B6E48
:1032C0000B50D8A4200E0C6E010EFAEC39F01A0E39
:1032D0000001936F5E0E926F6E0EE82EFED7922F56
:1032E000FCD7932FFAD70000000E566E000E576ED3
:1032F000000E586E000E596EA0EF19F0CDEC3AF0AA
:10330000000E0A6E720E0B6E0B50D8A4200E0C6EBF
:10331000010EFAEC39F01A0E0001936F5E0E926FF7
:103320006E0EE82EFED7922FFCD7932FFAD700000F
:10333000000E566E000E576E000E586E000E596E3F
:10334000CDEC3AF0000E0A6E240E0B6E0B50D8A492
:10335000200E0C6E010EFAEC39F0060E0001936F90
:10336000130E926FAD0EE82EFED7922FFCD7932F3F
:10337000FAD700D0000E0A6E350E0B6E0B50D8A493
:10338000200E0C6E010EFAEC39F0060E0001936F60
:10339000130E926FAD0EE82EFED7922FFCD7932F0F
:1033A000FAD700D0000E0A6E130E0B6E0B50D8A485
:1033B000200E0C6E010EFAEC39F0060E0001936F30
:1033C000130E926FAD0EE82EFED7922FFCD7932FDF
:1033D000FAD700D0CDEC3AF058EC38F00F0E0D14BF
:1033E0005A6E5B6A60006BF1CDFF020E0001936FB5
:1033F000450E926FA90EE82EFED7922FFCD7932F81
:10340000FAD700D0CD6A820E0001926FDD0EE82E51
:10341000FED7922FFCD700D0000E0A6E8C0E0B6EDA
:103420000B50D8A4200E0C6E010EFAEC39F0040EED
:103430000A6EA90E0B6E0B50D8A4200E0C6E020E55
:10344000FAEC39F0C4EF1AF0CEB229EF1AF02BEFF4
:103450001AF074EF1AF056C001F057C002F058C0CD
:1034600003F059C004F0000E056E000E066E800ECB
:10347000076E3F0E086E48EC2AF001C056F002C0FD
:1034800057F003C058F004C059F0020E0001936FCA
:10349000450E926FA90EE82EFED7922FFCD7932FE0
:1034A000FAD700D0AC0E00018C6FAE0E8D6F56C0F7
:1034B0008EF057C08FF058C090F059C091F036ECA4
:1034C0003AF0000E0A6E8C0E0B6E0B50D8A4200E34
:1034D0000C6E010EFAEC39F0040E0A6EAC0E0B6E97
:1034E0000C6A020EFAEC39F0CEB079EF1AF07BEFED
:1034F0001AF0C4EF1AF056C028F057C029F058C08F
:103500002AF059C02BF0000E2C6E000E2D6E800E8E
:103510002E6E3F0E2F6E95EC39F028C056F029C064
:1035200057F02AC058F02BC059F0020E0001936FDB
:10353000450E926FA90EE82EFED7922FFCD7932F3F
:10354000FAD700D0AC0E00018C6FAE0E8D6F56C056
:103550008EF057C08FF058C090F059C091F036EC03
:103560003AF0000E0A6E8C0E0B6E0B50D8A4200E93
:103570000C6E010EFAEC39F0040E0A6EAC0E0B6EF6
:103580000C6A020EFAEC39F0CDBCC9EF1AF0CBEFA1
:103590001AF024EF1AF05AC001F05BC002F0000EDE
:1035A00002BEFF0E036E046E010EFCEC32F001C091
:1035B0000FF002C010F003C011F004C012F056C0AA
:1035C00013F057C014F058C015F059C016F081EC34
:1035D00037F0D8A0EEEF1AF0F0EF1AF01AEF1BF068
:1035E000CDEC3AF0010E5C245C6E000E5D205D6E49
:1035F000000E0A6E990E0B6E0B50D8A4200E0C6EA6
:10360000010EFAEC39F01A0E0001936F5E0E926F04
:103610006E0EE82EFED7922FFCD7932FFAD700001C
:10362000000E566E000E576E000E586E000E596E4C
:103630003CEF1BF0CDEC3AF0000E0A6E720E0B6EF2
:103640000B50D8A4200E0C6E010EFAEC39F01A0EB5
:103650000001936F5E0E926F6E0EE82EFED7922FD2
:10366000FCD7932FFAD70000000E566E000E576E4F
:10367000000E586E000E596E5C505D10D8A443EFDA
:103680001BF045EF1BF05DEF1BF0000E0A6E7F0E86
:103690000B6E0B50D8A4200E0C6E010EFAEC39F014
:1036A000040E0A6EBB0E0B6E0B50D8A4200E0C6ECF
:1036B000020EFAEC39F066EF16F0AC0E00018C6FDA
:1036C000A30E8D6F5CC08EF05DC08FF036EC3AF0CB
:1036D000000E0A6E7F0E0B6E0B50D8A4200E0C6EDF
:1036E000010EFAEC39F0AC0E016EBC0E026EC4ECA9
:1036F00038F0040E0A6EAC0E0B6E0C6A020EFAEC79
:1037000039F066EF16F09CC00FF09DC010F09EC01F
:1037100011F09FC012F0000E136E000E146E000E1A
:10372000156E400E166E81EC37F0D8A09AEF1BF0A4
:103730009CEF1BF06BEF20F058EC38F00F0E0D14DF
:103740005A6E5B6A60006BF1CDFF080E0001936F4B
:103750009D0E926F050EE82EFED7922FFCD7932F69
:10376000FAD700D0CD6A820E0001926FDD0EE82EEE
:10377000FED7922FFCD700D0000E0A6E8C0E0B6E77
:103780000B50D8A4200E0C6E010EFAEC39F0040E8A
:103790000A6EA90E0B6E0B50D8A4200E0C6E020EF2
:1037A000FAEC39F074EF1CF0CEB2D9EF1BF0DBEF7E
:1037B0001BF024EF1CF056C001F057C002F058C0B7
:1037C00003F059C004F0000E056E000E066E800E68
:1037D000076E3F0E086E48EC2AF001C056F002C09A
:1037E00057F003C058F004C059F0020E0001936F67
:1037F000450E926FA90EE82EFED7922FFCD7932F7D
:10380000FAD700D0AC0E00018C6FAE0E8D6F56C093
:103810008EF057C08FF058C090F059C091F036EC40
:103820003AF0000E0A6E8C0E0B6E0B50D8A4200ED0
:103830000C6E010EFAEC39F0040E0A6EAC0E0B6E33
:103840000C6A020EFAEC39F0CEB029EF1CF02BEF27
:103850001CF074EF1CF056C028F057C029F058C077
:103860002AF059C02BF0000E2C6E000E2D6E800E2B
:103870002E6E3F0E2F6E95EC39F028C056F029C001
:1038800057F02AC058F02BC059F0020E0001936F78
:10389000450E926FA90EE82EFED7922FFCD7932FDC
:1038A000FAD700D0AC0E00018C6FAE0E8D6F56C0F3
:1038B0008EF057C08FF058C090F059C091F036ECA0
:1038C0003AF0000E0A6E8C0E0B6E0B50D8A4200E30
:1038D0000C6E010EFAEC39F0040E0A6EAC0E0B6E93
:1038E0000C6A020EFAEC39F0CDBC79EF1CF07BEFDC
:1038F0001CF0D4EF1BF05AC001F05BC002F0000EC8
:1039000002BEFF0E036E046E010EFCEC32F001C02D
:103910000FF002C010F003C011F004C012F056C046
:1039200013F057C014F058C015F059C016F081ECD0
:1039300037F0D8A09EEF1CF0A0EF1CF0CAEF1CF0EF
:10394000CDEC3AF0010E5C245C6E000E5D205D6EE5
:10395000000E0A6E990E0B6E0B50D8A4200E0C6E42
:10396000010EFAEC39F01A0E0001936F5E0E926FA1
:103970006E0EE82EFED7922FFCD7932FFAD70000B9
:10398000000E566E000E576E000E586E000E596EE9
:10399000ECEF1CF0CDEC3AF0000E0A6E720E0B6EDE
:1039A0000B50D8A4200E0C6E010EFAEC39F01A0E52
:1039B0000001936F5E0E926F6E0EE82EFED7922F6F
:1039C000FCD7932FFAD70000000E566E000E576EEC
:1039D000000E586E000E596ECDEC3AF0000E0A6ED5
:1039E000240E0B6E0B50D8A4200E0C6E010EFAECB8
:1039F00039F0060E0001936F130E926FAD0EE82E94
:103A0000FED7922FFCD7932FFAD700D0000E0A6E64
:103A1000350E0B6E0B50D8A4200E0C6E010EFAEC76
:103A200039F0060E0001936F130E926FAD0EE82E63
:103A3000FED7922FFCD7932FFAD700D0000E0A6E34
:103A4000130E0B6E0B50D8A4200E0C6E010EFAEC68
:103A500039F0060E0001936F130E926FAD0EE82E33
:103A6000FED7922FFCD7932FFAD700D0CDEC3AF0A7
:103A700058EC38F00F0E0D145A6E5B6A60006BF153
:103A8000CDFF070E0001936F580E926F590EE82E6E
:103A9000FED7922FFCD7932FFAD700D0CD6A820E93
:103AA0000001926FDD0EE82EFED7922FFCD700D0DA
:103AB000000E0A6E8C0E0B6E0B50D8A4200E0C6EEE
:103AC000010EFAEC39F0040E0A6EA90E0B6E0B50C3
:103AD000D8A4200E0C6E020EFAEC39F010EF1EF096
:103AE000CEB275EF1DF077EF1DF0C0EF1DF056C0A0
:103AF00001F057C002F058C003F059C004F0000EA6
:103B0000056E000E066E800E076E3F0E086E48ECC6
:103B10002AF001C056F002C057F003C058F004C0AC
:103B200059F0020E0001936F450E926FA90EE82E18
:103B3000FED7922FFCD7932FFAD700D0AC0E0001FE
:103B40008C6FAE0E8D6F56C08EF057C08FF058C080
:103B500090F059C091F036EC3AF0000E0A6E8C0EDF
:103B60000B6E0B50D8A4200E0C6E010EFAEC39F03F
:103B7000040E0A6EAC0E0B6E0C6A020EFAEC39F0F3
:103B8000CEB0C5EF1DF0C7EF1DF010EF1EF056C010
:103B900028F057C029F058C02AF059C02BF0000E69
:103BA0002C6E000E2D6E800E2E6E3F0E2F6E95EC3D
:103BB00039F028C056F029C057F02AC058F02BC061
:103BC00059F0020E0001936F450E926FA90EE82E78
:103BD000FED7922FFCD7932FFAD700D0AC0E00015E
:103BE0008C6FAE0E8D6F56C08EF057C08FF058C0E0
:103BF00090F059C091F036EC3AF0000E0A6E8C0E3F
:103C00000B6E0B50D8A4200E0C6E010EFAEC39F09E
:103C1000040E0A6EAC0E0B6E0C6A020EFAEC39F052
:103C2000CDBC15EF1EF017EF1EF070EF1DF05AC05F
:103C300001F05BC002F0000E02BEFF0E036E046EC8
:103C4000010EFCEC32F001C00FF002C010F003C016
:103C500011F004C012F056C013F057C014F058C051
:103C600015F059C016F081EC37F0D8A03AEF1EF0ED
:103C70003CEF1EF066EF1EF0CDEC3AF0010E5C2436
:103C80005C6E000E5D205D6E000E0A6E990E0B6E6E
:103C90000B50D8A4200E0C6E010EFAEC39F01A0E5F
:103CA0000001936F5E0E926F6E0EE82EFED7922F7C
:103CB000FCD7932FFAD70000000E566E000E576EF9
:103CC000000E586E000E596E88EF1EF0CDEC3AF0E3
:103CD000000E0A6E720E0B6E0B50D8A4200E0C6EE6
:103CE000010EFAEC39F01A0E0001936F5E0E926F1E
:103CF0006E0EE82EFED7922FFCD7932FFAD7000036
:103D0000000E566E000E576E000E586E000E596E65
:103D1000CDEC3AF0000E0A6E240E0B6E0B50D8A4B8
:103D2000200E0C6E010EFAEC39F0060E0001936FB6
:103D3000130E926FAD0EE82EFED7922FFCD7932F65
:103D4000FAD700D0000E0A6E350E0B6E0B50D8A4B9
:103D5000200E0C6E010EFAEC39F0060E0001936F86
:103D6000130E926FAD0EE82EFED7922FFCD7932F35
:103D7000FAD700D0000E0A6E130E0B6E0B50D8A4AB
:103D8000200E0C6E010EFAEC39F0060E0001936F56
:103D9000130E926FAD0EE82EFED7922FFCD7932F05
:103DA000FAD700D0CDEC3AF058EC38F00F0E0D14E5
:103DB0005A6E5B6A60006BF1CDFF060E0001936FD7
:103DC000130E926FAD0EE82EFED7922FFCD7932FD5
:103DD000FAD700D0CD6A820E0001926FDD0EE82E78
:103DE000FED7922FFCD700D0000E0A6E8C0E0B6E01
:103DF0000B50D8A4200E0C6E010EFAEC39F0040E14
:103E00000A6EA90E0B6E0B50D8A4200E0C6E020E7B
:103E1000FAEC39F0ACEF1FF0CEB211EF1FF013EF58
:103E20001FF05CEF1FF056C001F057C002F058C001
:103E300003F059C004F0000E056E000E066E800EF1
:103E4000076E3F0E086E48EC2AF001C056F002C023
:103E500057F003C058F004C059F0020E0001936FF0
:103E6000450E926FA90EE82EFED7922FFCD7932F06
:103E7000FAD700D0AC0E00018C6FAE0E8D6F56C01D
:103E80008EF057C08FF058C090F059C091F036ECCA
:103E90003AF0000E0A6E8C0E0B6E0B50D8A4200E5A
:103EA0000C6E010EFAEC39F0040E0A6EAC0E0B6EBD
:103EB0000C6A020EFAEC39F0CEB061EF1FF063EF3E
:103EC0001FF0ACEF1FF056C028F057C029F058C0C3
:103ED0002AF059C02BF0000E2C6E000E2D6E800EB5
:103EE0002E6E3F0E2F6E95EC39F028C056F029C08B
:103EF00057F02AC058F02BC059F0020E0001936F02
:103F0000450E926FA90EE82EFED7922FFCD7932F65
:103F1000FAD700D0AC0E00018C6FAE0E8D6F56C07C
:103F20008EF057C08FF058C090F059C091F036EC29
:103F30003AF0000E0A6E8C0E0B6E0B50D8A4200EB9
:103F40000C6E010EFAEC39F0040E0A6EAC0E0B6E1C
:103F50000C6A020EFAEC39F0CDBCB1EF1FF0B3EFF2
:103F60001FF00CEF1FF05AC001F05BC002F0000E12
:103F700002BEFF0E036E046E010EFCEC32F001C0B7
:103F80000FF002C010F003C011F004C012F056C0D0
:103F900013F057C014F058C015F059C016F081EC5A
:103FA00037F0D8A0D6EF1FF0D8EF1FF002EF20F0C7
:103FB000CDEC3AF0010E5C245C6E000E5D205D6E6F
:103FC000000E0A6E990E0B6E0B50D8A4200E0C6ECC
:103FD000010EFAEC39F01A0E0001936F5E0E926F2B
:103FE0006E0EE82EFED7922FFCD7932FFAD7000043
:103FF000000E566E000E576E000E586E000E596E73
:1040000024EF20F0CDEC3AF0000E0A6E720E0B6E2B
:104010000B50D8A4200E0C6E010EFAEC39F01A0EDB
:104020000001936F5E0E926F6E0EE82EFED7922FF8
:10403000FCD7932FFAD70000000E566E000E576E75
:10404000000E586E000E596E5C505D10D8A42BEF18
:1040500020F02DEF20F045EF20F0000E0A6E7F0ECD
:104060000B6E0B50D8A4200E0C6E010EFAEC39F03A
:10407000040E0A6EBB0E0B6E0B50D8A4200E0C6EF5
:10408000020EFAEC39F066EF16F0AC0E00018C6F00
:10409000A30E8D6F5CC08EF05DC08FF036EC3AF0F1
:1040A000000E0A6E7F0E0B6E0B50D8A4200E0C6E05
:1040B000010EFAEC39F0AC0E016EBC0E026EC4ECCF
:1040C00038F0040E0A6EAC0E0B6E0C6A020EFAEC9F
:1040D00039F066EF16F09CC00FF09DC010F09EC046
:1040E00011F09FC012F0000E136E000E146E800EC1
:1040F000156E3F0E166E81EC37F0D8A082EF20F0DF
:1041000084EF20F0AFEF11F058EC38F00F0E0D14E3
:104110005A6E5B6A60006BF1CDFF0B0E0001936F6E
:10412000260E926F5D0EE82EFED7922FFCD7932FAE
:10413000FAD700D0CD6A820E0001926FDD0EE82E14
:10414000FED7922FFCD700D0000E0A6E8C0E0B6E9D
:104150000B50D8A4200E0C6E010EFAEC39F0040EB0
:104160000A6EA90E0B6E0B50D8A4200E0C6E020E18
:10417000FAEC39F05CEF21F0CEB2C1EF20F0C3EFE2
:1041800020F00CEF21F056C001F057C002F058C0EB
:1041900003F059C004F0000E056E000E066E800E8E
:1041A000076E3F0E086E48EC2AF001C056F002C0C0
:1041B00057F003C058F004C059F0020E0001936F8D
:1041C000450E926FA90EE82EFED7922FFCD7932FA3
:1041D000FAD700D0AC0E00018C6FAE0E8D6F56C0BA
:1041E0008EF057C08FF058C090F059C091F036EC67
:1041F0003AF0000E0A6E8C0E0B6E0B50D8A4200EF7
:104200000C6E010EFAEC39F0040E0A6EAC0E0B6E59
:104210000C6A020EFAEC39F0CEB011EF21F013EF78
:1042200021F05CEF21F056C028F057C029F058C0AB
:104230002AF059C02BF0000E2C6E000E2D6E800E51
:104240002E6E3F0E2F6E95EC39F028C056F029C027
:1042500057F02AC058F02BC059F0020E0001936F9E
:10426000450E926FA90EE82EFED7922FFCD7932F02
:10427000FAD700D0AC0E00018C6FAE0E8D6F56C019
:104280008EF057C08FF058C090F059C091F036ECC6
:104290003AF0000E0A6E8C0E0B6E0B50D8A4200E56
:1042A0000C6E010EFAEC39F0040E0A6EAC0E0B6EB9
:1042B0000C6A020EFAEC39F0CDBC61EF21F063EF2D
:1042C00021F0BCEF20F05AC001F05BC002F0000EFC
:1042D00002BEFF0E036E046E010EFCEC32F001C054
:1042E0000FF002C010F003C011F004C012F056C06D
:1042F00013F057C014F058C015F059C016F081ECF7
:1043000037F0D8A086EF21F088EF21F0B2EF21F04E
:10431000CDEC3AF0010E5C245C6E000E5D205D6E0B
:10432000000E0A6E990E0B6E0B50D8A4200E0C6E68
:10433000010EFAEC39F01A0E0001936F5E0E926FC7
:104340006E0EE82EFED7922FFCD7932FFAD70000DF
:10435000000E566E000E576E000E586E000E596E0F
:10436000D4EF21F0CDEC3AF0000E0A6E720E0B6E17
:104370000B50D8A4200E0C6E010EFAEC39F01A0E78
:104380000001936F5E0E926F6E0EE82EFED7922F95
:10439000FCD7932FFAD70000000E566E000E576E12
:1043A000000E586E000E596ECDEC3AF0000E0A6EFB
:1043B000240E0B6E0B50D8A4200E0C6E010EFAECDE
:1043C00039F0060E0001936F130E926FAD0EE82EBA
:1043D000FED7922FFCD7932FFAD700D0000E0A6E8B
:1043E000350E0B6E0B50D8A4200E0C6E010EFAEC9D
:1043F00039F0060E0001936F130E926FAD0EE82E8A
:10440000FED7922FFCD7932FFAD700D0000E0A6E5A
:10441000130E0B6E0B50D8A4200E0C6E010EFAEC8E
:1044200039F0060E0001936F130E926FAD0EE82E59
:10443000FED7922FFCD7932FFAD700D0CDEC3AF0CD
:1044400058EC38F00F0E0D145A6E5B6A60006BF179
:10445000CDFF090E0001936FE10E926FB20EE82EB0
:10446000FED7922FFCD7932FFAD70000CD6A820E89
:104470000001926FDD0EE82EFED7922FFCD700D000
:10448000000E0A6E8C0E0B6E0B50D8A4200E0C6E14
:10449000010EFAEC39F0040E0A6EA90E0B6E0B50E9
:1044A000D8A4200E0C6E020EFAEC39F0F8EF22F0D0
:1044B000CEB25DEF22F05FEF22F0A8EF22F056C0FF
:1044C00001F057C002F058C003F059C004F0000ECC
:1044D000056E000E066E800E076E3F0E086E48ECED
:1044E0002AF001C056F002C057F003C058F004C0D3
:1044F00059F0020E0001936F450E926FA90EE82E3F
:10450000FED7922FFCD7932FFAD700D0AC0E000124
:104510008C6FAE0E8D6F56C08EF057C08FF058C0A6
:1045200090F059C091F036EC3AF0000E0A6E8C0E05
:104530000B6E0B50D8A4200E0C6E010EFAEC39F065
:10454000040E0A6EAC0E0B6E0C6A020EFAEC39F019
:10455000CEB0ADEF22F0AFEF22F0F8EF22F056C070
:1045600028F057C029F058C02AF059C02BF0000E8F
:104570002C6E000E2D6E800E2E6E3F0E2F6E95EC63
:1045800039F028C056F029C057F02AC058F02BC087
:1045900059F0020E0001936F450E926FA90EE82E9E
:1045A000FED7922FFCD7932FFAD700D0AC0E000184
:1045B0008C6FAE0E8D6F56C08EF057C08FF058C006
:1045C00090F059C091F036EC3AF0000E0A6E8C0E65
:1045D0000B6E0B50D8A4200E0C6E010EFAEC39F0C5
:1045E000040E0A6EAC0E0B6E0C6A020EFAEC39F079
:1045F000CDBCFDEF22F0FFEF22F058EF22F05AC0C1
:1046000001F05BC002F0000E02BEFF0E036E046EEE
:10461000010EFCEC32F001C00FF002C010F003C03C
:1046200011F004C012F056C013F057C014F058C077
:1046300015F059C016F081EC37F0D8A022EF23F026
:1046400024EF23F04EEF23F0CDEC3AF0010E5C2482
:104650005C6E000E5D205D6E000E0A6E990E0B6E94
:104660000B50D8A4200E0C6E010EFAEC39F01A0E85
:104670000001936F5E0E926F6E0EE82EFED7922FA2
:10468000FCD7932FFAD70000000E566E000E576E1F
:10469000000E586E000E596E70EF23F0CDEC3AF01C
:1046A000000E0A6E720E0B6E0B50D8A4200E0C6E0C
:1046B000010EFAEC39F01A0E0001936F5E0E926F44
:1046C0006E0EE82EFED7922FFCD7932FFAD700005C
:1046D000000E566E000E576E000E586E000E596E8C
:1046E000CDEC3AF0000E0A6E240E0B6E0B50D8A4DF
:1046F000200E0C6E010EFAEC39F0060E0001936FDD
:10470000130E926FAD0EE82EFED7922FFCD7932F8B
:10471000FAD700D0000E0A6E350E0B6E0B50D8A4DF
:10472000200E0C6E010EFAEC39F0060E0001936FAC
:10473000130E926FAD0EE82EFED7922FFCD7932F5B
:10474000FAD700D0000E0A6E130E0B6E0B50D8A4D1
:10475000200E0C6E010EFAEC39F0060E0001936F7C
:10476000130E926FAD0EE82EFED7922FFCD7932F2B
:10477000FAD700D0CDEC3AF058EC38F00F0E0D140B
:104780005A6E5B6A60006BF1CDFF080E0001936FFB
:104790009D0E926F050EE82EFED7922FFCD7932F19
:1047A000FAD700D0CD6A820E0001926FDD0EE82E9E
:1047B000FED7922FFCD700D0000E0A6E8C0E0B6E27
:1047C0000B50D8A4200E0C6E010EFAEC39F0040E3A
:1047D0000A6EA90E0B6E0B50D8A4200E0C6E020EA2
:1047E000FAEC39F094EF24F0CEB2F9EF23F0FBEFBE
:1047F00023F044EF24F056C001F057C002F058C037
:1048000003F059C004F0000E056E000E066E800E17
:10481000076E3F0E086E48EC2AF001C056F002C049
:1048200057F003C058F004C059F0020E0001936F16
:10483000450E926FA90EE82EFED7922FFCD7932F2C
:10484000FAD700D0AC0E00018C6FAE0E8D6F56C043
:104850008EF057C08FF058C090F059C091F036ECF0
:104860003AF0000E0A6E8C0E0B6E0B50D8A4200E80
:104870000C6E010EFAEC39F0040E0A6EAC0E0B6EE3
:104880000C6A020EFAEC39F0CEB049EF24F04BEF8F
:1048900024F094EF24F056C028F057C029F058C0F7
:1048A0002AF059C02BF0000E2C6E000E2D6E800EDB
:1048B0002E6E3F0E2F6E95EC39F028C056F029C0B1
:1048C00057F02AC058F02BC059F0020E0001936F28
:1048D000450E926FA90EE82EFED7922FFCD7932F8C
:1048E000FAD700D0AC0E00018C6FAE0E8D6F56C0A3
:1048F0008EF057C08FF058C090F059C091F036EC50
:104900003AF0000E0A6E8C0E0B6E0B50D8A4200EDF
:104910000C6E010EFAEC39F0040E0A6EAC0E0B6E42
:104920000C6A020EFAEC39F0CDBC99EF24F09BEF43
:1049300024F0F4EF23F05AC001F05BC002F0000E47
:1049400002BEFF0E036E046E010EFCEC32F001C0DD
:104950000FF002C010F003C011F004C012F056C0F6
:1049600013F057C014F058C015F059C016F081EC80
:1049700037F0D8A0BEEF24F0C0EF24F0EAEF24F027
:10498000CDEC3AF0010E5C245C6E000E5D205D6E95
:10499000000E0A6E990E0B6E0B50D8A4200E0C6EF2
:1049A000010EFAEC39F01A0E0001936F5E0E926F51
:1049B0006E0EE82EFED7922FFCD7932FFAD7000069
:1049C000000E566E000E576E000E586E000E596E99
:1049D0000CEF25F0CDEC3AF0000E0A6E720E0B6E65
:1049E0000B50D8A4200E0C6E010EFAEC39F01A0E02
:1049F0000001936F5E0E926F6E0EE82EFED7922F1F
:104A0000FCD7932FFAD70000000E566E000E576E9B
:104A1000000E586E000E596E5C505D10D8A413EF56
:104A200025F015EF25F02DEF25F0000E0A6E7F0E14
:104A30000B6E0B50D8A4200E0C6E010EFAEC39F060
:104A4000040E0A6EBB0E0B6E0B50D8A4200E0C6E1B
:104A5000020EFAEC39F066EF16F0AC0E00018C6F26
:104A6000A30E8D6F5CC08EF05DC08FF036EC3AF017
:104A7000000E0A6E7F0E0B6E0B50D8A4200E0C6E2B
:104A8000010EFAEC39F0AC0E016EBC0E026EC4ECF5
:104A900038F0040E0A6EAC0E0B6E0C6A020EFAECC5
:104AA00039F066EF16F0FEEFFFF00001816B35C0C4
:104AB00084F036C085F037C086F038C087F087BFF5
:104AC00066EF25F064EF25F07AEF25F0010E816F97
:104AD00084C001F085C002F086C003F087C004F0F6
:104AE0001AEC3AF001C084F002C085F003C086F0F1
:104AF00004C087F0000E0001836F000E826FA4C017
:104B000071F0A5C072F08151D8B489EF25F08BEF18
:104B100025F09FEF25F08151D8A491EF25F093EF78
:104B200025F099EF25F0000E676F2B0E666F9DEF55
:104B300025F0000E676F2D0E666F66C081F084C091
:104B400001F085C002F086C003F087C004F098EC45
:104B500035F001040210D8A4B0EF25F0B2EF25F033
:104B6000E1EF25F000018151D8B4B9EF25F0BBEF9A
:104B700025F0C4EF25F081C000F17107D8A07207BD
:104B8000000E836F010E826F000E8225016E010EF2
:104B90008321026EB30E036E72EC39F00001FD0E3C
:104BA0007127FF0E722334C00FF0000E106E010E3D
:104BB000116E71C012F072C013F0D6EC37F047EFEF
:104BC0002AF084C001F085C002F086C003F087C0DF
:104BD00004F098EC35F001500210D8A4F2EF25F063
:104BE000F4EF25F012EF26F000018151D8B4FBEF6D
:104BF00025F0FDEF25F006EF26F081C000F17107EA
:104C0000D8A07207000E836F010E826F000E8225FE
:104C1000016E010E8321026EB70E036E72EC39F045
:104C2000CEEF25F0000E0001886F000E896F800E18
:104C30008A6F3F0E8B6F000E706F000E6F6F84C017
:104C40000FF085C010F086C011F087C012F0000E82
:104C5000136E000E146E000E156E000E166E81ECB3
:104C600037F0D8B036EF26F038EF26F017EF27F000
:104C700045EF26F073C088F074C089F075C08AF0E3
:104C800076C08BF000016F4B702B88C00FF089C08D
:104C900010F08AC011F08BC012F0000E136E000EDF
:104CA000146E200E156E410E166EA3EC2CF00FC084
:104CB00073F010C074F011C075F012C076F00001EE
:104CC0007351845D016E74518559026E7551865918
:104CD000036E76518759046E22EC39F004BE7CEFE6
:104CE00026F004500310021009E1020E015CD8A066
:104CF0007CEF26F07EEF26F03AEF26F073C028F026
:104D000074C029F075C02AF076C02BF084C02CF056
:104D100085C02DF086C02EF087C02FF016EC35F040
:104D2000D8A095EF26F097EF26F03AEF26F0000195
:104D30008851845D016E89518559026E8A51865968
:104D4000036E8B518759046E22EC39F004BEB6EF26
:104D500026F004500310021007E1020E015CD8B0E7
:104D6000B4EF26F0B6EF26F0FEEF26F088C084F010
:104D700089C085F08AC086F08BC087F017EF27F0D6
:104D800088C001F089C002F08AC003F08BC004F033
:104D9000000E056E000E066E200E076E410E086EA8
:104DA000C8EC2EF001C088F002C089F003C08AF080
:104DB00004C08BF000016F07D8A070078851845D94
:104DC000016E89518559026E8A518659036E8B5145
:104DD0008759046E22EC39F004BEFCEF26F0045033
:104DE0000310021007E1020E015CD8B0FAEF26F0C2
:104DF000FCEF26F0FEEF26F0B6EF26F084C028F098
:104E000085C029F086C02AF087C02BF088C02CF01E
:104E100089C02DF08AC02EF08BC02FF016EC35F033
:104E2000D8A015EF27F017EF27F0C0EF26F039C014
:104E300069F069C06AF00001A7BF21EF27F023EFF6
:104E400027F029EF27F0A6C062F0A7C063F02DEF8E
:104E500027F0000E636F060E626F62C06DF063C0D4
:104E60006EF06D4B6E2B660E6A19D8A43AEF27F0E0
:104E70003CEF27F05CEF27F070BF43EF27F041EFE6
:104E800027F04FEF27F0000E886F000E896F800E1D
:104E90008A6F3F0E8B6F000E706F000E6F6F670E84
:104EA0006919D8B456EF27F058EF27F05CEF27F0D8
:104EB0006F516D2770516E23000E786F000E776F63
:104EC00084C079F085C07AF086C07BF087C07CF022
:104ED00088C073F089C074F08AC075F08BC076F01A
:104EE000EDEF27F079C001F07AC002F07BC003F04B
:104EF0007CC004F088C005F089C006F08AC007F0C5
:104F00008BC008F0C8EC2EF001C01AF002C01BF0F4
:104F100003C01CF004C01DF0F3EC31F01AC07DF0AA
:104F20001BC07EF01CC07FF01DC080F07DC001F072
:104F30007EC002F07FC003F080C004F093EC34F038
:104F400001C06BF002C06CF079C028F07AC029F083
:104F50007BC02AF07CC02BF07DC013F07EC014F023
:104F60007FC015F080C016F088C00FF089C010F027
:104F70008AC011F08BC012F0A3EC2CF00FC02CF003
:104F800010C02DF011C02EF012C02FF095EC39F0AA
:104F900028C079F029C07AF02AC07BF02BC07CF0C1
:104FA00088C001F089C002F08AC003F08BC004F011
:104FB000000E056E000E066E200E076E410E086E86
:104FC000C8EC2EF001C088F002C089F003C08AF05E
:104FD00004C08BF00001774B782B6D51775D7851D1
:104FE000800A3A6E6E51800A3A58D8A0FAEF27F03C
:104FF000FCEF27F072EF27F088C00FF089C010F0A7
:105000008AC011F08BC012F0000E136E000E146EE9
:10501000A00E156E400E166EA3EC2CF00FC07DF0A6
:1050200010C07EF011C07FF012C080F079C028F06F
:105030007AC029F07BC02AF07CC02BF07DC02CF018
:105040007EC02DF07FC02EF080C02FF016EC35F022
:10505000D8B02DEF28F02FEF28F03AEF28F0000E0F
:1050600000017D6F000E7E6F000E7F6F000E806F5F
:1050700063EF28F079C00FF07AC010F07BC011F018
:105080007CC012F07DC013F07EC014F07FC015F01C
:1050900080C016F081EC37F0D8A051EF28F053EF24
:1050A00028F063EF28F000016BB159EF28F05BEFB7
:1050B00028F063EF28F0000E7D6F000E7E6F000E6B
:1050C0007F6F000E806F84C001F085C002F086C043
:1050D00003F087C004F07DC005F07EC006F07FC0FD
:1050E00007F080C008F048EC2AF001C079F002C057
:1050F0007AF003C07BF004C07CF079C028F07AC05D
:1051000029F07BC02AF07CC02BF0000E136E000E3D
:10511000146E200E156E410E166E73C00FF074C023
:1051200010F075C011F076C012F0A3EC2CF00FC097
:105130002CF010C02DF011C02EF012C02FF016EC84
:1051400035F0D8A0A6EF28F0A8EF28F0D1EF28F08E
:1051500000016F4B702B73C00FF074C010F075C05E
:1051600011F076C012F0000E136E000E146E200EB9
:10517000156E410E166EA3EC2CF00FC073F010C02C
:1051800074F011C075F012C076F0660E00016A1955
:10519000D8A4CDEF28F0CFEF28F0D1EF28F06D4B59
:1051A0006E2B73C088F074C089F075C08AF076C029
:1051B0008BF06FC060F070C061F00001686B000E92
:1051C000656F000E646F000E786F000E776FCEEF84
:1051D00029F079C001F07AC002F07BC003F07CC0F6
:1051E00004F088C005F089C006F08AC007F08BC0C3
:1051F00008F0C8EC2EF001C01AF002C01BF003C08A
:105200001CF004C01DF0F3EC31F01AC07DF01BC09F
:105210007EF01CC07FF01DC080F07DC001F07EC01C
:1052200002F07FC003F080C004F093EC34F002BEC3
:1052300025EF29F0025007E10A0E015CD8B023EFF8
:1052400029F025EF29F035EF29F07DC001F07EC06F
:1052500002F07FC003F080C004F093EC34F001C092
:105260006BF002C06CF03AEF29F0000E00016C6F99
:10527000090E6B6F00016851D8A441EF29F043EF8C
:1052800029F06BEF29F061BF4AEF29F048EF29F0D0
:105290006BEF29F0000E8225D96E010E8321DA6EA4
:1052A0002E0EDF6E824B832B7107D8A07207010E82
:1052B000686F6BEF29F0000E8225D96E010E8321F5
:1052C000DA6E300EDF6E824B832B7107D8A0720727
:1052D0006407D8A0650764516511D8A472EF29F05E
:1052E00074EF29F05BEF29F0000E8225D96E010ED4
:1052F0008321DA6E6B51300FDF6E824B832B710787
:10530000D8A0720779C028F07AC029F07BC02AF0B3
:105310007CC02BF07DC013F07EC014F07FC015F070
:1053200080C016F088C00FF089C010F08AC011F05C
:105330008BC012F0A3EC2CF00FC02CF010C02DF09D
:1053400011C02EF012C02FF095EC39F028C079F082
:1053500029C07AF02AC07BF02BC07CF088C001F015
:1053600089C002F08AC003F08BC004F0000E056E05
:10537000000E066E200E076E410E086EC8EC2EF071
:1053800001C088F002C089F003C08AF004C08BF02D
:1053900000016007D8A06107774B782B6D51775DCE
:1053A0007851800A3A6E6E51800A3A58D8B0DBEFD5
:1053B00029F0DDEF29F0EBEF29F083BFE9EF29F0C9
:1053C000835109E14B0E825DD8A0E9EF29F0EBEFA4
:1053D00029F0E9EF28F0000E786F4F0E776F000E7E
:1053E0007725D96E010E7821DA6EDF6A000E3A6EEB
:1053F000010E3B6E82513A5E83513B5A77513A24FB
:10540000016E78513B20026E000E036E010E046E99
:1054100082C005F083C006F0F5EC38F0000182513F
:10542000775D826F83517859836F8151D8A41BEFC8
:105430002AF01EEF2AF0010E1FEF2AF0000E776F00
:10544000786B8151D8B427EF2AF029EF2AF035EF95
:105450002AF08207D8A08307000E8225D96E010E9C
:105460008321DA6E600007F2DFFF7751715F7851B8
:10547000725B34C00FF0000E8225106E010E832186
:10548000116E71C012F072C013F0D6EC37F012003A
:105490000450800B0D6E045004240F6E03AE53EFC6
:1054A0002AF055EF2AF056EF2AF00F800F50D8B4AB
:1054B0005CEF2AF05EEF2AF072EF2AF00F28D8A4F2
:1054C00064EF2AF066EF2AF06EEF2AF0000E016E0C
:1054D000000E026E000E036E000E046E038E046A50
:1054E0007AEF2AF0000E016E000E026E000E036EBF
:1054F000000E046E0850800B0E6E0D500E18D8B4BE
:1055000084EF2AF086EF2AF087EF2AF00D8C0850FE
:1055100008240E6E07AE8FEF2AF091EF2AF092EF7B
:105520002AF00E800E50D8B498EF2AF09AEF2AF0A5
:10553000AEEF2AF00E28D8A4A0EF2AF0A2EF2AF0AE
:10554000AAEF2AF0000E056E000E066E000E076E22
:10555000000E086E078E086AB6EF2AF0000E056E80
:10556000000E066E000E076E000E086E0F500E5CE9
:10557000D8B0BDEF2AF0BFEF2AF0E6EF2AF00DAC6D
:10558000C4EF2AF0C6EF2AF0C8EF2AF0800E0D1AF9
:105590000FC010F00EC00FF010C00EF001C010F0E0
:1055A00005C001F010C005F002C010F006C002F006
:1055B00010C006F003C010F007C003F010C007F0E1
:1055C00004C010F008C004F010C008F0106A0F50BA
:1055D0000EC009F00A6A095E000E0A5A0ABEFAEF06
:1055E0002AF00A5009E11A0E095CD8A0FAEF2AF055
:1055F000FCEF2AF033EF2BF00150021003100410DF
:10560000D8A405EF2BF008EF2BF0010E09EF2BF0DB
:10561000000E106E000E016E000E026E000E036E84
:10562000000E046E0EC00FF03CEF2BF010A01BEF2D
:105630002BF01DEF2BF023EF2BF0D8901030010949
:10564000106E25EF2BF0D890103201A02AEF2BF02E
:105650002CEF2BF02DEF2BF0108E0434043203329C
:10566000023201320F2A0E500F5CD8A03AEF2BF015
:105670003CEF2BF016EF2BF00DBC41EF2BF043EF7E
:105680002BF083EF2BF00F50D8A449EF2BF04BEF0A
:105690002BF055EF2BF0000E016E000E026E000E87
:1056A000036E000E046EA2EF2CF00550012606508A
:1056B0000222075003220850042204A062EF2BF0BC
:1056C00064EF2BF010EF2CF010A069EF2BF06BEFD4
:1056D0002BF071EF2BF0D89010300109106E73EFA2
:1056E0002BF0D890103201A078EF2BF07AEF2BF04E
:1056F0007BEF2BF0108E043404320332023201327D
:105700000F2A10EF2CF00550015C0650025807508C
:1057100003580450800A096E0850800A0958D8B00E
:1057200094EF2BF096EF2BF0C1EF2BF00150055CBE
:10573000096E025006580A6E035007580B6E04504B
:1057400008580C6EFF0E0924016EFF0E0A20026E2F
:10575000FF0E0B20036EFF0E0C20046E800E0D1A40
:10576000106C1050D8A4B7EF2BF0B9EF2BF0C9EFA5
:105770002BF0010E0126000E022203220422C9EFA3
:105780002BF00550015E0650025A0750035A08508C
:10579000045A0150021003100410D8A4D2EF2BF0C9
:1057A000D4EF2BF009EF2CF01050D8A4DAEF2BF047
:1057B000DCEF2BF009EF2CF0000E016E000E026EF4
:1057C000000E036E000E046EA2EF2CF0D89001368E
:1057D00002360336043610AEF0EF2BF0F2EF2BF06A
:1057E000F3EF2BF0018010A0F8EF2BF0FAEF2BF085
:1057F000FEEF2BF0D880103600EF2CF0D89010364A
:105800000F50D8B406EF2CF008EF2CF009EF2CF075
:105810000F0603AE0EEF2CF010EF2CF0E6EF2BF09E
:105820000E6A10AE16EF2CF018EF2CF030EF2CF0C3
:1058300010C009F07F0E0916D8B421EF2CF023EF29
:105840002CF027EF2CF0010E0E6E30EF2CF001A0A3
:105850002CEF2CF02EEF2CF030EF2CF023EF2CF06F
:105860000E50D8B436EF2CF038EF2CF063EF2CF05C
:10587000010E0126000E02220322042204A043EF9F
:105880002CF045EF2CF063EF2CF001C009F002C0C2
:105890000AF003C00BF004C00CF00C340C320B32D5
:1058A0000A32093209C001F00AC002F00BC003F04D
:1058B0000CC004F00F28D8B460EF2CF062EF2CF08D
:1058C00063EF2CF00F2A0F28D8B469EF2CF06BEFA0
:1058D0002CF073EF2CF00F50D8A471EF2CF073EF75
:1058E0002CF084EF2CF0000E016E000E026E000E04
:1058F000036E000E046E0F50D8A481EF2CF083EFDE
:105900002CF084EF2CF00D6A0FA089EF2CF08BEFB8
:105910002CF08EEF2CF0038E8FEF2CF0039ED8909E
:105920000F30046E0DAE97EF2CF099EF2CF09AEF3C
:105930002CF0048E01C001F002C002F003C003F09D
:1059400004C004F012001250800B1B6E125012247F
:10595000216E11AEAEEF2CF0B0EF2CF0B1EF2CF0C9
:1059600021802150D8B4B7EF2CF0B9EF2CF0CCEF58
:105970002CF02128D8A4BFEF2CF0C1EF2CF0C9EFF8
:105980002CF0000E0F6E000E106E000E116E000E49
:10599000126E118ED4EF2CF0000E0F6E000E106EF2
:1059A000000E116E000E126E1650800B1B1A165050
:1059B0001624206E15AEDFEF2CF0E1EF2CF0E2EFB5
:1059C0002CF020802050D8B4E8EF2CF0EAEF2CF037
:1059D000FDEF2CF02028D8A4F0EF2CF0F2EF2CF003
:1059E000FAEF2CF0000E136E000E146E000E156E02
:1059F000000E166E158E05EF2DF0000E136E000EC4
:105A0000146E000E156E000E166E2050D8B40BEFFB
:105A10002DF00DEF2DF015EF2DF02150D8A413EF40
:105A20002DF015EF2DF01FEF2DF0000E0F6E000E74
:105A3000106E000E116E000E126EC7EF2EF0155094
:105A40000F026F00CCFF26F06F00D0FF27F026502A
:105A50001C6E1D6A1E6A1F6A2750226E236A246A02
:105A6000256A145010026F00CCFF26F06F00D0FFA3
:105A700027F026501C26000E1D221E221F22275012
:105A80002226000E232224222522135011026F0009
:105A9000CCFF26F06F00D0FF27F026501C26000E0A
:105AA0001D221E221F2227502226000E23222422DE
:105AB00025221EC01FF01DC01EF01CC01DF01C6A58
:105AC000135010026F00CCFF26F06F00D0FF27F0BC
:105AD00026501C2627501D22000E1E22000E1F22BB
:105AE00014500F026F00CCFF26F06F00D0FF27F09C
:105AF00026501C2627501D22000E1E22000E1F229B
:105B00001EC01FF01DC01EF01CC01DF01C6A1350EB
:105B10000F026F00CCFF26F06F00D0FF27F0265059
:105B20001C2627501D22000E1E22000E1F2215507B
:105B300010026F00CCFF26F06F00D0FF27F0265038
:105B4000222627502322000E2422000E2522145044
:105B500011026F00CCFF26F06F00D0FF27F0265017
:105B6000222627502322000E2422000E2522155023
:105B700011026F00CCFF26F06F00D0FF27F02650F7
:105B8000176E2750186E196A1A6A19C01AF018C0D1
:105B900019F017C018F0176A175022261850232240
:105BA000195024221A5025221CC017F01DC018F0CD
:105BB0001EC019F01FC01AF0190EE4EF2DF0D89096
:105BC0001A32193218321732E82EDFEF2DF0175043
:105BD000222618502322195024221A5025221EC092
:105BE0001FF01DC01EF01CC01DF01C6A205021C0FB
:105BF00017F0186A1726000E1822820E1724266E38
:105C0000FF0E1820276E1AEF2EF0D890223623367A
:105C1000243625361FAE0FEF2EF011EF2EF012EFC7
:105C20002EF02280D8901C361D361E361F362606D2
:105C3000D8A0270624AE1FEF2EF021EF2EF005EF9F
:105C40002EF0206A1FAE27EF2EF029EF2EF04DEF39
:105C50002EF0FF0E1C14176EFF0E1D14186EFF0E93
:105C60001E14196E7F0E1F141A6E1750181019107B
:105C70001A10D8B43EEF2EF040EF2EF044EF2EF085
:105C8000010E206E4DEF2EF022A049EF2EF04BEFCB
:105C90002EF04DEF2EF040EF2EF02050D8B453EF01
:105CA0002EF055EF2EF079EF2EF0010E2226000E89
:105CB00023222422252225A060EF2EF062EF2EF071
:105CC00079EF2EF022C017F023C018F024C019F08D
:105CD00025C01AF01A341A3219321832173217C086
:105CE00022F018C023F019C024F01AC025F0264A6B
:105CF000272A27BE84EF2EF0275008E12628D8A0B7
:105D000084EF2EF086EF2EF090EF2EF0000E226E34
:105D1000000E236E800E246E7F0E256EBDEF2EF0DA
:105D200027BE9DEF2EF0275006E12604D8B09BEF4A
:105D30002EF09DEF2EF0A8EF2EF0000E226E000E3A
:105D4000236E000E246E000E256E1B6ABDEF2EF032
:105D500026C021F0FF0E2216FF0E23167F0E2416FA
:105D6000000E251621A0B7EF2EF0B9EF2EF0BAEFF6
:105D70002EF0248ED8902130256E1B50251222C083
:105D80000FF023C010F024C011F025C012F0120053
:105D90000450800B116E04500424186E03AED3EF30
:105DA0002EF0D5EF2EF0D6EF2EF018801850D8B484
:105DB000DCEF2EF0DEEF2EF0F2EF2EF01828D8A454
:105DC000E4EF2EF0E6EF2EF0EEEF2EF0000E016E77
:105DD000000E026E000E036E000E046E038E046A47
:105DE000FAEF2EF0000E016E000E026E000E036E32
:105DF000000E046E0850800B111A08500824196E0A
:105E000007AE05EF2FF007EF2FF008EF2FF0198006
:105E10001950D8B40EEF2FF010EF2FF024EF2FF021
:105E20001928D8A416EF2FF018EF2FF020EF2FF03D
:105E3000000E056E000E066E000E076E000E086E58
:105E4000078E086A2CEF2FF0000E056E000E066E0E
:105E5000000E076E000E086E0550061007100810A1
:105E6000D8A435EF2FF037EF2FF04FEF2FF0000EC3
:105E7000016E000E026E000E036E000E046E800EA8
:105E800003127F0E04121150041201C001F002C06F
:105E900002F003C003F004C004F08FEF30F018509C
:105EA000D8A455EF2FF057EF2FF061EF2FF0000E31
:105EB000016E000E026E000E036E000E046E8FEF78
:105EC00030F0195018C009F00A6A095E000E0A5A2B
:105ED0007F0E0924126E000E0A20136E01C00DF011
:105EE00002C00EF003C00FF004C010F0000E016EEF
:105EF000000E026E000E036E000E046E000E146E95
:105F0000000E156E000E166E000E176E196AC1EFA8
:105F10002FF01950D8B48FEF2FF091EF2FF0A8EF9A
:105F20002FF0D8900D360E360F361036D890013639
:105F300002360336043617AEA0EF2FF0A2EF2FF093
:105F4000A3EF2FF00180D890143615361636173689
:105F500005500D5C06500E5807500F580850105849
:105F6000D8A0B5EF2FF0B7EF2FF0C0EF2FF0178CC0
:105F700005500D5E06500E5A07500F5A0850105A21
:105F8000192A190E1964C7EF2FF0C9EF2FF089EF06
:105F90002FF00D500E100F101010D8B4D2EF2FF0BC
:105FA000D4EF2FF0ECEF2FF01480ECEF2FF0D8901F
:105FB000013602360336043617AEE1EF2FF0E3EF79
:105FC0002FF0E4EF2FF00180D890143615361636F6
:105FD00017361206D8A0130603AEF1EF2FF0F3EF39
:105FE0002FF0D7EF2FF0196A17AEF9EF2FF0FBEF74
:105FF0002FF01FEF30F0FF0E1414096EFF0E151472
:106000000A6EFF0E16140B6E7F0E17140C6E0950DD
:106010000A100B100C10D8B410EF30F012EF30F063
:1060200016EF30F0010E196E1FEF30F001A01BEFDC
:1060300030F01DEF30F01FEF30F012EF30F019505C
:10604000D8B425EF30F027EF30F04BEF30F0010EF1
:106050000126000E02220322042204A032EF30F0B7
:1060600034EF30F04BEF30F001C009F002C00AF01D
:1060700003C00BF004C00CF00C340C320B320A32AB
:10608000093209C001F00AC002F00BC003F00CC0D5
:1060900004F0124A132A13BE56EF30F0135008E1F1
:1060A0001228D8A056EF30F058EF30F063EF30F000
:1060B000000E136E1268000E016E000E026E000ECE
:1060C000036E000E046E13BE70EF30F0135006E145
:1060D0001204D8B06EEF30F070EF30F07DEF30F09A
:1060E000000E136E000E126E000E016E000E026E98
:1060F000000E036E000E046E116A12C018F018A094
:1061000084EF30F086EF30F089EF30F0038E8AEFC5
:1061100030F0039ED8901830046E43EF2FF0120039
:106120003D50D96EDA6A6F007FFFF6FF200EF76EE2
:10613000000EF86E0800F550250AD8A4A2EF30F042
:10614000A4EF30F0DEEF31F03D50D96EDA6ADF2A8D
:10615000000E0001A56F000EA46FA4C05EF0A6693A
:10616000A7693DC001F03EC002F078EC36F001C0F6
:10617000A4F002C0A5F00001A5BFC3EF30F0C1EF4D
:1061800030F0C8EF30F05E80A46DA51FD8B0A52B0D
:106190003D50D96EDA6A6F007FFFF6FF200EF76E72
:1061A000000EF86E0800F5502E0AD8A4DAEF30F091
:1061B000DCEF30F0EAEF30F03D50D96EDA6ADF2ADA
:1061C0003DC001F03EC002F078EC36F001C0A6F010
:1061D00002C0A7F03D50D96EDA6ADF50456E60000C
:1061E00017F1F6FF200EF76E000EF86E0800F5505E
:1061F000640AD8B4FEEF30F000EF31F011EF31F067
:10620000600017F1F6FF200EF76E000EF86E080022
:10621000F550690AD8A40FEF31F011EF31F02EEFED
:1062200031F03E50D96EDA6A020EDF26DF5CD96E9D
:10623000DA6A6F0078FF40F06F0078FF41F03D5060
:10624000D96EDA6A4528DF6E3CC017F040C018F0FE
:1062500041C019F0D6EC33F0F2EF31F03D50D96E79
:10626000DA6ADF50456E600017F1F6FF200EF76E18
:10627000000EF86E08006F00D4FF44F04AEF31F0D2
:10628000452A59EF31F06C0E446E59EF31F0446AF3
:1062900059EF31F044504C0AD8B440EF31F02A0A9B
:1062A000D8B443EF31F00A0AD8B440EF31F047EFE9
:1062B00031F0600017F1F6FF200EF76E000EF86E59
:1062C0000800F550660AD8A468EF31F06AEF31F0A3
:1062D000D8EF31F09EEF31F03E50D96EDA6A6F00A0
:1062E0007CFF3FF0040EDF263F50D96EDA6A6F0064
:1062F00078FF40F06F0078FF41F06F0078FF42F0C8
:106300006F0078FF43F0A9EF31F03E50D96EDA6AA2
:106310006F007CFF3FF0040EDF263F50D96EDA6A33
:106320006F0078FF40F06F0078FF41F06F0078FF5A
:1063300042F06F0078FF43F0A9EF31F044504C0A6F
:10634000D8B485EF31F0200AD8B46CEF31F0A9EF62
:1063500031F03D50D96EDA6A4528DF6EC9EF31F071
:106360003CC034F040C035F041C036F042C037F098
:1063700043C038F0600017F1F6FF200EF76E000EF4
:10638000F86E08006F00D4FF39F055EC25F0F2EFFD
:1063900031F0600017F1F6FF200EF76E000EF86E78
:1063A0000800F550660AD8B4B0EF31F0D8EF31F0FC
:1063B0003D50D96EDA6ADF2AF2EF31F03D50D96EE6
:1063C000DA6A6F007FFFF6FF200EF76E000EF86EA0
:1063D0000800F550016E026A3CC003F02BEC37F068
:1063E000D8EF31F0120094C02AF095C02BF096C07F
:1063F0002CF097C02DF01AC02AF01BC02BF01CC047
:106400002CF01DC02DF0810E1E6EFF0E1F6E2AC0D7
:1064100020F02BC021F02CC022F02DC023F0180E4C
:1064200017EF32F0D8902332223221322032E82E78
:1064300012EF32F020501E24286E000E1F20296E0D
:1064400029BE2CEF32F0295009E1170E285CD8A0A4
:106450002CEF32F02EEF32F038EF32F01AC01AF093
:106460001BC01BF01CC01CF01DC01DF0FBEF32F068
:1064700029BE3DEF32F03FEF32F0AFEF32F028C0EF
:106480001EF0FF0E1F6EFF0E206E7F0E216E000E9F
:10649000226E1E664EEF32F056EF32F02234223278
:1064A000213220321F321E2E49EF32F01FC024F05D
:1064B00020C025F021C026F022C027F024502A1445
:1064C0001E6E25502B141F6E26502C14206E275044
:1064D0002D14216E1E501F1020102110D8A473EF10
:1064E00032F075EF32F077EF32F02EEF32F02AC053
:1064F0001EF02BC01FF02CC020F02DC021F0200E6C
:1065000087EF32F0D890213220321F321E32E82E2F
:1065100082EF32F01E501F1020102110D8B493EFDC
:1065200032F095EF32F09DEF32F024502A262550BC
:106530002B2226502C2227502D22241C1E6E251C77
:106540001F6E261C206E271C216E1E502A161F50FF
:106550002B1620502C1621502D16F3EF32F02AC0A6
:106560001EF02BC01FF02CC020F02DC021F0200EFB
:10657000BFEF32F0D890213220321F321E32E82E87
:10658000BAEF32F01E501F1020102110D8A4CBEF0C
:1065900032F0CDEF32F0D7EF32F0000E2A6E000E5F
:1065A0002B6E000E2C6E000E2D6EF3EF32F0D89095
:1065B0002A341E6E2B341F6E2C34206E2D34216E27
:1065C0001E501F1020102110D8B4E9EF32F0EBEF6D
:1065D00032F0F3EF32F0000E2A6E000E2B6E800EBA
:1065E0002C6EBF0E2D6E2AC01AF02BC01BF02CC0D3
:1065F0001CF02DC01DF01200096E0950D8B403EF35
:1066000033F005EF33F027EF33F004BE0CEF33F037
:106610000AEF33F027EF33F001C005F002C006F0B7
:1066200003C007F004C008F0051E061E071E081E62
:10663000052A000E06220722082205C00BF006C01C
:106640000CF007C00DF008C00EF02FEF33F001C0C2
:106650000BF002C00CF003C00DF004C00EF00150AE
:10666000021003100410D8A438EF33F03AEF33F0DF
:1066700044EF33F0000E016E000E026E000E036E4A
:10668000000E046ED5EF33F0960E0A6E4EEF33F027
:106690000A2AD8900E320D320C320B32000E0B1437
:1066A000056E000E0C14066E000E0D14076EFE0E25
:1066B0000E14086E0550061007100810D8A463EFDA
:1066C00033F065EF33F048EF33F073EF33F00A2A1D
:1066D000010E0B26000E0C220D220E22D8900E3237
:1066E0000D320C320B32000E0B14056E000E0C1422
:1066F000066E000E0D14076EFF0E0E14086E055088
:10670000061007100810D8A488EF33F08AEF33F092
:1067100067EF33F092EF33F00A06D8900B360C3661
:106720000D360E360DBE97EF33F099EF33F0A1EF33
:1067300033F0020E0A609FEF33F0A1EF33F08CEFDD
:1067400033F00AB0A6EF33F0A8EF33F0A9EF33F03F
:106750000D9ED8900A320AC005F0066A076A086AD8
:1067600005C008F0076A066A056A05500B12065054
:106770000C1207500D1208500E120950D8B4C3EF76
:1067800033F0C5EF33F0CDEF33F004BECCEF33F090
:10679000CAEF33F0CDEF33F00E8E0BC001F00CC01A
:1067A00002F00DC003F00EC004F0120019BEDBEFC2
:1067B00033F0DEEF33F0010EDFEF33F0000E206E2A
:1067C0000001A7BFE8EF33F0E6EF33F0EEEF33F070
:1067D000000E1F6E010E1E6EF2EF33F0A6C01EF00B
:1067E000A7C01FF0A4C01CF0A5C01DF02050D8B455
:1067F000FCEF33F0FEEF33F015EF34F01C06D8A0B9
:106800001D062050D8A407EF34F009EF34F00FEF45
:1068100034F0000E1B6E2B0E1A6E13EF34F0000EC8
:106820001B6E2D0E1A6E1AC020F0000E226E4F0E37
:10683000216E01014F6B4DEF34F02106D8A02206E6
:10684000000E2124D96E010E2220DA6E18C001F04C
:1068500019C002F0000E046E0A0E036ED4EC36F07E
:1068600001C007F002C008F06CEC3AF00750300F9E
:10687000DF6E1E06D8A01F061C06D8A01D0618C075
:1068800001F019C002F0000E046E0A0E036E17EC40
:1068900036F001C018F002C019F022BE58EF34F0F3
:1068A000225008E12104D8A058EF34F05AEF34F018
:1068B00070EF34F018501910D8A461EF34F063EF82
:1068C00034F01DEF34F01FBE70EF34F01F5006E1BE
:1068D0001E04D8B06EEF34F070EF34F01DEF34F0DA
:1068E0002050D8B476EF34F078EF34F084EF34F001
:1068F0002106D8A02206000E2124D96E010E2220E6
:10690000DA6E600083F0DFFF17C00FF0000E212465
:10691000106E010E2220116E1CC012F01DC013F06B
:10692000D6EC37F01200033404340A6E0A50D8A4AF
:106930009CEF34F09EEF34F0A8EF34F0000E016EBF
:10694000000E026E000E036E000E046E15EF35F0A1
:1069500001C005F002C006F003C007F004C008F053
:10696000200EB8EF34F0D8900832073206320532E4
:10697000E82EB3EF34F00550096E038EFF0E0116BA
:10698000FF0E0216FF0E0316000E0416960E0A5E88
:106990000ABECFEF34F0CDEF34F0E5EF34F00A501B
:1069A000800A970FD8B0D7EF34F0D9EF34F0DBEF8F
:1069B00034F09EEF34F0D8900432033202320132C8
:1069C0000A3EDBEF34F0FDEF34F01F0E0A64EBEF0C
:1069D00034F0EDEF34F0F5EF34F09EEF34F0D89072
:1069E00001360236033604360A060A50D8A4FBEFF5
:1069F00034F0FDEF34F0EFEF34F00950D8B403EF8A
:106A000035F005EF35F00DEF35F0041E031E021EC4
:106A1000016C000E02220322042201C001F002C018
:106A200002F003C003F004C004F01200000E2814AA
:106A3000306E000E2914316E800E2A14326E7F0ED5
:106A40002B14336E3050311032103310D8A42BEF8A
:106A500035F02DEF35F035EF35F0000E286E000ED5
:106A6000296E000E2A6E000E2B6E000E2C14306E56
:106A7000000E2D14316E800E2E14326E7F0E2F14E8
:106A8000336E3050311032103310D8A44AEF35F045
:106A90004CEF35F054EF35F0000E2C6E000E2D6EDD
:106AA000000E2E6E000E2F6E2BAE59EF35F05BEF01
:106AB00035F064EF35F0286C291ED8B0292A2A1E3B
:106AC000D8B02A2A800E2B562FAE69EF35F06BEF27
:106AD00035F074EF35F02C6C2D1ED8B02D2A2E1EFB
:106AE000D8B02E2A800E2F56000E281A000E291A12
:106AF000000E2A1A800E2B1A000E2C1A000E2D1AC8
:106B0000000E2E1A800E2F1A2C50285C2D5029585A
:106B10002E502A582F502B58D8B091EF35F093EFC4
:106B200035F096EF35F0D89097EF35F0D880120019
:106B300098C00BF099C00CF09AC00DF09BC00EF0FD
:106B400001C00BF002C00CF003C00DF004C00EF049
:106B50000BC005F00CC006F00DC007F00EC008F029
:106B6000180EB8EF35F0D8900832073206320532E9
:106B7000E82EB3EF35F00550096E0A6A09500A1085
:106B8000D8A4C5EF35F0C7EF35F0E7EF35F0D89072
:106B90000B34056E0C34066E0D34076E0E34086E21
:106BA0000550061007100810D8A4D9EF35F0DBEF18
:106BB00035F0E1EF35F0000E026E020E016E16EFB9
:106BC00036F0000E026E030E016E16EF36F0092845
:106BD0000A10D8A4EEEF35F0F0EF35F012EF36F0F2
:106BE0000BC005F00CC006F00DC007F00EC008F099
:106BF000090ED8900536063607360836E82EF9EF26
:106C000035F00550061007100810D8B40AEF36F01A
:106C10000DEF36F0010E0EEF36F0000E016E026A37
:106C200016EF36F0000E026E040E016E1200066AB8
:106C300004BE1FEF36F01DEF36F025EF36F0036C83
:106C4000041ED8B0042A010E066E02BE2CEF36F0E8
:106C50002AEF36F032EF36F0016C021ED8B0022A6D
:106C6000010E061A000E086E000E076E0350041087
:106C7000D8B43DEF36F03FEF36F067EF36F0010E57
:106C8000056E47EF36F0D89003360436052A04AE79
:106C90004CEF36F04EEF36F043EF36F0D890073633
:106CA00008360350015C04500258D8A05AEF36F061
:106CB0005CEF36F061EF36F00350015E0450025A8B
:106CC0000780D89004320332052E4EEF36F006507E
:106CD000D8B46DEF36F06FEF36F073EF36F0076C27
:106CE000081ED8B0082A07C001F008C002F0120040
:106CF000000E076E000E066E0150D96EDA6A6F0044
:106D00007FFFF6FF200EF76E000EF86E0800F550BC
:106D10002A0AD8A48EEF36F090EF36F0B9EF36F0AD
:106D20000150D96EDA6ADF2A0250D96EDA6A020E91
:106D3000DF26DF5CD96EDA6A6F0078FF06F06F003D
:106D400078FF07F0CFEF36F00A0E06026F00CCFF97
:106D500003F06F00D0FF04F00702F3500426055043
:106D60000324066E000E0420076E0150D96EDA6A05
:106D7000DF2A0150D96EDA6A6F007FFFF6FF200E1E
:106D8000F76E000EF86E0800F550D00F056E090E74
:106D90000564CDEF36F0CFEF36F0A4EF36F006C045
:106DA00001F007C002F01200066A02BEDCEF36F006
:106DB000DAEF36F0E2EF36F0016C021ED8B0022AAC
:106DC000010E066E04BEE9EF36F0E7EF36F0EDEFA8
:106DD00036F0036C041ED8B0042A03500410D8B453
:106DE000F4EF36F0F6EF36F01AEF37F0010E056EDD
:106DF000FEEF36F0D89003360436052A04AE03EFD2
:106E000037F005EF37F0FAEF36F00350015C04502D
:106E10000258D8A00EEF37F010EF37F014EF37F02C
:106E20000350015E0450025AD89004320332052EFA
:106E300005EF37F00650D8B420EF37F022EF37F0E7
:106E400026EF37F0016C021ED8B0022A01C001F013
:106E500002C002F012000350D8B431EF37F033EF24
:106E600037F03BEF37F00350D8A439EF37F03BEF62
:106E700037F040EF37F00150D1EC3AF080EF37F0C7
:106E80000350D96EDA6A090ED926DE50DE10D8B466
:106E90004CEF37F04EEF37F067EF37F00350D96E15
:106EA000DA6A090ED9260350E16EE26A020EE12683
:106EB000DE50E65CE650800A086EDE50800A085814
:106EC000D8B065EF37F067EF37F080EF37F0035059
:106ED000D96EDA6A020ED926DF50046E0350D96EDD
:106EE000DA6ADF500424D96EDA6A600007F0DFFF47
:106EF0000350D96EDA6A020ED926DE2A000EDD2290
:106F00001200000E0F14176E000E1014186E800E73
:106F10001114196E7F0E12141A6E175018101910D2
:106F20001A10D8A496EF37F098EF37F0A0EF37F0AB
:106F3000000E0F6E000E106E000E116E000E126E1F
:106F4000000E1314176E000E1414186E800E151414
:106F5000196E7F0E16141A6E1750181019101A1089
:106F6000D8A4B5EF37F0B7EF37F0BFEF37F0000E2A
:106F7000136E000E146E000E156E000E166E13507A
:106F80000F180FE1145010180CE11550111809E1F9
:106F900016501218D8B4CFEF37F0D1EF37F0D4EF46
:106FA00037F0D890D5EF37F0D88012005EA0DBEF35
:106FB00037F0DDEF37F0E5EF37F010C009F011C022
:106FC0000AF00FC00BF0DAEC39F013BEECEF37F03B
:106FD000EAEF37F0F0EF37F0000E136E000E126E8E
:106FE000000E166E000E156E00EF38F0000E026EE9
:106FF000200E016E0FC003F02BEC37F0154A162A55
:107000001250155C1650800A146E1350800A1458E2
:10701000D8A00DEF38F00FEF38F0F6EF37F05EB094
:1070200014EF38F016EF38F01EEF38F010C009F00A
:1070300011C00AF00FC00BF0DAEC39F012003AEF91
:1070400038F0600023F0F6FF600027F0F7FF000E35
:10705000F86E1F0EF76403D00800F55007D06F00DC
:10706000DBFFE1FF6F00DFFFE2FFE750AFEC3AF03C
:10707000084A092A600023F0F6FF600027F0F7FFB6
:10708000000EF86E1F0EF76403D00800F55007D00D
:107090006F00DBFFE1FF6F00DFFFE2FFE750000959
:1070A000D8A455EF38F057EF38F021EF38F0120040
:1070B000B6C001F0B7C002F0B8C003F0B9C004F028
:1070C0002D0E056E7F0E066E950E076E4C0E086E29
:1070D0008FEC38F0010E01240001B66F000E022083
:1070E000B76F000E0320B86F000E0420B96FB6C052
:1070F0000FF0B7C010F0B8C011F0B9C012F0120E06
:1071000087EF38F0D8901232113210320F32E82E59
:1071100082EF38F00FC00DF010C00EF01200000E1C
:10712000096E000E0A6E000E0B6E000E0C6E01A0B2
:107130009CEF38F09EEF38F0A6EF38F005500926A6
:1071400006500A2207500B2208500C22D890053610
:10715000063607360836D89004320332023201323E
:107160000150021003100410D8A4B9EF38F0BBEF9F
:1071700038F097EF38F009C001F00AC002F00BC0F8
:1071800003F00CC004F01200000E046E000E036E3B
:10719000CCEF38F0034A042A01500324D96EDA6A8E
:1071A000DF50D8A4D6EF38F0D8EF38F0CAEF38F077
:1071B000DDEF38F0034A042A022A60000BF0F6FFE4
:1071C000200EF76E000EF86E01500324D96EDA6AB5
:1071D00008006F00D7FFDFFFDF50D8A4F2EF38F0D0
:1071E000F4EF38F0DAEF38F0120003C009F004C011
:1071F0000AF001C007F002C008F014EF39F0600097
:1072000027F0D9FF60002BF0DAFFDF500B6E094A40
:107210000A2A60001FF0D9FF600023F0DAFF600047
:107220002FF0DFFF074A082A0506D8A00606052822
:1072300006E10628D8A41FEF39F021EF39F0FFEF5F
:1072400038F0120004BE27EF39F029EF39F033EFA0
:1072500039F001C001F002C002F003C003F004C025
:1072600004F04CEF39F001C005F002C006F003C095
:1072700007F004C008F0051E061E071E081E052A9A
:10728000000E06220722082205C001F006C002F007
:1072900007C003F008C004F01200000E046E000ED8
:1072A000036E66EF39F0000E066E000E056E054A9D
:1072B000062A065009E1A50E055CD8A062EF39F058
:1072C00064EF39F057EF39F0034A042A0150035CA8
:1072D00002500458D8A06FEF39F071EF39F053EF36
:1072E00039F0120001C005F002C006F0032A0304C1
:1072F000046E600013F0F6FF200EF76E000EF86EBD
:10730000600017F0D9FF60001BF0DAFF054A062A7B
:1073100008006F00D7FFDFFFDF50D8A492EF39F0ED
:1073200094EF39F076EF39F01200000E2C1A000EAF
:107330002D1A000E2E1A800E2F1A28C001F029C017
:1073400002F02AC003F02BC004F02CC005F02DC0C1
:1073500006F02EC007F02FC008F048EC2AF001C05C
:1073600028F002C029F003C02AF004C02BF012005C
:1073700047C049F0C4EF39F046C03CF0490E3D6EBD
:1073800048C03EF090EC30F0600027F1F6FF200E90
:10739000F76E000EF86E0800F5500009D8A4D3EF80
:1073A00039F0D5EF39F0BCEF39F0000E476E000E22
:1073B000466E1200000E0E6E000E0D6EE9EF39F0F3
:1073C0000CC001F0026A0BC003F02BEC37F00D4A41
:1073D0000E2A0D500924D96E0E500A20DA6EDF50A5
:1073E0000C6E0C50D8A4F7EF39F0F9EF39F0E0EF5C
:1073F00039F012000D6E020E0D6001EF3AF003EF4E
:107400003AF00CEF3AF00A500F0B80090E6E0E5056
:10741000BEEC3AF013EF3AF00A500F0BC0090E6EB3
:107420000E50BEEC3AF00BC008F00CC009F01FEC97
:1074300038F012000150021003100410D8B423EFEA
:107440003AF025EF3AF02DEF3AF0000E011A000E57
:10745000021A000E031A800E041A01C001F002C0C5
:1074600002F003C003F004C004F012008E0E4A6E56
:107470008CC04BF0000E4E6E000E4D6E000E556E21
:10748000000E546E4B0E466E8DC047F04A0E486E8D
:10749000B8EC39F000018C514D24D96EDA6ADF6AFC
:1074A0001200000E026E0F0E016E4DEC39F0C36A31
:1074B000C00EC56EC6683A01706B506B806B010ED2
:1074C000BEEC3AF0380EBEEC3AF00C0EBEEC3AF0E0
:1074D000060EBEEC3AF0120008BE71EF3AF073EF00
:1074E0003AF079EF3AF007C007F008C008F085EFEE
:1074F0003AF007C009F008C00AF0091E0A1E094A3E
:107500000A2A09C007F00AC008F0120000EE00F1D4
:10751000500EEE6AE806FDE100EE94F0260EEE6AEB
:10752000E806FDE100EE56F0090EEE6AE806FDE120
:10753000000160EF10F03E01F851F30B0409F86F01
:10754000F889C2803A0140813E01F16BFF6BF06B1C
:10755000EF6BF66BF76BF36BF46BF88F1200076E43
:1075600060001FF0BBFFBD88BD8A0000BD9A000E01
:10757000026E010E016E4DEC39F01200076E6000D4
:107580001FF0BBFFBD98BD8A0000BD9A000E026EC1
:10759000030E016E4DEC39F01200010EBEEC3AF014
:0475A00012001200C3
:020000040001F9
:04FFFC0086EF3AF062
:020000040030CA
:0A000000F8FFFFFF9FFFFFFFFFFF67
:00000001FF
