:10002000000EC56E0F0E206EFB0E216EF00E2164C9
:1000300044EF00F0216C010E2026200E216223EFF8
:1000400000F029EF00F021603BEF00F0216432EF77
:1000500000F0000E226E60008BF0CDFF010E205EDE
:1000600065EF00F0010E226E60008BF0CDFF010EF7
:10007000205E65EF00F0020E226E60008BF0CDFF77
:10008000010E205E65EF00F00F0E21624AEF00F0D6
:1000900050EF00F021605EEF00F0216457EF00F0B8
:1000A000000E226E60008BF0CDFF65EF00F0010EB8
:1000B000226E60008BF0CDFF65EF00F0020E226E25
:1000C00060008BF0CDFF65EF00F0640E21C023F0DF
:1000D000236071EF00F00A0E236079EF00F081EFEA
:1000E00000F0722B640E235E236479EF00F071EF51
:1000F00000F0712B0A0E235E236481EF00F079EF8C
:1001000000F00A0E236289EF00F0235E712B23C0FA
:1001100070F023C070F0640E20C024F0246097EFCC
:1001200000F00A0E24609FEF00F0A7EF00F0622BB2
:10013000640E245E24649FEF00F097EF00F0612BC3
:100140000A0E245E2464A7EF00F09FEF00F00A0E71
:100150002462AFEF00F0245E612B24C060F024C065
:0201600060F04D
:020000040030CA
:0A000000F8FFFFFF9FFFFFFFFFFF67
:00000001FF
