:0400000057EF20F0A6
:1020000000204C5558202020202020202020202057
:1020100020200054686520496E707574204C6967F3
:1020200068743A00252E326600696E66006E616E35
:022030000000AE
:10400800A819A819A819A819A819A819A819A819A0
:10401800A819A819A819A819A819A819A819A81990
:10402800A819A819A819A819A819A819A819A81980
:10403800A819A819A819A819A819A819A819A81970
:10404800A819A819A819A8192B10A819A819A819E6
:10405800A819A819A819A819A819A819A819A81950
:10406800A819A819A819A819A819A819A819A81940
:10407800A819A8192B10A819A819A8192B102B10C2
:104088002B102B102B102B102B102B10A819A81944
:10409800A819A819A819A8192B102B102B102B1028
:1040A800A819A819FF004BEF35F00001816B39C042
:1040B80082F03AC083F03BC084F03CC085F085BFF5
:1040C8006AEF20F068EF20F07EEF20F0010E816F9C
:1040D80082C005F083C006F084C007F085C008F0F0
:1040E8002FEC35F005C082F006C083F007C084F0DD
:1040F80008C085F0000E0001876F000E866FB0C003
:1041080071F0B1C072F08151D8B48DEF20F08FEF0B
:1041180020F0A3EF20F08151D8A495EF20F097EF7D
:1041280020F09DEF20F0000E676F2B0E666FA1EF59
:1041380020F0000E676F2D0E666F66C081F082C09A
:1041480005F083C006F084C007F085C008F091EC44
:1041580031F005040610D8A4B4EF20F0B6EF20F033
:10416800E5EF20F000018151D8B4BDEF20F0BFEF9A
:1041780020F0C8EF20F081C000F17107D8A07207C5
:10418800000E876F010E866F000E8625056E010EE4
:104198008721066E290E076E8DEC34F00001FD0EA6
:1041A8007127FF0E722338C013F0000E146E010E33
:1041B800156E71C016F072C017F088EC33F04BEF33
:1041C80025F082C005F083C006F084C007F085C0E2
:1041D80008F091EC31F005500610D8A4F6EF20F065
:1041E800F8EF20F016EF21F000018151D8B4FFEF6D
:1041F80020F001EF21F00AEF21F081C000F17107F2
:10420800D8A07207000E876F010E866F000E8625F4
:10421800056E010E8721066E2D0E076E8DEC34F0AB
:10422800D2EF20F0000E0001886F000E896F800E1B
:104238008A6F3F0E8B6F000E706F000E6F6F82C01B
:1042480005F083C006F084C007F085C008F0000EB2
:10425800096E000E0A6E000E0B6E000E0C6EC2EC9C
:1042680032F0D8B03AEF21F03CEF21F01BEF22F00A
:1042780049EF21F073C088F074C089F075C08AF0E6
:1042880076C08BF000016F4B702B88C013F089C08B
:1042980014F08AC015F08BC016F0000E176E000ED1
:1042A800186E200E196E410E1A6EA7EC27F013C077
:1042B80073F014C074F015C075F016C076F00001E4
:1042C8007351825D056E74518359066E7551845918
:1042D800076E76518559086E19EC34F008BE80EFE8
:1042E80021F008500710061009E1020E055CD8A05D
:1042F80080EF21F082EF21F03EEF21F073C02CF027
:1043080074C02DF075C02EF076C02FF082C030F04A
:1043180083C031F084C032F085C033F00FEC31F047
:10432800D8A099EF21F09BEF21F03EEF21F000019A
:104338008851825D056E89518359066E8A51845968
:10434800076E8B518559086E19EC34F008BEBAEF28
:1043580021F008500710061007E1020E055CD8B0DE
:10436800B8EF21F0BAEF21F002EF22F088C082F016
:1043780089C083F08AC084F08BC085F01BEF22F0DF
:1043880088C005F089C006F08AC007F08BC008F025
:10439800000E096E000E0A6E200E0B6E410E0C6E9A
:1043A800D7EC2BF005C088F006C089F007C08AF06A
:1043B80008C08BF000016F07D8A070078851825D94
:1043C800056E89518359066E8A518459076E8B513F
:1043D8008559086E19EC34F008BE00EF22F0085039
:1043E8000710061007E1020E055CD8B0FEEF21F0B9
:1043F80000EF22F002EF22F0BAEF21F082C02CF099
:1044080083C02DF084C02EF085C02FF088C030F016
:1044180089C031F08AC032F08BC033F00FEC31F034
:10442800D8A019EF22F01BEF22F0C4EF21F03DC015
:1044380069F069C06AF00001B3BF25EF22F027EFE9
:1044480022F02DEF22F0B2C062F0B3C063F031EF7A
:1044580022F0000E636F060E626F62C06DF063C0DB
:104468006EF06D4B6E2B660E6A19D8A43EEF22F0E3
:1044780040EF22F060EF22F070BF47EF22F045EFE7
:1044880022F053EF22F0000E886F000E896F800E25
:104498008A6F3F0E8B6F000E706F000E6F6F670E86
:1044A8006919D8B45AEF22F05CEF22F060EF22F0DD
:1044B8006F516D2770516E23000E786F000E776F65
:1044C80082C079F083C07AF084C07BF085C07CF02C
:1044D80088C073F089C074F08AC075F08BC076F01C
:1044E800F1EF22F079C005F07AC006F07BC007F042
:1044F8007CC008F088C009F089C00AF08AC00BF0B7
:104508008BC00CF0D7EC2BF005C01EF006C01FF0D6
:1045180007C020F008C021F0A9EC2EF01EC07DF0E5
:104528001FC07EF020C07FF021C080F07DC005F064
:104538007EC006F07FC007F080C008F08CEC30F039
:1045480005C06BF006C06CF079C02CF07AC02DF075
:104558007BC02EF07CC02FF07DC017F07EC018F015
:104568007FC019F080C01AF088C013F089C014F019
:104578008AC015F08BC016F0A7EC27F013C030F0F6
:1045880014C031F015C032F016C033F0B0EC34F07E
:104598002CC079F02DC07AF02EC07BF02FC07CF0B3
:1045A80088C005F089C006F08AC007F08BC008F003
:1045B800000E096E000E0A6E200E0B6E410E0C6E78
:1045C800D7EC2BF005C088F006C089F007C08AF048
:1045D80008C08BF00001774B782B6D51775D7851CF
:1045E800800A3E6E6E51800A3E58D8A0FEEF22F037
:1045F80000EF23F076EF22F088C013F089C014F0A2
:104608008AC015F08BC016F0000E176E000E186EDB
:10461800A00E196E400E1A6EA7EC27F013C07DF09D
:1046280014C07EF015C07FF016C080F079C02CF061
:104638007AC02DF07BC02EF07CC02FF07DC030F00A
:104648007EC031F07FC032F080C033F00FEC31F023
:10465800D8B031EF23F033EF23F03EEF23F0000E14
:1046680000017D6F000E7E6F000E7F6F000E806F61
:1046780067EF23F079C005F07AC006F07BC007F039
:104688007CC008F07DC009F07EC00AF07FC00BF046
:1046980080C00CF0C2EC32F0D8A055EF23F057EFF1
:1046A80023F067EF23F000016BB15DEF23F05FEFBC
:1046B80023F067EF23F0000E7D6F000E7E6F000E73
:1046C8007F6F000E806F82C005F083C006F084C043
:1046D80007F085C008F07DC009F07EC00AF07FC0F1
:1046E8000BF080C00CF04CEC25F005C079F006C04A
:1046F8007AF007C07BF008C07CF079C02CF07AC053
:104708002DF07BC02EF07CC02FF0000E176E000E2F
:10471800186E200E196E410E1A6E73C013F074C015
:1047280014F075C015F076C016F0A7EC27F013C08A
:1047380030F014C031F015C032F016C033F00FEC71
:1047480031F0D8A0AAEF23F0ACEF23F0D5EF23F097
:1047580000016F4B702B73C013F074C014F075C058
:1047680015F076C016F0000E176E000E186E200EAB
:10477800196E410E1A6EA7EC27F013C073F014C01F
:1047880074F015C075F016C076F0660E00016A194F
:10479800D8A4D1EF23F0D3EF23F0D5EF23F06D4B5E
:1047A8006E2B73C088F074C089F075C08AF076C02B
:1047B8008BF06FC060F070C061F00001686B000E94
:1047C800656F000E646F000E786F000E776FD2EF82
:1047D80024F079C005F07AC006F07BC007F07CC0F1
:1047E80008F088C009F089C00AF08AC00BF08BC0B5
:1047F8000CF0D7EC2BF005C01EF006C01FF007C068
:1048080020F008C021F0A9EC2EF01EC07DF01FC0DA
:104818007EF020C07FF021C080F07DC005F07EC012
:1048280006F07FC007F080C008F08CEC30F006BEC0
:1048380029EF24F0065007E10A0E055CD8B027EFEF
:1048480024F029EF24F039EF24F07DC005F07EC074
:1048580006F07FC007F080C008F08CEC30F005C08F
:104868006BF006C06CF03EEF24F0000E00016C6F98
:10487800090E6B6F00016851D8A445EF24F047EF8B
:1048880024F06FEF24F061BF4EEF24F04CEF24F0DA
:104898006FEF24F0000E8625D96E010E8721DA6E9F
:1048A8002E0EDF6E864B872B7107D8A07207010E7C
:1048B800686F6FEF24F0000E8625D96E010E8721F0
:1048C800DA6E300EDF6E864B872B7107D8A0720721
:1048D8006407D8A0650764516511D8A476EF24F061
:1048E80078EF24F05FEF24F0000E8625D96E010ED4
:1048F8008721DA6E6B51300FDF6E864B872B71077D
:10490800D8A0720779C02CF07AC02DF07BC02EF0A9
:104918007CC02FF07DC017F07EC018F07FC019F062
:1049280080C01AF088C013F089C014F08AC015F04E
:104938008BC016F0A7EC27F013C030F014C031F08C
:1049480015C032F016C033F0B0EC34F02CC079F05A
:104958002DC07AF02EC07BF02FC07CF088C005F007
:1049680089C006F08AC007F08BC008F0000E096EF7
:10497800000E0A6E200E0B6E410E0C6ED7EC2BF05B
:1049880005C088F006C089F007C08AF008C08BF01F
:1049980000016007D8A06107774B782B6D51775DD0
:1049A8007851800A3E6E6E51800A3E58D8B0DFEFCB
:1049B80024F0E1EF24F0EFEF24F087BFEDEF24F0CF
:1049C800875109E14B0E865DD8A0EDEF24F0EFEF9B
:1049D80024F0EDEF23F0000E786F4F0E776F000E86
:1049E8007725D96E010E7821DA6EDF6A000E3E6EE9
:1049F800010E3F6E86513E5E87513F5A77513E24E5
:104A0800056E78513F20066E000E076E010E086E87
:104A180086C009F087C00AF0ECEC33F0000186513B
:104A2800775D866F87517859876F8151D8A41FEFBA
:104A380025F022EF25F0010E23EF25F0000E776F09
:104A4800786B8151D8B42BEF25F02DEF25F039EF95
:104A580025F08607D8A08707000E8625D96E010E97
:104A68008721DA6E600007F2DFFF7751715F7851B6
:104A7800725B38C013F0000E8625146E010E872174
:104A8800156E71C016F072C017F088EC33F0120082
:104A98000850800B116E08500824136E07AE57EFAC
:104AA80025F059EF25F05AEF25F013801350D8B4AC
:104AB80060EF25F062EF25F076EF25F01328D8A4F3
:104AC80068EF25F06AEF25F072EF25F0000E056E0D
:104AD800000E066E000E076E000E086E078E086A3E
:104AE8007EEF25F0000E056E000E066E000E076EB6
:104AF800000E086E0C50800B126E11501218D8B4AC
:104B080088EF25F08AEF25F08BEF25F0118C0C50FB
:104B18000C24126E0BAE93EF25F095EF25F096EF6F
:104B280025F012801250D8B49CEF25F09EEF25F0A6
:104B3800B2EF25F01228D8A4A4EF25F0A6EF25F0AF
:104B4800AEEF25F0000E096E000E0A6E000E0B6E19
:104B5800000E0C6E0B8E0C6ABAEF25F0000E096E73
:104B6800000E0A6E000E0B6E000E0C6E1350125CD7
:104B7800D8B0C1EF25F0C3EF25F0EAEF25F011AC6E
:104B8800C8EF25F0CAEF25F0CCEF25F0800E111AFA
:104B980013C014F012C013F014C012F005C014F0C2
:104BA80009C005F014C009F006C014F00AC006F0E8
:104BB80014C00AF007C014F00BC007F014C00BF0C3
:104BC80008C014F00CC008F014C00CF0146A13509C
:104BD80012C00DF00E6A0D5E000E0E5A0EBEFEEFEC
:104BE80025F00E5009E11A0E0D5CD8A0FEEF25F055
:104BF80000EF26F037EF26F00550061007100810D2
:104C0800D8A409EF26F00CEF26F0010E0DEF26F0E0
:104C1800000E146E000E056E000E066E000E076E76
:104C2800000E086E12C013F040EF26F014A01FEF1C
:104C380026F021EF26F027EF26F0D890143001094E
:104C4800146E29EF26F0D890143205A02EEF26F026
:104C580030EF26F031EF26F0148E08340832073290
:104C680006320532132A1250135CD8A03EEF26F004
:104C780040EF26F01AEF26F011BC45EF26F047EF7B
:104C880026F087EF26F01350D8A44DEF26F04FEF0B
:104C980026F059EF26F0000E056E000E066E000E87
:104CA800076E000E086EA6EF27F0095005260A5079
:104CB80006220B5007220C50082208A066EF26F0A7
:104CC80068EF26F014EF27F014A06DEF26F06FEFD1
:104CD80026F075EF26F0D89014300109146E77EF9E
:104CE80026F0D890143205A07CEF26F07EEF26F04F
:104CF8007FEF26F0148E0834083207320632053268
:104D0800132A14EF27F00950055C0A5006580B5077
:104D180007580850800A0D6E0C50800A0D58D8B0FC
:104D280098EF26F09AEF26F0C5EF26F00550095CBB
:104D38000D6E06500A580E6E07500B580F6E08502D
:104D48000C58106EFF0E0D24056EFF0E0E20066E19
:104D5800FF0E0F20076EFF0E1020086E800E111A2E
:104D6800146C1450D8A4BBEF26F0BDEF26F0CDEF9D
:104D780026F0010E0526000E062207220822CDEF96
:104D880026F00950055E0A50065A0B50075A0C5077
:104D9800085A0550061007100810D8A4D6EF26F0B8
:104DA800D8EF26F00DEF27F01450D8A4DEEF26F048
:104DB800E0EF26F00DEF27F0000E056E000E066EF0
:104DC800000E076E000E086EA6EF27F0D890053685
:104DD80006360736083614AEF4EF26F0F6EF26F05E
:104DE800F7EF26F0058014A0FCEF26F0FEEF26F082
:104DF80002EF27F0D880143604EF27F0D890143645
:104E08001350D8B40AEF27F00CEF27F00DEF27F076
:104E1800130607AE12EF27F014EF27F0EAEF26F09B
:104E2800126A14AE1AEF27F01CEF27F034EF27F0C0
:104E380014C00DF07F0E0D16D8B425EF27F027EF1C
:104E480027F02BEF27F0010E126E34EF27F005A0A4
:104E580030EF27F032EF27F034EF27F027EF27F075
:104E68001250D8B43AEF27F03CEF27F067EF27F05D
:104E7800010E0526000E06220722082208A047EF89
:104E880027F049EF27F067EF27F005C00DF006C0BF
:104E98000EF007C00FF008C010F0103410320F32B7
:104EA8000E320D320DC005F00EC006F00FC007F02F
:104EB80010C008F01328D8B464EF27F066EF27F085
:104EC80067EF27F0132A1328D8B46DEF27F06FEF98
:104ED80027F077EF27F01350D8A475EF27F077EF76
:104EE80027F088EF27F0000E056E000E066E000E04
:104EF800076E000E086E1350D8A485EF27F087EFD1
:104F080027F088EF27F0116A13A08DEF27F08FEFB5
:104F180027F092EF27F0078E93EF27F0079ED8909F
:104F28001330086E11AE9BEF27F09DEF27F09EEF30
:104F380027F0088E05C005F006C006F007C007F088
:104F480008C008F012001650800B1F6E1650162469
:104F5800256E15AEB2EF27F0B4EF27F0B5EF27F0C6
:104F680025802550D8B4BBEF27F0BDEF27F0D0EF50
:104F780027F02528D8A4C3EF27F0C5EF27F0CDEFF9
:104F880027F0000E136E000E146E000E156E000E44
:104F9800166E158ED8EF27F0000E136E000E146EE5
:104FA800000E156E000E166E1A50800B1F1A1A503E
:104FB8001A24206E19AEE3EF27F0E5EF27F0E6EFAD
:104FC80027F020802050D8B4ECEF27F0EEEF27F040
:104FD80001EF28F02028D8A4F4EF27F0F6EF27F007
:104FE800FEEF27F0000E176E000E186E000E196EF9
:104FF800000E1A6E198E09EF28F0000E176E000EBB
:10500800186E000E196E000E1A6E2050D8B40FEFED
:1050180028F011EF28F019EF28F02550D8A417EF41
:1050280028F019EF28F023EF28F0000E136E000E79
:10503800146E000E156E000E166ECBEF29F0195087
:1050480013026F00CCFF2AF06F00D0FF2BF02A501C
:10505800216E226A236A246A2B50266E276A286AE0
:10506800296A185014026F00CCFF2AF06F00D0FF95
:105078002BF02A502126000E2222232224222B50F4
:105088002626000E272228222922175015026F00F3
:10509800CCFF2AF06F00D0FF2BF02A502126000EFB
:1050A8002222232224222B502626000E27222822C1
:1050B800292223C024F022C023F021C022F0216A33
:1050C800175014026F00CCFF2AF06F00D0FF2BF0AE
:1050D8002A5021262B502222000E2322000E2422A1
:1050E800185013026F00CCFF2AF06F00D0FF2BF08E
:1050F8002A5021262B502222000E2322000E242281
:1051080023C024F022C023F021C022F0216A1750C6
:1051180013026F00CCFF2AF06F00D0FF2BF02A504B
:1051280021262B502222000E2322000E2422195061
:1051380014026F00CCFF2AF06F00D0FF2BF02A502A
:1051480026262B502722000E2822000E292218502E
:1051580015026F00CCFF2AF06F00D0FF2BF02A5009
:1051680026262B502722000E2822000E292219500D
:1051780015026F00CCFF2AF06F00D0FF2BF02A50E9
:105188001B6E2B501C6E1D6A1E6A1DC01EF01CC0B3
:105198001DF01BC01CF01B6A1B5026261C50272222
:1051A8001D5028221E50292221C01BF022C01CF0AD
:1051B80023C01DF024C01EF0190EE8EF28F0D89087
:1051C8001E321D321C321B32E82EE3EF28F01B5032
:1051D80026261C5027221D5028221E50292223C073
:1051E80024F022C023F021C022F0216A205025C0DB
:1051F8001BF01C6A1B26000E1C22820E1B242A6E22
:10520800FF0E1C202B6E1EEF29F0D890263627366D
:105218002836293624AE13EF29F015EF29F016EFBA
:1052280029F02680D89021362236233624362A06BD
:10523800D8A02B0628AE23EF29F025EF29F009EF97
:1052480029F0206A24AE2BEF29F02DEF29F051EF39
:1052580029F0FF0E21141B6EFF0E22141C6EFF0E88
:1052680023141D6E7F0E24141E6E1B501C101D105F
:105278001E10D8B442EF29F044EF29F048EF29F086
:10528800010E206E51EF29F026A04DEF29F04FEFC7
:1052980029F051EF29F044EF29F02050D8B457EF06
:1052A80029F059EF29F07DEF29F0010E2626000E8E
:1052B80027222822292229A064EF29F066EF29F065
:1052C8007DEF29F026C01BF027C01CF028C01DF078
:1052D80029C01EF01E341E321D321C321B321BC068
:1052E80026F01CC027F01DC028F01EC029F02A4A4D
:1052F8002B2A2BBE88EF29F02B5008E12A28D8A0AA
:1053080088EF29F08AEF29F094EF29F0000E266E35
:10531800000E276E800E286E7F0E296EC1EF29F0D1
:105328002BBEA1EF29F02B5006E12A04D8B09FEF3D
:1053380029F0A1EF29F0ACEF29F0000E266E000E3F
:10534800276E000E286E000E296E1F6AC1EF29F025
:105358002AC025F0FF0E2616FF0E27167F0E2816E8
:10536800000E291625A0BBEF29F0BDEF29F0BEEFEE
:1053780029F0288ED8902530296E1F50291226C072
:1053880013F027C014F028C015F029C016F0120039
:10539800ADEC35F066EC35F07BEC35F03E01F8818C
:1053A800F8B1D9EF29F0DBEF29F0D4EF29F0EF516C
:1053B8006F00C0FB48F0496A48C049F0486A481085
:1053C800526E4950536E52C005F053C006F0000E9D
:1053D80006BEFF0E076E086E010EB2EC2FF005C078
:1053E80013F006C014F007C015F008C016F0330E0D
:1053F800176E330E186E530E196E3A0E1A6EA7EC0E
:1054080027F013C04EF014C04FF015C050F016C06E
:1054180051F04EC02CF04FC02DF050C02EF051C0AE
:105428002FF0000E306E000E316E800E326E3F0E81
:10543800336E0FEC31F0D8B024EF2AF026EF2AF0C3
:1054480040EF2AF04EC013F04FC014F050C015F0D2
:1054580051C016F0000E176E000E186E200E196E51
:10546800410E1A6EA7EC27F013C04AF014C04BF097
:1054780015C04CF016C04DF0000E2C6E000E2D6EAF
:10548800800E2E6E3F0E2F6E4EC030F04FC031F0A2
:1054980050C032F051C033F00FEC31F0D8B057EFB4
:1054A8002AF059EF2AF073EF2AF04EC013F04FC0DC
:1054B80014F050C015F051C016F0000E176E000E13
:1054C800186EA00E196E410E1A6EA7EC27F013C0C5
:1054D8004AF014C04BF015C04CF016C04DF0000E49
:1054E8002C6E000E2D6EC00E2E6E3F0E2F6E4EC00F
:1054F80030F04FC031F050C032F051C033F00FECF3
:1055080031F0D8B08AEF2AF08CEF2AF0A6EF2AF013
:105518004EC013F04FC014F050C015F051C016F033
:10552800000E176E000E186EF00E196E410E1A6EF0
:10553800A7EC27F013C04AF014C04BF015C04CF08C
:1055480016C04DF0000E2C6E000E2D6EE00E2E6E65
:105558003F0E2F6E4EC030F04FC031F050C032F0C9
:1055680051C033F00FEC31F0D8B0BDEF2AF0BFEFE7
:105578002AF0D9EF2AF04EC013F04FC014F050C0F3
:1055880015F051C016F0000E176E000E186E200EA2
:10559800196E420E1A6EA7EC27F013C04AF014C019
:1055A8004BF015C04CF016C04DF0000E2C6E000EDE
:1055B8002D6E000E2E6E400E2F6E4EC030F04FC076
:1055C80031F050C032F051C033F00FEC31F0D8B0A8
:1055D800F0EF2AF0F2EF2AF00CEF2BF04EC013F0A8
:1055E8004FC014F050C015F051C016F0000E176EE1
:1055F800000E186EA00E196E420E1A6EA7EC27F058
:1056080013C04AF014C04BF015C04CF016C04DF052
:10561800000E2C6E000E2D6E200E2E6E400E2F6E7C
:105628004EC030F04FC031F050C032F051C033F0AE
:105638000FEC31F0D8B023EF2BF025EF2BF03FEF34
:105648002BF04EC013F04FC014F050C015F051C0ED
:1056580016F0000E176E000E186E160E196E430E19
:105668001A6EA7EC27F013C04AF014C04BF015C00F
:105678004CF016C04DF0000E2C6E000E2D6E300E44
:105688002E6E400E2F6E4EC030F04FC031F050C01D
:1056980032F051C033F00FEC31F0D8B056EF2BF0A8
:1056A80058EF2BF072EF2BF04EC013F04FC014F0F0
:1056B80050C015F051C016F0000E176E000E186E8F
:1056C800480E196E430E1A6EA7EC27F013C04AF065
:1056D80014C04BF015C04CF016C04DF0000E2C6EE7
:1056E800000E2D6E400E2E6E400E2F6E4EC030F006
:1056F8004FC031F050C032F051C033F00FEC31F0F0
:10570800D8B089EF2BF08BEF2BF0A5EF2BF04EC024
:1057180013F04FC014F050C015F051C016F0000E31
:10572800176E000E186E960E196E430E1A6EA7ECC1
:1057380027F013C04AF014C04BF015C04CF016C047
:105748004DF0B40E0001926F240E936F4AC094F08E
:105758004BC095F04CC096F04DC097F013EC35F067
:10576800B40E056E010E066EBBEC33F0000E0E6E25
:10577800130E0F6E0F50D8A4200E106E010EF3EC0E
:1057880034F0040E0E6EB40E0F6E106A020EF3ECB7
:1057980034F0000E066E640E056E44EC34F0D2EF61
:1057A80029F057EF20F00850800B156E0850082498
:1057B8001C6E07AEE2EF2BF0E4EF2BF0E5EF2BF0D9
:1057C8001C801C50D8B4EBEF2BF0EDEF2BF001EF61
:1057D8002CF01C28D8A4F3EF2BF0F5EF2BF0FDEFFD
:1057E8002BF0000E056E000E066E000E076E000E02
:1057F800086E078E086A09EF2CF0000E056E000E81
:10580800066E000E076E000E086E0C50800B151AFF
:105818000C500C241D6E0BAE14EF2CF016EF2CF070
:1058280017EF2CF01D801D50D8B41DEF2CF01FEF82
:105838002CF033EF2CF01D28D8A425EF2CF027EFFF
:105848002CF02FEF2CF0000E096E000E0A6E000EE1
:105858000B6E000E0C6E0B8E0C6A3BEF2CF0000EDC
:10586800096E000E0A6E000E0B6E000E0C6E0950CB
:105878000A100B100C10D8A444EF2CF046EF2CF0B3
:105888005EEF2CF0000E056E000E066E000E076E21
:10589800000E086E800E07127F0E081215500812AF
:1058A80005C005F006C006F007C007F008C008F0FC
:1058B8009EEF2DF01C50D8A464EF2CF066EF2CF06E
:1058C80070EF2CF0000E056E000E066E000E076ECF
:1058D800000E086E9EEF2DF01D501CC00DF00E6AD4
:1058E8000D5E000E0E5A7F0E0D24166E000E0E2051
:1058F800176E05C011F006C012F007C013F008C0FB
:1059080014F0000E056E000E066E000E076E000EF7
:10591800086E000E186E000E196E000E1A6E000E3C
:105928001B6E1D6AD0EF2CF01D50D8B49EEF2CF0E2
:10593800A0EF2CF0B7EF2CF0D890113612361336B2
:105948001436D89005360636073608361BAEAFEF44
:105958002CF0B1EF2CF0B2EF2CF00580D89018366F
:1059680019361A361B360950115C0A5012580B505A
:1059780013580C501458D8A0C4EF2CF0C6EF2CF0D4
:10598800CFEF2CF01B8C0950115E0A50125A0B50A5
:10599800135A0C50145A1D2A190E1D64D6EF2CF0F8
:1059A800D8EF2CF098EF2CF011501210131014109F
:1059B800D8B4E1EF2CF0E3EF2CF0FBEF2CF01880DB
:1059C800FBEF2CF0D89005360636073608361BAEA6
:1059D800F0EF2CF0F2EF2CF0F3EF2CF00580D890DC
:1059E800183619361A361B361606D8A0170607AE0B
:1059F80000EF2DF002EF2DF0E6EF2CF01D6A1BAE44
:105A080008EF2DF00AEF2DF02EEF2DF0FF0E1814F1
:105A18000D6EFF0E19140E6EFF0E1A140F6E7F0E08
:105A28001B14106E0D500E100F101010D8B41FEF6D
:105A38002DF021EF2DF025EF2DF0010E1D6E2EEF2C
:105A48002DF005A02AEF2DF02CEF2DF02EEF2DF0E4
:105A580021EF2DF01D50D8B434EF2DF036EF2DF096
:105A68005AEF2DF0010E0526000E06220722082205
:105A780008A041EF2DF043EF2DF05AEF2DF005C0AF
:105A88000DF006C00EF007C00FF008C010F010347B
:105A980010320F320E320D320DC005F00EC006F076
:105AA8000FC007F010C008F0164A172A17BE65EF96
:105AB8002DF0175008E11628D8A065EF2DF067EFF4
:105AC8002DF072EF2DF0000E176E1668000E056EA1
:105AD800000E066E000E076E000E086E17BE7FEFF2
:105AE8002DF0175006E11604D8B07DEF2DF07FEFAA
:105AF8002DF08CEF2DF0000E176E000E166E000EB6
:105B0800056E000E066E000E076E000E086E156A12
:105B180016C01CF01CA093EF2DF095EF2DF098EF18
:105B28002DF0078E99EF2DF0079ED8901C30086E47
:105B380052EF2CF0120000018D51D96EDA6A6F0015
:105B48007FFFF6FF200EF76E000EF86E0800F55086
:105B5800250AD8A4B2EF2DF0B4EF2DF094EF2EF073
:105B68008D51D96EDA6ADF2A000EB16F000EB06F60
:105B7800B0C054F0B269B3698D51D96EDA6A6F005A
:105B88007FFFF6FF200EF76E000EF86E0800F55046
:105B98002E0AD8A4D2EF2DF0D4EF2DF0E2EF2DF09D
:105BA8008D51D96EDA6ADF2A8DC005F08EC006F0F5
:105BB80010EC32F005C0B2F006C0B3F000018D5110
:105BC800D96EDA6ADF50466E60001BF1F6FF200ED0
:105BD800F76E000EF86E08006F00D4FF45F0FFEF77
:105BE8002DF0462A0EEF2EF06C0E456E0EEF2EF0BD
:105BF800456A0EEF2EF045504C0AD8B4F5EF2DF05B
:105C08002A0AD8B4F8EF2DF00A0AD8B4F5EF2DF027
:105C1800FCEF2DF060001BF1F6FF200EF76E000E72
:105C2800F86E0800F550660AD8A41DEF2EF01FEF95
:105C38002EF08DEF2EF053EF2EF08E51D96EDA6ADA
:105C48006F007CFF40F0040EDF264050D96EDA6A00
:105C58006F0078FF41F06F0078FF42F06F0078FF27
:105C680043F06F0078FF44F05EEF2EF08E51D96E4E
:105C7800DA6A6F007CFF40F0040EDF264050D96ED0
:105C8800DA6A6F0078FF41F06F0078FF42F06F002A
:105C980078FF43F06F0078FF44F05EEF2EF0455038
:105CA8004C0AD8B43AEF2EF0200AD8B421EF2EF0DF
:105CB8005EEF2EF08D51D96EDA6A4628DF6E7EEFE0
:105CC8002EF08CC038F041C039F042C03AF043C0E1
:105CD8003BF044C03CF060001BF1F6FF200EF76E6D
:105CE800000EF86E08006F00D4FF3DF059EC20F06C
:105CF800A8EF2EF060001BF1F6FF200EF76E000EE5
:105D0800F86E0800F550660AD8B465EF2EF08DEFEE
:105D18002EF000018D51D96EDA6ADF2AA8EF2EF035
:105D28008D51D96EDA6A6F007FFFF6FF200EF76E8D
:105D3800000EF86E0800F550056E066A8CC007F074
:105D48006CEC32F08DEF2EF01200A4C02EF0A5C03E
:105D58002FF0A6C030F0A7C031F01EC02EF01FC033
:105D68002FF020C030F021C031F0810E226EFF0EDE
:105D7800236E2EC024F02FC025F030C026F031C08D
:105D880027F0180ECDEF2EF0D89027322632253284
:105D98002432E82EC8EF2EF0245022242C6E000E58
:105DA80023202D6E2DBEE2EF2EF02D5009E1170EA7
:105DB8002C5CD8A0E2EF2EF0E4EF2EF0EEEF2EF000
:105DC8001EC01EF01FC01FF020C020F021C021F00F
:105DD800B1EF2FF02DBEF3EF2EF0F5EF2EF065EFBB
:105DE8002FF02CC022F0FF0E236EFF0E246E7F0EC4
:105DF800256E000E266E226604EF2FF00CEF2FF0B2
:105E080026342632253224322332222EFFEF2EF07A
:105E180023C028F024C029F025C02AF026C02BF082
:105E280028502E14226E29502F14236E2A50301415
:105E3800246E2B503114256E225023102410251067
:105E4800D8A429EF2FF02BEF2FF02DEF2FF0E4EF50
:105E58002EF02EC022F02FC023F030C024F031C025
:105E680025F0200E3DEF2FF0D89025322432233232
:105E78002232E82E38EF2FF022502310241025105C
:105E8800D8B449EF2FF04BEF2FF053EF2FF02850F5
:105E98002E2629502F222A5030222B503122281CFE
:105EA800226E291C236E2A1C246E2B1C256E225060
:105EB8002E1623502F162450301625503116A9EFD0
:105EC8002FF02EC022F02FC023F030C024F031C0B4
:105ED80025F0200E75EF2FF0D8902532243223328A
:105EE8002232E82E70EF2FF02250231024102510B4
:105EF800D8A481EF2FF083EF2FF08DEF2FF0000E55
:105F08002E6E000E2F6E000E306E000E316EA9EF51
:105F18002FF0D8902E34226E2F34236E3034246E16
:105F28003134256E2250231024102510D8B49FEF49
:105F38002FF0A1EF2FF0A9EF2FF0000E2E6E000E1C
:105F48002F6E800E306EBF0E316E2EC01EF02FC029
:105F58001FF030C020F031C021F012000D6E0D503E
:105F6800D8B4B9EF2FF0BBEF2FF0DDEF2FF008BE5C
:105F7800C2EF2FF0C0EF2FF0DDEF2FF005C009F0D2
:105F880006C00AF007C00BF008C00CF0091E0A1E74
:105F98000B1E0C1E092A000E0A220B220C2209C015
:105FA8000FF00AC010F00BC011F00CC012F0E5EFB2
:105FB8002FF005C00FF006C010F007C011F008C0A0
:105FC80012F00550061007100810D8A4EEEF2FF0B5
:105FD800F0EF2FF0FAEF2FF0000E056E000E066EB0
:105FE800000E076E000E086E8BEF30F0960E0E6EE8
:105FF80004EF30F00E2AD8901232113210320F32DC
:10600800000E0F14096E000E10140A6E000E111403
:106018000B6EFE0E12140C6E09500A100B100C10A9
:10602800D8A419EF30F01BEF30F0FEEF2FF029EF76
:1060380030F00E2A010E0F26000E10221122122215
:10604800D8901232113210320F32000E0F14096E2E
:10605800000E10140A6E000E11140B6EFF0E1214AF
:106068000C6E09500A100B100C10D8A43EEF30F03B
:1060780040EF30F01DEF30F048EF30F00E06D890CA
:106088000F3610361136123611BE4DEF30F04FEF85
:1060980030F057EF30F0020E0E6055EF30F057EF4A
:1060A80030F042EF30F00EB05CEF30F05EEF30F0E1
:1060B8005FEF30F0119ED8900E320EC009F00A6AD8
:1060C8000B6A0C6A09C00CF00B6A0A6A096A095063
:1060D8000F120A5010120B5011120C5012120D50C0
:1060E800D8B479EF30F07BEF30F083EF30F008BEB2
:1060F80082EF30F080EF30F083EF30F0128E0FC077
:1061080005F010C006F011C007F012C008F0120028
:10611800073408340E6E0E50D8A495EF30F097EF80
:1061280030F0A1EF30F0000E056E000E066E000E86
:10613800076E000E086E0EEF31F005C009F006C0BC
:106148000AF007C00BF008C00CF0200EB1EF30F0D9
:10615800D8900C320B320A320932E82EACEF30F00C
:1061680009500D6E078EFF0E0516FF0E0616FF0E60
:106178000716000E0816960E0E5E0EBEC8EF30F01B
:10618800C6EF30F0DEEF30F00E50800A970FD8B02F
:10619800D0EF30F0D2EF30F0D4EF30F097EF30F0AE
:1061A800D89008320732063205320E3ED4EF30F06E
:1061B800F6EF30F01F0E0E64E4EF30F0E6EF30F04B
:1061C800EEEF30F097EF30F0D89005360636073608
:1061D80008360E060E50D8A4F4EF30F0F6EF30F083
:1061E800E8EF30F00D50D8B4FCEF30F0FEEF30F0AF
:1061F80006EF31F0081E071E061E056C000E06226B
:106208000722082205C005F006C006F007C007F0FF
:1062180008C008F01200000E2C14346E000E2D1465
:10622800356E800E2E14366E7F0E2F14376E345056
:10623800351036103710D8A424EF31F026EF31F09E
:106248002EEF31F0000E2C6E000E2D6E000E2E6E0D
:10625800000E2F6E000E3014346E000E3114356EA1
:10626800800E3214366E7F0E3314376E345035106C
:1062780036103710D8A443EF31F045EF31F04DEF29
:1062880031F0000E306E000E316E000E326E000ED0
:10629800336E2FAE52EF31F054EF31F05DEF31F045
:1062A8002C6C2D1ED8B02D2A2E1ED8B02E2A800E6A
:1062B8002F5633AE62EF31F064EF31F06DEF31F00D
:1062C800306C311ED8B0312A321ED8B0322A800E36
:1062D8003356000E2C1A000E2D1A000E2E1A800EA0
:1062E8002F1A000E301A000E311A000E321A800EC4
:1062F800331A30502C5C31502D5832502E583350B0
:106308002F58D8B08AEF31F08CEF31F08FEF31F0A1
:10631800D89090EF31F0D8801200A8C00FF0A9C033
:1063280010F0AAC011F0ABC012F005C00FF006C003
:1063380010F007C011F008C012F00FC009F010C02B
:106348000AF011C00BF012C00CF0180EB1EF31F0CA
:10635800D8900C320B320A320932E82EACEF31F009
:1063680009500D6E0E6A0D500E10D8A4BEEF31F014
:10637800C0EF31F0E0EF31F0D8900F34096E1034EF
:106388000A6E11340B6E12340C6E09500A100B1081
:106398000C10D8A4D2EF31F0D4EF31F0DAEF31F0AD
:1063A800000E066E020E056E0FEF32F0000E066E3E
:1063B800030E056E0FEF32F00D280E10D8A4E7EF8C
:1063C80031F0E9EF31F00BEF32F00FC009F010C0F7
:1063D8000AF011C00BF012C00CF0090ED890093663
:1063E8000A360B360C36E82EF2EF31F009500A1057
:1063F8000B100C10D8B403EF32F006EF32F0010E98
:1064080007EF32F0000E056E066A0FEF32F0000E4D
:10641800066E040E056E1200000E0B6E000E0A6E5C
:106428000550D96EDA6A6F007FFFF6FF200EF76E0F
:10643800000EF86E0800F5502A0AD8A426EF32F0AC
:1064480028EF32F051EF32F00550D96EDA6ADF2AC0
:106458000650D96EDA6A020EDF26DF5CD96EDA6A78
:106468006F0078FF0AF06F0078FF0BF067EF32F0EB
:106478000A0E0A026F00CCFF07F06F00D0FF08F089
:106488000B02F3500826095007240A6E000E082054
:106498000B6E0550D96EDA6ADF2A0550D96EDA6AB2
:1064A8006F007FFFF6FF200EF76E000EF86E0800F3
:1064B800F550D00F096E090E096465EF32F067EFE9
:1064C80032F03CEF32F00AC005F00BC006F01200C3
:1064D8000750D8B472EF32F074EF32F07CEF32F03C
:1064E8000750D8A47AEF32F07CEF32F081EF32F027
:1064F8000550BAEC35F0C1EF32F00750D96EDA6AC0
:10650800090ED926DE50DE10D8B48DEF32F08FEFA9
:1065180032F0A8EF32F00750D96EDA6A090ED926A0
:106528000750E16EE26A020EE126DE50E65CE650B4
:10653800800A0C6EDE50800A0C58D8B0A6EF32F0F4
:10654800A8EF32F0C1EF32F00750D96EDA6A020EC6
:10655800D926DF50086E0750D96EDA6ADF50082452
:10656800D96EDA6A600017F0DFFF0750D96EDA6A71
:10657800020ED926DE2A000EDD221200000E0514B6
:106588000D6E000E06140E6E800E07140F6E7F0E31
:106598000814106E0D500E100F101010D8A4D7EF5D
:1065A80032F0D9EF32F0E1EF32F0000E056E000E56
:1065B800066E000E076E000E086E000E09140D6EB2
:1065C800000E0A140E6E800E0B140F6E7F0E0C1444
:1065D800106E0D500E100F101010D8A4F6EF32F0F8
:1065E800F8EF32F000EF33F0000E096E000E0A6E7D
:1065F800000E0B6E000E0C6E095005180FE10A50C4
:1066080006180CE10B50071809E10C500818D8B40B
:1066180010EF33F012EF33F015EF33F0D89016EF98
:1066280033F0D880120032EF33F0600033F0F6FF19
:10663800600037F0F7FF000EF86E1F0EF76403D006
:106648000800F55007D06F00DBFFE1FF6F00DFFFA8
:10665800E2FFE7508FEC35F00C4A0D2A600033F06A
:10666800F6FF600037F0F7FF000EF86E1F0EF764B4
:1066780003D00800F55007D06F00DBFFE1FF6F0083
:10668800DFFFE2FFE7500009D8A44DEF33F04FEFEA
:1066980033F019EF33F012003A0167A556EF33F0E3
:1066A80058EF33F087EF33F0000E046E000E036EE0
:1066B800CD96030E026E8A0E016E560EE82EFED798
:1066C800012EFCD7022EFAD7CD86030E026E8A0E53
:1066D800016E560EE82EFED7012EFCD7022EFAD7F1
:1066E800034A042A04BE82EF33F0045009E10A0E7B
:1066F800035CD8A082EF33F084EF33F05CEF33F023
:106708003A016795CD96110017BE8FEF33F08DEFE4
:1067180033F093EF33F0000E176E000E166E000E76
:106728001A6E000E196EA3EF33F0000E066E200EDF
:10673800056E13C007F06CEC32F0194A1A2A16508D
:10674800195C1A50800A186E1750800A1858D8A079
:10675800B0EF33F0B2EF33F099EF33F014C00DF02F
:1067680015C00EF013C00FF0D3EC34F01200000E79
:10677800086E000E076EC3EF33F0074A082A05506B
:106788000724D96EDA6ADF50D8A4CDEF33F0CFEF03
:1067980033F0C1EF33F0D4EF33F0074A082A062A62
:1067A80060001BF0F6FF200EF76E000EF86E055025
:1067B8000724D96EDA6A08006F00D7FFDFFFDF50C1
:1067C800D8A4E9EF33F0EBEF33F0D1EF33F0120058
:1067D80007C00EF008C00FF005C00CF006C00DF0A1
:1067E8000BEF34F060003BF0D9FF60003FF0DAFFB8
:1067F800DF500B6E0E4A0F2A600033F0D9FF60009D
:1068080037F0DAFF60002FF0DFFF0C4A0D2A090687
:10681800D8A00A06092806E10A28D8A416EF34F0F9
:1068280018EF34F0F6EF33F0120008BE1EEF34F024
:1068380020EF34F02AEF34F005C005F006C006F06A
:1068480007C007F008C008F043EF34F005C009F0AE
:1068580006C00AF007C00BF008C00CF0091E0A1E9B
:106868000B1E0C1E092A000E0A220B220C2209C03C
:1068780005F00AC006F00BC007F00CC008F01200C3
:10688800000E086E000E076E5DEF34F0000E0A6E03
:10689800000E096E094A0A2A0A5009E1A50E095C88
:1068A800D8A059EF34F05BEF34F04EEF34F0074ADC
:1068B800082A0550075C06500858D8A066EF34F03F
:1068C80068EF34F04AEF34F0120090C047F076EFEA
:1068D80034F08FC08CF0470E00018D6F91C08EF0A0
:1068E8009FEC2DF060001FF1F6FF200EF76E000EF2
:1068F800F86E0800F5500009D8A485EF34F087EF4A
:1069080034F06DEF34F0000E0001906F000E8F6FC1
:10691800120005C009F006C00AF0072A0704086E2D
:10692800600023F0F6FF200EF76E000EF86E600090
:1069380027F0D9FF60002BF0DAFF094A0A2A08007D
:106948006F00D7FFDFFFDF50D8A4ADEF34F0AFEF13
:1069580034F091EF34F01200000E301A000E311AA4
:10696800000E321A800E331A2CC005F02DC006F026
:106978002EC007F02FC008F030C009F031C00AF06F
:1069880032C00BF033C00CF04CEC25F005C02CF0F5
:1069980006C02DF007C02EF008C02FF01200000E20
:1069A800126E000E116EE2EF34F010C005F0066AA8
:1069B8000FC007F06CEC32F0114A122A11500D2466
:1069C800D96E12500E20DA6EDF50106E1050D8A417
:1069D800F0EF34F0F2EF34F0D9EF34F01200116E2A
:1069E800020E1160FAEF34F0FCEF34F005EF35F0E9
:1069F8000E500F0B8009126E12509EEC35F00CEF02
:106A080035F00E500F0BC009126E12509EEC35F087
:106A18000FC00CF010C00DF017EC33F01200940EFC
:106A28000001986F92C099F0000E9C6F000E9B6F4A
:106A3800000EA36F000EA26F990E8F6F93C090F097
:106A4800980E916F69EC34F0000192519B25D96E34
:106A5800DA6ADF6A12000550061007100810D8B469
:106A680038EF35F03AEF35F042EF35F0000E051A01
:106A7800000E061A000E071A800E081A05C005F047
:106A880006C006F007C007F008C008F0120000EEC4
:106A980000F1500EEE6AE806FDE100EEA4F01A0ED1
:106AA800EE6AE806FDE100EE4AF00B0EEE6AE80633
:106AB800FDE1080ED56E400ED66E000ED76E0001B1
:106AC800CCEF29F0000E066E0F0E056E44EC34F084
:106AD800C36AC56A010E9EEC35F0380E9EEC35F09F
:106AE8000C0E9EEC35F0060E9EEC35F012003E01C1
:106AF800F851F30B0409F86FF889C2803A01408114
:106B08003E01F16BFF6BF06BEF6BF66BF76BF36BA2
:106B1800F46BF88F12000B6E60002FF0BBFFBD8086
:106B2800BD820000BD92000E066E010E056E44EC9B
:106B380034F012000B6E60002FF0BBFFBD90BD82D9
:106B48000000BD92000E066E030E056E44EC34F094
:106B58001200C4843A016095669565856795390188
:0E6B6800A09F908FD28CD28ED28A1200120083
:020000040030CA
:0A000000F8FFFFFF9FFFFFFFFFFF67
:00000001FF
