:0400000057EF20F0A6
:022000000000DE
:104008002B102B102B102B102B102B102B102B10D0
:1040180088102B102B102B102B102B102B102B1063
:104028002B102B102B102B102B102B102B102B10B0
:104038002B102B102B102B102B102B102B102B10A0
:104048002B102B102B102B102B102B102B102B1090
:104058002B102B102B102B102B102B102B102B1080
:104068002B102B102B102B102B102B102B102B1070
:104078002B102B102B102B102B102B102B102B1060
:104088002B102B102B102B102B102B102B102B1050
:104098002B102B102B102B102B102B102B102B1040
:1040A8002B102B10FF0091EF21F00C6E136A010EFC
:1040B800116E0B0E0B6EB80E0A6E000E0E6E000E11
:1040C8000D6EB0EF20F00C04D8B46DEF20F06FEF58
:1040D80020F07EEF20F0CBB474EF20F078EF20F0E2
:1040E800096A092A79EF20F0096A09500F6E106AE7
:1040F8008BEF20F0CBB283EF20F087EF20F0096A36
:10410800092A88EF20F0096A09500F6E106A0FC05B
:1041180012F01250D8A493EF20F095EF20F0A4EFFE
:1041280020F01104D8A49BEF20F09DEF20F0A4EF1D
:1041380020F0132A010E066E2C0E056E6BEC21F092
:1041480012C011F0000E066E320E056E6BEC21F0F7
:10415800320E0D26000E0E220A500D5C0B500E5822
:10416800D8B0B9EF20F0BBEF20F0C3EF20F0030E7A
:104178001364C1EF20F0C3EF20F067EF20F0135075
:1041880012009AEC21F083EC21F0010E59EC20F09A
:10419800156E1550A3EC21F0050E066EDC0E056EAB
:1041A8006BEC21F0DCEF20F0020E59EC20F0166EDB
:1041B800CBA6E1EF20F0E3EF20F0D8EF20F0165087
:1041C800A3EC21F0050E066EDC0E056E6BEC21F0FB
:1041D8001638F00B1510146E230E1418D8A4F7EF28
:1041E80020F0F9EF20F009EF21F0CB8C030E066EDA
:1041F800E80E056E6BEC21F0CB9C030E066EE80E04
:10420800056E6BEC21F0C9EF20F048EC21F0C9EF06
:0642180020F057EF20F03A
:104220003901A1A116EF21F018EF21F047EF21F09D
:10423000000E046E000E036ECB9A020E026E450E47
:10424000016EAA0EE82EFED7012EFCD7022EFAD759
:10425000CB8A020E026E450E016EAA0EE82EFED724
:10426000012EFCD7022EFAD7034A042A04BE42EFDD
:1042700021F0045009E10A0E035CD8A042EF21F0BE
:1042800044EF21F01CEF21F03901A191CB9A1100EC
:10429000000E0A6E000E096ECB8A010E066EF40E39
:1042A000056E6BEC21F0CB9A000E066E640E056E67
:1042B0006BEC21F0094A0A2A0ABE68EF21F00A5085
:1042C00009E1050E095CD8A068EF21F06AEF21F042
:1042D0004CEF21F01200000E086E000E076E77EF13
:1042E00021F0C80E00D0E82EFDD7074A082A055055
:1042F000075C06500858D8A080EF21F082EF21F02B
:1043000071EF21F01200D28AD28ED28CD280390184
:1043100081819181A191D76A400ED66E080ED56E2B
:104320001200080ED56E400ED66E000ED76E00013C
:10433000C5EF20F03A01706BC56ACD6A506B0F0E65
:10434000C36ECB6A1200056E600017F0CDFF12003D
:020000040030CA
:0A000000F8FFFFFF9FFFFFFFFFFF67
:00000001FF
