:0400000057EF20F0A6
:07200000003F065B4F660084
:104008002B102B102B102B102B102B102B102B10D0
:1040180074102B102B102B102B102B102B102B1077
:104028002B102B102B102B102B102B102B102B10B0
:104038002B102B102B102B102B102B102B102B10A0
:104048002B102B102B102B102B102B102B102B1090
:104058002B102B102B102B102B102B102B102B1080
:104068002B102B102B102B102B102B102B102B1070
:104078002B102B102B102B102B102B102B102B1060
:104088002B102B102B102B102B102B102B102B1050
:104098002B102B102B102B102B102B102B102B1040
:1040A8002B102B10FF006EEF21F00D6E106A0E6AB8
:1040B80090EF20F00DC00BF06F002CFF0CF00B2AD6
:1040C80068EF20F0D8900C320B2E66EF20F00C50E1
:1040D800010B0F6E0F04D8A474EF20F076EF20F0D8
:1040E8008EEF20F00E50D8A47CEF20F07EEF20F069
:1040F8008EEF20F0102A10505BEC21F0020E0C6EAF
:10410800860E0B6E990EE82EFED70B2EFCD70C2EC2
:10411800FAD700000FC00EF0040E106096EF20F0E2
:1041280098EF20F09FEF20F0CBA69DEF20F09FEFB7
:1041380020F05EEF20F0060E0C6E130E0B6EAE0E26
:10414800E82EFED70B2EFCD70C2EFAD710501200F3
:104158007BEC21F084EC21F0010E59EC20F0136E79
:10416800050E066EDC0E056E43EC21F0020E59ECCE
:1041780020F0146E050E066EDC0E056E43EC21F081
:104188001338F00B1410156E230E1518D8A4CFEFA2
:1041980020F0D1EF20F0E1EF20F0CB8C150E126E5D
:1041A8004B0E116EBE0EE82EFED7112EFCD7122E26
:1041B800FAD700D0CB9CB0EF20F020EC21F0B0EF84
:0641C80020F057EF20F08B
:1041D0003901A1A1EEEF20F0F0EF20F01FEF21F068
:1041E000000E046E000E036ECB9A020E026E450E98
:1041F000016EAA0EE82EFED7012EFCD7022EFAD7AA
:10420000CB8A020E026E450E016EAA0EE82EFED774
:10421000012EFCD7022EFAD7034A042A04BE1AEF55
:1042200021F0045009E10A0E035CD8A01AEF21F036
:104230001CEF21F0F4EF20F03901A191CB9A11008D
:10424000000E0A6E000E096ECB8A010E066EF40E89
:10425000056E43EC21F0CB9A000E066E640E056EDF
:1042600043EC21F0094A0A2A0ABE40EF21F00A5025
:1042700009E1050E095CD8A040EF21F042EF21F0E2
:1042800024EF21F01200000E086E000E076E4FEFB3
:1042900021F0C80E00D0E82EFDD7074A082A0550A5
:1042A000075C06500858D8A058EF21F05AEF21F0CB
:1042B00049EF21F012000A6E010EF66E20EE05F0B5
:1042C000040E09006F00D7FFDEFFE806FAE20A508D
:1042D000050FD96EDA6ADF50CD6E1200080ED56E6A
:1042E000400ED66E000ED76E000EF86E200EF76EE2
:1042F0000001ACEF20F03A01706BC56ACD6A506BDB
:104300000F0EC36ECB6A1200D28AD28ED28CD280AC
:0A431000390181819181A191120011
:020000040030CA
:0A000000F8FFFFFF9FFFFFFFFFFF67
:00000001FF
