:0400000057EF20F0A6
:022000000000DE
:104008002B102B102B102B102B102B102B102B10D0
:104018002D102B102B102B102B102B102B102B10BE
:104028002B102B102B102B102B102B102B102B10B0
:104038002B102B102B102B102B102B102B102B10A0
:104048002B102B102B102B102B102B102B102B1090
:104058002B102B102B102B102B102B102B102B1080
:104068002B102B102B102B102B102B102B102B1070
:104078002B102B102B102B102B102B102B102B1060
:104088002B102B102B102B102B102B102B102B1050
:104098002B102B102B102B102B102B102B102B1040
:0A40A8002B102B10FF008DEF20F00D
:1040B4003901A1A160EF20F062EF20F078EF20F049
:1040C400000E026E000E016ECD90CD80014A022AD0
:1040D40002BE76EF20F0025009E10A0E015CD8A07E
:1040E40076EF20F078EF20F066EF20F03901A1910F
:1040F400CD9011003A01706BC56ACD6A506B010E08
:10410400C36ECB6A516996EC20F0CD92CD8287EFD5
:1041140020F057EF20F0080ED56E400ED66E000E3C
:10412400D76E00017CEF20F0D28AD28ED28CD2805E
:0A413400390181819181A1911200EF
:020000040030CA
:0A000000F8FFFFFF9FFFFFFFFFFF67
:00000001FF
