:04000000FEEFFFF020
:1020000000446966666963756C74793A20256420BA
:10201000202000001250800B1B6E12501224216EE3
:1020200011AE15EF10F017EF10F018EF10F021803F
:102030002150D8B41EEF10F020EF10F033EF10F065
:102040002128D8A426EF10F028EF10F030EF10F080
:10205000000E0F6E000E106E000E116E000E126E4E
:10206000118E3BEF10F0000E0F6E000E106E000E82
:10207000116E000E126E1650800B1B1A165016248D
:10208000206E15AE46EF10F048EF10F049EF10F05B
:1020900020802050D8B44FEF10F051EF10F064EFD3
:1020A00010F02028D8A457EF10F059EF10F061EF8E
:1020B00010F0000E136E000E146E000E156E000E62
:1020C000166E158E6CEF10F0000E136E000E146E6F
:1020D000000E156E000E166E2050D8B472EF10F080
:1020E00074EF10F07CEF10F02150D8A47AEF10F0CC
:1020F0007CEF10F086EF10F0000E0F6E000E106EE9
:10210000000E116E000E126E2EEF12F015500F021F
:102110006F00CCFF26F06F00D0FF27F026501C6E1A
:102120001D6A1E6A1F6A2750226E236A246A256A66
:10213000145010026F00CCFF26F06F00D0FF27F084
:1021400026501C26000E1D221E221F22275022264A
:10215000000E232224222522135011026F00CCFFEF
:1021600026F06F00D0FF27F026501C26000E1D22FF
:102170001E221F2227502226000E2322242225223F
:102180001EC01FF01DC01EF01CC01DF01C6A1350A5
:1021900010026F00CCFF26F06F00D0FF27F0265012
:1021A0001C2627501D22000E1E22000E1F22145036
:1021B0000F026F00CCFF26F06F00D0FF27F02650F3
:1021C0001C2627501D22000E1E22000E1F221EC09C
:1021D0001FF01DC01EF01CC01DF01C6A13500F0222
:1021E0006F00CCFF26F06F00D0FF27F026501C2692
:1021F00027501D22000E1E22000E1F221550100215
:102200006F00CCFF26F06F00D0FF27F0265022266B
:1022100027502322000E2422000E252214501102E2
:102220006F00CCFF26F06F00D0FF27F0265022264B
:1022300027502322000E2422000E252215501102C1
:102240006F00CCFF26F06F00D0FF27F02650176EEE
:102250002750186E196A1A6A19C01AF018C019F0B6
:1022600017C018F0176A1750222618502322195049
:1022700024221A5025221CC017F01DC018F01EC0C1
:1022800019F01FC01AF0190E4BEF11F0D8901A3246
:10229000193218321732E82E46EF11F01750222665
:1022A00018502322195024221A5025221EC01FF034
:1022B0001DC01EF01CC01DF01C6A205021C017F06C
:1022C000186A1726000E1822820E1724266EFF0E9B
:1022D0001820276E81EF11F0D8902236233624364D
:1022E00025361FAE76EF11F078EF11F079EF11F08F
:1022F0002280D8901C361D361E361F362606D8A0E2
:10230000270624AE86EF11F088EF11F06CEF11F084
:10231000206A1FAE8EEF11F090EF11F0B4EF11F0C4
:10232000FF0E1C14176EFF0E1D14186EFF0E1E14E8
:10233000196E7F0E1F141A6E1750181019101A10EC
:10234000D8B4A5EF11F0A7EF11F0ABEF11F0010E2B
:10235000206EB4EF11F022A0B0EF11F0B2EF11F047
:10236000B4EF11F0A7EF11F02050D8B4BAEF11F08C
:10237000BCEF11F0E0EF11F0010E2226000E232237
:102380002422252225A0C7EF11F0C9EF11F0E0EFBC
:1023900011F022C017F023C018F024C019F025C096
:1023A0001AF01A341A3219321832173217C022F0C2
:1023B00018C023F019C024F01AC025F0264A272A95
:1023C00027BEEBEF11F0275008E12628D8A0EBEF4D
:1023D00011F0EDEF11F0F7EF11F0000E226E000E8C
:1023E000236E800E246E7F0E256E24EF12F027BE22
:1023F00004EF12F0275006E12604D8B002EF12F0E5
:1024000004EF12F00FEF12F0000E226E000E236E9A
:10241000000E246E000E256E1B6A24EF12F026C0FB
:1024200021F0FF0E2216FF0E23167F0E2416000E3B
:10243000251621A01EEF12F020EF12F021EF12F06E
:10244000248ED8902130256E1B50251222C00FF00B
:1024500023C010F024C011F025C012F012000C505F
:10246000D96EDA6A6F007FFFF6FF0800F550250A83
:10247000D8A43DEF12F03FEF12F0F8EF12F00C503D
:10248000D96EDA6ADF2A000E346E000E336E33C066
:1024900037F0356836680C50D96EDA6ADF50106E46
:1024A000600043F0F6FF0800F550640AD8B45BEF13
:1024B00012F05DEF12F06AEF12F0600043F0F6FFE9
:1024C0000800F550690AD8A468EF12F06AEF12F01C
:1024D000F2EF12F00D50D96EDA6A020EDF26DF5CE1
:1024E000D96EDA6A6F0078FF11F06F0078FF12F092
:1024F0000C50D96EDA6A1028DF6E200E156E12BEEF
:1025000084EF12F087EF12F0010E88EF12F0000E48
:102510000F6E15061550600FD96EDA6A11C001F002
:1025200012C002F0000E046E0A0E036E45EC15F0A8
:1025300001C007F002C008F09DEC16F00750300F04
:10254000DF6E11C001F012C002F0000E046E0A0E20
:10255000036EE4EC14F001C011F002C012F011504F
:102560001210D8B4B6EF12F0B8EF12F0C0EF12F0BC
:102570001550D8A4BEEF12F0C0EF12F089EF12F0A0
:102580001550D8B4C6EF12F0C8EF12F0E7EF12F012
:102590000F50D8B4CEEF12F0D0EF12F0E7EF12F0F8
:1025A00015061550600FD96EDA6A2D0EDF6EE7EF53
:1025B00012F01550600FD96EDA6ADF500E6E0E50B1
:1025C000016E026A0BC003F09CEC15F0152A200E78
:1025D0001518D8A4EEEF12F0F0EF12F0D9EF12F0C8
:1025E00008EF13F00C50D96EDA6ADF2A08EF13F007
:1025F0000C50D96EDA6A6F007FFFF6FF0800F550C5
:10260000016E026A0BC003F09CEC15F0F2EF12F0C1
:102610001200096E0950D8B410EF13F012EF13F046
:1026200034EF13F004BE19EF13F017EF13F034EF8B
:1026300013F001C005F002C006F003C007F004C0AB
:1026400008F0051E061E071E081E052A000E06229B
:102650000722082205C00BF006C00CF007C00DF0E1
:1026600008C00EF03CEF13F001C00BF002C00CF0FC
:1026700003C00DF004C00EF001500210031004104E
:10268000D8A445EF13F047EF13F051EF13F0000E0D
:10269000016E000E026E000E036E000E046EE2EF7D
:1026A00013F0960E0A6E5BEF13F00A2AD8900E32E2
:1026B0000D320C320B32000E0B14056E000E0C1492
:1026C000066E000E0D14076EFE0E0E14086E0550F9
:1026D000061007100810D8A470EF13F072EF13F073
:1026E00055EF13F080EF13F00A2A010E0B26000EAF
:1026F0000C220D220E22D8900E320D320C320B32EB
:10270000000E0B14056E000E0C14066E000E0D1458
:10271000076EFF0E0E14086E055006100710081005
:10272000D8A495EF13F097EF13F074EF13F09FEF29
:1027300013F00A06D8900B360C360D360E360DBE49
:10274000A4EF13F0A6EF13F0AEEF13F0020E0A6041
:10275000ACEF13F0AEEF13F099EF13F00AB0B3EF54
:1027600013F0B5EF13F0B6EF13F00D9ED8900A32C8
:102770000AC005F0066A076A086A05C008F0076A19
:10278000066A056A05500B1206500C1207500D120E
:1027900008500E120950D8B4D0EF13F0D2EF13F056
:1027A000DAEF13F004BED9EF13F0D7EF13F0DAEF3E
:1027B00013F00E8E0BC001F00CC002F00DC003F040
:1027C0000EC004F01200000E0114096E000E021477
:1027D0000A6E800E03140B6E7F0E04140C6E0950EB
:1027E0000A100B100C10D8A4F8EF13F0FAEF13F046
:1027F00002EF14F0000E016E000E026E000E036E6A
:10280000000E046E000E0514096E000E06140A6E0A
:10281000800E07140B6E7F0E08140C6E09500A1000
:102820000B100C10D8A417EF14F019EF14F021EFCF
:1028300014F0000E056E000E066E000E076E000E00
:10284000086E04AE26EF14F028EF14F031EF14F008
:10285000016C021ED8B0022A031ED8B0032A800ED3
:10286000045608AE36EF14F038EF14F041EF14F0D0
:10287000056C061ED8B0062A071ED8B0072A800E9F
:102880000856000E011A000E021A000E031A800EDE
:10289000041A000E051A000E061A000E071A800E02
:1028A000081A0550015C065002580750035808509A
:1028B0000458D8B05EEF14F060EF14F063EF14F03A
:1028C000D89064EF14F0D8801200B7EC16F001C075
:1028D00028F002C029F028C001F029C002F0036AE4
:1028E000046A000E09EC13F001C00FF002C010F0F2
:1028F00003C011F004C012F0330E136E330E146EC9
:10290000530E156E3A0E166E0AEC10F00FC02AF038
:1029100010C02BF011C02CF012C02DF02AC001F015
:102920002BC002F02CC003F02DC004F0000E056E89
:10293000000E066E800E076E3F0E086EE3EC13F07D
:10294000D8B0A5EF14F0A7EF14F0AAEF14F0010E21
:10295000E3EF14F0000E016E000E026E800E036EA7
:102960003F0E046E2AC005F02BC006F02CC007F005
:102970002DC008F0E3EC13F0D8B0C1EF14F0C3EFB2
:1029800014F0C6EF14F0020EE3EF14F0000E016E27
:10299000000E026EC00E036E3F0E046E2AC005F0DC
:1029A0002BC006F02CC007F02DC008F0E3EC13F0AC
:1029B000D8B0DDEF14F0DFEF14F0E2EF14F0030E07
:1029C000E3EF14F0040E1200066A04BEECEF14F0FC
:1029D000EAEF14F0F2EF14F0036C041ED8B0042AEE
:1029E000010E066E02BEF9EF14F0F7EF14F0FFEFE0
:1029F00014F0016C021ED8B0022A010E061A000E55
:102A0000086E000E076E03500410D8B40AEF15F0DC
:102A10000CEF15F034EF15F0010E056E14EF15F004
:102A2000D89003360436052A04AE19EF15F01BEFD3
:102A300015F010EF15F0D890073608360350015CFA
:102A400004500258D8A027EF15F029EF15F02EEF0B
:102A500015F00350015E0450025A0780D8900432EA
:102A60000332052E1BEF15F00650D8B43AEF15F0DF
:102A70003CEF15F040EF15F0076C081ED8B0082A9F
:102A800007C001F008C002F01200066A02BE4DEF56
:102A900015F04BEF15F053EF15F0016C021ED8B096
:102AA000022A010E066E04BE5AEF15F058EF15F01B
:102AB0005EEF15F0036C041ED8B0042A0350041016
:102AC000D8B465EF15F067EF15F08BEF15F0010E38
:102AD000056E6FEF15F0D89003360436052A04AE64
:102AE00074EF15F076EF15F06BEF15F00350015C05
:102AF00004500258D8A07FEF15F081EF15F085EF54
:102B000015F00350015E0450025AD890043203328B
:102B1000052E76EF15F00650D8B491EF15F093EF2F
:102B200015F097EF15F0016C021ED8B0022A01C013
:102B300001F002C002F012000350D8B4A2EF15F069
:102B4000A4EF15F0ACEF15F00350D8A4AAEF15F0E0
:102B5000ACEF15F0B1EF15F001503CEC17F0F1EFD0
:102B600015F00350D96EDA6A090ED926DE50DE1050
:102B7000D8B4BDEF15F0BFEF15F0D8EF15F0035046
:102B8000D96EDA6A090ED9260350E16EE26A020EA6
:102B9000E126DE50E65CE650800A086EDE50800AD0
:102BA0000858D8B0D6EF15F0D8EF15F0F1EF15F0C2
:102BB0000350D96EDA6A020ED926DF50046E035034
:102BC000D96EDA6ADF500424D96EDA6A600007F041
:102BD000DFFF0350D96EDA6A020ED926DE2A000E14
:102BE000DD221200E2EC16F0F7EC16F065EC14F0C2
:102BF0002E6E380E1A6E010E1B6E2EC01CF01D6A52
:102C000083EC16F0000E096E380E0A6E010E65ECAC
:102C100016F02E04D8A40FEF16F011EF16F013EFF4
:102C200016F0F6EF15F0020E2E18D8A41AEF16F0D3
:102C30001CEF16F01EEF16F0F6EF15F0F6EF15F09C
:102C4000FEEFFFF0000E046E000E036E3BEF16F079
:102C5000000E066E000E056E054A062A065009E1B2
:102C6000A50E055CD8A037EF16F039EF16F02CEF63
:102C700016F0034A042A0150035C02500458D8A0FD
:102C800044EF16F046EF16F028EF16F0120017C0CA
:102C900019F053EF16F016C00BF0190E0C6E18C099
:102CA0000DF02FEC12F0600067F0F6FF0800F55011
:102CB0000009D8A45EEF16F060EF16F04BEF16F0A7
:102CC000000E176E000E166E12000B6E020E0B60D9
:102CD0006CEF16F06EEF16F077EF16F009500F0B51
:102CE00080090C6E0C502DEC17F07EEF16F0095099
:102CF0000F0BC0090C6E0C502DEC17F00AC008F039
:102D0000CDEC16F012001C0E1E6E1AC01FF0000E45
:102D1000226E000E216E000E296E000E286E1F0E10
:102D2000166E1BC017F01E0E186E47EC16F01A50E8
:102D30002124D96EDA6ADF6A120008BEA2EF16F00B
:102D4000A4EF16F0AAEF16F007C007F008C008F0CD
:102D5000B6EF16F007C009F008C00AF0091E0A1EF7
:102D6000094A0A2A09C007F00AC008F012003E0109
:102D7000F881F8B1BEEF16F0C0EF16F0B9EF16F01B
:102D8000EF516F00C0FB03F0046A03C004F0036A54
:102D90000310016E0450026E1200D6EF16F00850B8
:102DA000D96EDA6ADF501EEC17F0082A0850D96E87
:102DB000DA6ADF50D8A4DFEF16F0E1EF16F0CFEFBC
:102DC00016F01200000E026E0F0E016E22EC16F0CD
:102DD000C36AC56A010E2DEC17F0380E2DEC17F002
:102DE0000C0E2DEC17F0060E2DEC17F012003E0124
:102DF000F851F30B0409F86FF889C2803A01408159
:102E00003E01F16BFF6BF06BEF6BF66BF76BF36BE7
:102E1000F46BF88F120000EE60F0200EEE6AE80608
:102E2000FDE100EE2FF0130EEE6AE806FDE1000E64
:102E3000F86E200EF76E0001F2EF15F0076E6000DD
:102E40001FF0BBFFBD80BD820000BD92000E026E70
:102E5000010E016E22EC16F01200076E60001FF0EA
:102E6000BBFFBD90BD820000BD92000E026E030E3E
:0A2E7000016E22EC16F012001200B1
:020000040001F9
:04FFFC000BEF17F000
:020000040030CA
:0A000000F8FFFFFF9FFFFFFFFFFF67
:00000001FF
